:020000040100F9
:10100000F8590020E1100001B92100014119000147
:10101000B5210001411200012F360001000000003F
:10102000000000000000000000000000712A000124
:101030009D13000100000000312300010511000193
:10104000071100010711000107110001071100013C
:1010500033230001CD330001071100010711000106
:1010600007110001071100011530000107110001EF
:10107000071100010711000107110001071100010C
:1010800007110001071100010711000107110001FC
:1010900007110001071100010711000107110001EC
:1010A00007110001071100010711000107110001DC
:1010B00007110001DFF80CD000F0B0F8004800473D
:1010C000353C0001F85900204FF0180100FB01F0F9
:1010D00000BF00BF00BF013800BFFCD100BF704798
:1010E00009480A4908600068854609488047094858
:1010F00000470000FEE7FEE7FEE7FEE7FEE7FEE74B
:10110000FEE7FEE7FEE7FEE70010000108ED00E065
:10111000FF2F0001B510000110B5431A934209D208
:101120008318881803E010F8011D03F8011D521EF2
:10113000F9D210BD40EA01039B0703D009E008C9BA
:10114000121F08C0042AFAD203E011F8013B00F88C
:10115000013B521EF9D210BDD2B201E000F8012BC2
:10116000491EFBD270470022F6E710B513460A4627
:1011700004461946FFF7F0FF204610BD2DE9F05F49
:101180000546002092469B468846064681464024F6
:101190001BE0284641464746224600F02FF85346BA
:1011A0005A46C01A914110D311461846224600F003
:1011B00016F82D1A67EB01084F4622460120002140
:1011C00000F00DF817EB00094E41201EA4F10104B8
:1011D000DFDC484631462A464346BDE8F09F202AD8
:1011E00004DB203A00FA02F1002070479140C2F17E
:1011F000200320FA03F3194390407047202A04DBB0
:10120000203A21FA02F00021704721FA02F3D0407F
:10121000C2F120029140084319467047064C074D21
:1012200006E0E06840F0010394E8070098471034B6
:10123000AC42F6D3FFF742FF784D0001984D000114
:1012400000BFFEE72DE9FC4105460C46687A3128CF
:1012500004D0322803D0332850D13AE000BF687A56
:10126000312801D1607203E0687A322800D16072BF
:10127000D5F8308101A805F59A73424619460090C9
:10128000204800F05FFBC6B2B6B90198401D60600F
:101290000198C4F83001002706E005F59A70C15D99
:1012A00004F59A70C1557F1CD4F83001B842F4D8C7
:1012B000592084F80C0121E00320606006F16400ED
:1012C00018B9452084F80C0118E04E2084F80C0170
:1012D00014E033206072032060601EB9592084F846
:1012E0000C010AE006F17D0018B9452084F80C01D4
:1012F00004E04E2084F80C0100E000BF00BFBDE810
:10130000FC810000D41800202DE9F04107460C466E
:10131000DFF87C80787A302802D0312835D133E06C
:10132000302060721B4AA2F14001002003F056FAFF
:1013300046B2EEB9002507E016484038415D04F298
:1013400033204155681CC5B2134890F86D08A84277
:10135000F2DC114890F86D08C01C60600E4890F8EF
:101360006D08801EC4F83403592084F80C010CE089
:1013700003206060701C18B9452084F80C0104E05B
:101380004E2084F80C0100E000BF00BFBDE8F081F2
:10139000F4180020A91500203C0D002010B502A073
:1013A00002F048F910BD00004E4D495F48616E647F
:1013B0006C65720D0A000000032800DB70470021F5
:1013C00000EB40120C4B03EB0212C2F8001200EBD0
:1013D000401203EB0212C2F8081200EB401203EBBA
:1013E0000212C2F80C12491E00EB401203EB02126B
:1013F000C2F8041200BFE1E73C0000207FB50446BC
:10140000134B0FCB8DE80F00124884420BD01148CC
:101410001030844207D00F482030844203D00D485A
:101420003030844200D103E033210BA002F053FBA3
:10143000002507E05DF82500A04202D1284604B04F
:1014400070BD6D1C042DF5DB4FF0FF30F7E7000099
:10145000584D000100D001402E2E5C4C6962726133
:10146000726965735C4D48534350555F44726976A9
:1014700065725C7372635C6D68736370755F6770CF
:10148000696F2E630000000070B504460D464FF0F2
:10149000FF364E4884420BD04C481030844207D06F
:1014A0004A482030844203D048483030844200D13A
:1014B00003E0552146A002F00EFB28686FF30F00F1
:1014C00010B9286800B103E0562141A002F003FBE7
:1014D000686801280BD06868022808D0686803286B
:1014E00005D06868052802D06868042800D103E0A8
:1014F000572137A002F0EFFA288881B22046AA6867
:1015000000F080F8A868022800D070BD2046FFF7E0
:1015100075FF06466868062855D2DFE800F05403D8
:101520000C152A3FA06829680843A060E068296874
:101530008843E06047E0A06829680843A060E0684D
:1015400029680843E0603EE0A06829688843A060FD
:10155000E06829688843E060206829688843206043
:10156000274830F8160029880843254921F8160035
:1015700029E0A06829680843A060E068296808435A
:10158000E06020682968884320601D4830F8160014
:10159000298808431A4921F8160014E0A068296830
:1015A0008843A060E06829688843E0602068296873
:1015B00008432060124830F8160029688843104913
:1015C00021F8160000BF00BF00BF9EE700D0014019
:1015D0002E2E5C4C69627261726965735C4D485372
:1015E0004350555F4472697665725C7372635C6DDB
:1015F00068736370755F6770696F2E630000000029
:10160000000000202DE9F0410746884616463B4879
:1016100087420BD039481030874207D037482030F6
:10162000874203D035483030874200D104E04FF480
:10163000C67133A002F04FFA4FEA18404FEA00405B
:1016400018B9B8F1000F00D004E040F28D112CA0C1
:1016500002F041FA012E05D0022E03D0032E01D054
:10166000042E00D104E04FF4C77125A002F033FA34
:101670003846FFF7C3FE044600253BE00120A840A2
:1016800000EA0800A8B32A4850F824006A000321A1
:1016900091408843264941F82400012E06D0022EAD
:1016A00005D0032E0ED0042E22D116E020E02048D3
:1016B00050F824006A000121914008431C4941F878
:1016C000240015E01A4850F824006A0002219140D5
:1016D0000843174941F824000AE0154850F824004F
:1016E0006A00032191400843114941F8240000BFDA
:1016F00000BF6D1C102DC1D3BDE8F08100D00140AA
:101700002E2E5C4C69627261726965735C4D485340
:101710004350555F4472697665725C7372635C6DA9
:1017200068736370755F6770696F2E6300000000F7
:1017300080D101402DE9F04105460C464FF0FF36BF
:1017400000274FF000082F4885420BD02D4810305D
:10175000854207D02B482030854203D029483030BD
:10176000854200D104E040F20B1127A002F0B3F94A
:10177000012C25D0022C23D0042C21D0082C1FD0E2
:10178000102C1DD0202C1BD0402C19D0802C17D011
:10179000B4F5807F14D0B4F5007F11D0B4F5806F1C
:1017A0000ED0B4F5006F0BD0B4F5805F08D0B4F55F
:1017B000005F05D0B4F5804F02D0B4F5004F00D1E2
:1017C00004E04FF4867110A002F085F92846FFF777
:1017D00015FE0646184830F8160000EA04071648B9
:1017E00030F8160024EA0008134830F816002040AC
:1017F00018B1A868B843A86002E04FEA08406860E2
:10180000BDE8F08100D001402E2E5C4C696272610F
:10181000726965735C4D48534350555F44726976F5
:1018200065725C7372635C6D68736370755F67701B
:10183000696F2E6300000000000000202DE9F041D8
:1018400005460C464FF0FF3600274FF000082E48A3
:1018500085420BD02C481030854207D02A482030D2
:10186000854203D028483030854200D103E0ED2185
:1018700026A002F030F9012C25D0022C23D0042C14
:1018800021D0082C1FD0102C1DD0202C1BD0402C78
:1018900019D0802C17D0B4F5807F14D0B4F5007F18
:1018A00011D0B4F5806F0ED0B4F5006F0BD0B4F545
:1018B000805F08D0B4F5005F05D0B4F5804F02D04A
:1018C000B4F5004F00D103E0EE2110A002F003F9BF
:1018D0002846FFF793FD0646184830F8160000EA40
:1018E0000407164830F8160024EA0008134830F8B8
:1018F0001600204018B1A8683843A86001E0C5F878
:101900000480BDE8F081000000D001402E2E5C4C28
:1019100069627261726965735C4D48534350555FEB
:101920004472697665725C7372635C6D6873637030
:10193000755F6770696F2E63000000000000002073
:1019400000BFFEE72DE9FF4F89B004464FF0000BC2
:10195000002007908246FB4D2E462F46B04606904B
:101960000590049001200390A5F104090190002145
:1019700016980160012003900020069005900490C5
:101980006068102801D2202060606068C01E079047
:10199000607810B10798401E0790E07810B1079862
:1019A000401E0790DDF82CB00020029000BF019887
:1019B0000A287CD2DFE800F07B05637C94A0F8F76E
:1019C000F6F52F460798834527DD207C00F00100BF
:1019D00040F012002870E07818B1287840F0080034
:1019E0002870607818B1287840F0040028707F1CB7
:1019F000E07820B1A07800F00F0007F8010B6078C4
:101A000020B1207800F00F0007F8010BDDF81CA0D2
:101A1000DDF81CA0ABEB0A0B23E0207C00F00100FA
:101A200040F002002870E07818B1287840F00800F3
:101A30002870607818B1287840F0040028707F1C66
:101A4000E07820B1A07800F00F0007F8010B607873
:101A500020B1207800F00F0007F8010BDA464FF0B4
:101A6000000B524638460A99FFF756FB57440A982E
:101A700050440A902878207405200190A8E12F4650
:101A8000207C00F0010040F0A2002870E07818B13E
:101A9000287840F0080028707F1CE07820B1A078FA
:101AA00000F00F0007F8010B0520019090E18EE196
:101AB0002F46207C00F0010040F0B2002870E07852
:101AC00018B1287840F0080028707F1CE07820B119
:101AD000A07800F00F0007F8010B0520019077E1D6
:101AE0002F46F22007F8010B039800F03F0007F89B
:101AF000010B052001906BE10498401C04900398B1
:101B00003B2807D9012003900A2001906FF0630061
:101B100008905DE18C4903980877207B02F002FE73
:101B2000207A02F0C1FF781BA9F80200B9F8022060
:101B3000294609F10400FFF7EFFA0C2089F80000AC
:101B4000484602F0C1FA0890B9F80210CA1701EB32
:101B50005272D2100846CB1701EB5373DB10A1EB86
:101B6000C3030BB1012300E000231A44626109F1B1
:101B7000040130466269FFF7CFFAB9F80200C117D5
:101B800000EB5171C910A0EBC101A1610898B0B17F
:101B90000498022802DC0698022806DD092001903C
:101BA00055E00AE1E6E0B0E057E0607C00F01000AC
:101BB00010B1022001904AE00320019047E000208C
:101BC0000490089830BBB046307800F0E20002285C
:101BD00012D1307800F0020030B16069FE2803D8DD
:101BE000307800F00C0010B1092001902FE00020A7
:101BF0000690062001902AE0307800F0E000A0284E
:101C00000ED1307800F00C0010B96069022802D9BA
:101C1000092001901BE0002006900720019016E0AB
:101C2000307800F0C000C0280FD1307800F00C00F0
:101C300010B96069022802D90920019007E00698CE
:101C4000401C06900820019001E00920019001202D
:101C500003903D4903980877BAE0BBF1000F02D02A
:101C60000920019050E008F10108207C00F00100FB
:101C7000317801F00101884244D1307860743078C5
:101C800000F0100070B1307800F0080008B108F1E1
:101C90000108307800F0040008B108F101080220C2
:101CA00001900DE0307800F0080008B108F101085B
:101CB000307800F0040008B108F101080A20019012
:101CC000A8EB06016069884217D3A8EB060160699A
:101CD000421A41460C98FFF71FFAA8EB060160690B
:101CE000411A0C9808440C90A8EB06016069411A4F
:101CF00016980068014416980160207C80F001006D
:101D0000207401E00920019062E0307800F01000BA
:101D100010B1092001902CE0207C00F00100317806
:101D200001F00101884214D1207C00F0100068B15C
:101D3000207C80F00100207400200590012001909B
:101D400017E00000F8180020D418002009200190A6
:101D50000FE00598401C05900598022802DD092037
:101D6000019006E0D3440A98A0EB0A000A900120F3
:101D700001902DE0307800F0F700F22802D0092021
:101D8000019019E006F10108307800F0080008B170
:101D900008F1010898F8000000F03F0010B9092090
:101DA000019009E00298401C029098F8000000F0B1
:101DB0003F000390042001900AE00898B0F1FF3F33
:101DC00002D06FF0630008900A20019000E000BF8D
:101DD00000BF01980A287FF4EAAD08980DB0BDE86D
:101DE000F08F00002DE9FF5F06460C46EF4800909B
:101DF000707A30380A2824D2DFE800F0052462B275
:101E0000B3FA23F9F863032060603020607203277F
:101E100000BF7F1EE649522002F000FE45B2681C5A
:101E200008B9002FF5D11DB9592084F80C0108E03C
:101E3000681C18B9452084F80C0102E04E2084F893
:101E40000C01B0E131206072032700BF7F1ED8492A
:101E5000522002F0E3FD45B2681C08B9002FF5D10D
:101E6000681C28B903206060452084F80C019AE1C1
:101E7000FDB9CF48C179821C932001F0A7FF45B27C
:101E80000720606075B9592084F80C01C849D1F861
:101E90000210C4F80F11C64A0832911F932002F0B5
:101EA000CBF805E04E2084F80C010021C4F80F1196
:101EB00079E14E2084F80C010021C4F80F1172E181
:101EC00000BF0420606096F80D0184F80D01707A5F
:101ED000322803D160724FF0600A05E0707A392829
:101EE00002D160724FF0610AD6F813110191B6F871
:101EF0001701ADF8080096F80D0180064FEA106B47
:101F000001ABAB4A921C5946504601F025FF45B241
:101F10001DB9592084F80C0145E1281D18B933205A
:101F200084F80C013FE105F11B00A8B9032700BFAD
:101F30007F1E9F49522002F071FD45B2681C08B90E
:101F4000002FF5D1681C18B9452084F80C012AE14E
:101F50004E2084F80C0126E14E2084F80C0122E189
:101F600000BF96F80D0184F80D0196F80E0184F873
:101F70000E0196F80D011F2808DC96F80E1196F850
:101F80000D0101EB800000F0FF0909E096F80D015A
:101F9000802101EB001096F80E11084400F0FF09B3
:101FA000707A332807D1607281491D31484602F0AA
:101FB00001FD45B209E0707A342806D1607206F25C
:101FC0001911484602F088FD45B2EDB91520606050
:101FD000592084F80C01707A33280AD110227449F0
:101FE0001D3104F21910FFF797F80CE09CE09AE01D
:101FF00029E0707A342806D110226D491D3104F28F
:102000001910FFF789F8CEE005F11B00B8B90520DB
:102010006060032700BF7F1E6549522002F0FEFC6E
:1020200045B2681C08B9002FF5D1681C18B94520C5
:1020300084F80C01B7E0342084F80C01B3E04E20A2
:1020400084F80C01AFE0042060603520607296F8DF
:102050000D0184F80D0196F80D011F2808DC96F893
:102060000D01032101EB8000C1B25048417107E02E
:1020700096F80D010F2101EB0010C1B24B484171E0
:102080004FF000080BE006F2131010F80820474844
:10209000001D08F102014254481E00F0FF08B8F18B
:1020A000060FF0DBFF2141480173072141738021B6
:1020B00081736921C1734FF0000809E0FF223B489A
:1020C000001D08F10C01425408F1010000F0FF0866
:1020D000B8F1060FF2DB35494879891D02F0FCFCA6
:1020E00045B21DB9592084F80C015CE005F11B00D4
:1020F000A8B9032700BF7F1E2D49522002F08EFC95
:1021000045B2681C08B9002FF5D1681C18B94520E4
:1021100084F80C0147E04E2084F80C0143E04E2087
:1021200084F80C013FE000BF0520606096F80D01C7
:1021300084F80D0196F80E0184F80E014FF00008A6
:1021400003E008F1010000F0FF08B8F1040FF8DB2C
:10215000707A372801D1607203E0707A382800D194
:1021600060721DB9592084F80C011CE005F11B00B8
:10217000A8B9052700BF7F1E0D49522002F04EFC72
:1021800045B2681C08B9002FF5D1681C18B9452064
:1021900084F80C0107E04E2084F80C0103E03420A1
:1021A00084F80C0100BF00BFBDE8FF9FF4180020B9
:1021B0003C0D002000BFFEE7704700001FB5072060
:1021C00002460B4B19684FF6FF031940094B0B43AE
:1021D00043EA0221064B196000BF04200090002052
:1021E0000190012002900390684600F005F81FBDA1
:1021F0000CED00E00000FA052DE9F0470446E06828
:1022000010B1E068012800D103E011213BA001F0EA
:1022100062FC6068102800D203E0122137A001F0B0
:102220005AFCA068102800D203E0132133A001F06B
:1022300052FCE068002853D000BF3A480068C0F361
:10224000022005462846D4E901230146C1F10708CA
:10225000B8F1040F02D94FF0040801E0C1F10708FA
:10226000C44601F10408B8F1070F02D24FF000088C
:1022700001E0A1F1030847464FF0010808FA0CF805
:10228000A8F1010808EA020808FA07F84FF0010966
:1022900009FA07F9A9F1010909EA030948EA090657
:1022A00000BF30462168002908DA0207170E1D4AD0
:1022B0000C3201F00F031B1FD75403E00207130E6B
:1022C000194A535400BF206800F01F0201219140B9
:1022D0004209920002F1E022C2F8001100BF0AE0B8
:1022E000206800F01F0201219140104A430942F882
:1022F000231000BF00BFBDE8F08700002E2E5C4C0D
:1023000069627261726965735C4D48534350555FF1
:102310004472697665725C7372635C6D6973632E77
:10232000630000000CED00E000E400E080E100E06C
:10233000704710B5002000F001F810BD2DE9F047FE
:1023400005464FF00009DFF8E083F84800EB451739
:10235000F74850F825403868012804D002287ED07C
:10236000032874D1F4E0E06E00F02A00D8B1E06EEA
:1023700000F0200020B1DFF8B083A8F10F086BE077
:10238000E06E00F0020020B1DFF89C8308F1030842
:1023900062E0E06E00F0080000285DD0DFF888837E
:1023A00008F1010858E0E06E00F4C060002853D046
:1023B000206886B20020788340F20310864201D064
:1023C0003B2E45D140F20310864206D1012078838E
:1023D000606840F0030060603F2605EB4511D54B77
:1023E00003EB0111D1F80802411C05EB4513DFF89E
:1023F00044C30CEB0313C3F8081205EB4511634605
:1024000003EB01110E5405EB4510194601EB0010CA
:10241000D0F80802B0F5007F07D1002005EB451188
:102420001A4602EB0111C1F80802206920F02000D1
:102430002061206940F4A8702061206A10B94FF42F
:10244000C060E06602203860BDE8F08707E074E114
:10245000DFF8D482A8F11208002038606EE1E06E47
:1024600000F4807020B1DFF8C082A8F111086EE09E
:10247000E06E00F0400020B1DFF8AC82A8F1100857
:1024800065E0E06E00F0020020B1DFF89C8208F108
:1024900003085CE0E06E00F0100020B1DFF88882F5
:1024A000A8F1020853E0E06E00F4C060F0B347E02A
:1024B000206886B206F48070C0B1DFF86C82A8F1A3
:1024C000020805EB45109B4901EB0010D0F808020B
:1024D00005EB4511974A02EB0111C1F80402404691
:1024E00005EB451102EB0111C1F8000205EB4511A6
:1024F000904B03EB0111D1F80802411C05EB451389
:10250000DFF830C20CEB0313C3F8081205EB4511DA
:10251000634603EB01110E5405EB4510194601EB20
:102520000010D0F80802B0F5007F00E00FE007D1FE
:10253000002005EB45111A4602EB0111C1F8080213
:10254000206A0028B4D14FF4C060E0667CE7F5E073
:10255000A06800F00400042877D1E06E00F01A00B3
:10256000A8B1E06E00F01000102806D10120E06153
:10257000DFF8B481A8F1050876E0E06E00F0020013
:10258000022871D1DFF8A08108F103086CE0E06E49
:1025900000F40060B0F5006F66D105EB45106549A9
:1025A00001EB0010D0F8080205EB4511614A02EB7F
:1025B0000111D1F80C1288420FD1E06968B9A06806
:1025C00020F00400A0604FF47F60E06640F282706B
:1025D00020612846FEF7F0FE42E03DE005EB4510A5
:1025E000544901EB0010D0F8080205EB4511514A9F
:1025F00002EB0111D1F80C12884227D005EB4511EE
:1026000002EB0111D1F80C02411C05EB4512494BBC
:1026100003EB0212C2F80C1205EB45111A4602EB4D
:102620000111095C216005EB4510114601EB00101A
:10263000D0F80C02B0F5007F0ED1002005EB45115B
:1026400002EB0111C1F80C0206E011E0A06900F0F4
:10265000F000401CA06102E0E0690828BED300BF82
:102660004FF40060E066EFE62846FEF7A5FE63E063
:10267000D4F86C80E06E00F4807020B1DFF8A880A0
:10268000A8F1040858E0E06E00F0800020B1DFF807
:102690009880A8F103084FE0E06E00F0100020B130
:1026A000DFF88480A8F1020846E0E06E00F4C06024
:1026B000C8B331E0206886B206F4807020B11A49B0
:1026C000891E284600F04AF805EB4511194B03EB2B
:1026D0000111D1F80802411C05EB4513DFF854C085
:1026E0000CEB0313C3F8081205EB4511634603EB2B
:1026F00001110E5405EB4510194601EB0010D0F8FE
:102700000802B0F5007F07D1002005EB45111A46FD
:1027100002EB0111C1F80802206A0028CAD14FF467
:10272000C060E06690E607E00BF5FFFF6C06002056
:10273000684D00013C00002000E000BF00BF002009
:1027400020614FF47F60E0664146284600F006F8BD
:10275000A06820F00400A06000BF75E610B500EB93
:102760004012164B03EB0212D2F800227AB100EBB2
:10277000401203EB0212D2F8042200EB40130F4C7C
:1027800004EB0313D3F80C329A4200DD10BD00EBCA
:1027900040120A4B03EB0212C2F8001200EB401287
:1027A00003EB0212D2F8082200EB4013034C04EBB7
:1027B0000313C3F8042200BFE8E700003C00002038
:1027C00070B505460C460CB1012C00D103E0402148
:1027D00004A001F080F914B10120A86001E00020FC
:1027E000A86070BD2E2E5C4C69627261726965735F
:1027F0005C4D48534350555F4472697665725C7313
:1028000072635C6D68736370755F7370692E6300CB
:1028100070B505460C460026082C07D0102C05D0B4
:10282000042C03D0022C01D0012C00D103E0C521DF
:1028300005A001F050F9A86A204008B1012600E087
:102840000026304670BD00002E2E5C4C696272611D
:10285000726965735C4D48534350555F44726976A5
:1028600065725C7372635C6D68736370755F7370BF
:10287000692E630070B505460C46206858B1206883
:10288000B0F5807F07D02068B0F5007F03D02068C6
:10289000B0F5407F00D103E00F2164A001F01BF9E7
:1028A000A0680F2802D0A068072800D103E01021FB
:1028B0005EA001F010F96069012801D0606900B9DB
:1028C00003E0112159A001F006F9E06810B1E068B9
:1028D000802800D103E0122154A001F0FCF8206907
:1028E00010B12069402800D103E013214FA001F06E
:1028F000F2F8A069022815D0A069042812D0A069B6
:1029000008280FD0A06910280CD0A069202809D071
:10291000A069402806D0A069802803D0A069B0F53E
:10292000807F00D103E0142140A001F0D4F8E069D9
:1029300060B3E069012829D0E069022826D0E06967
:10294000032823D0E069042820D0E06905281DD0A1
:10295000E06906281AD0E069072817D0E06908283E
:1029600014D0E069092811D0E0690A280ED0E06986
:102970000B280BD0E0690C2808D0E0690D2805D0A1
:10298000E0690E2802D0E0690F2800D103E015218C
:1029900026A001F0A0F8206A60B3206A012829D09F
:1029A000206A022826D0206A032823D0206A04281F
:1029B00020D0206A05281DD0206A06281AD0206A57
:1029C000072817D0206A082814D0206A092811D0B7
:1029D000206A0A280ED0206A0B280BD0206A0C2807
:1029E00008D0206A0D2805D0206A0E2802D0206A5F
:1029F0000F2800D803E016210CA001F06CF800208D
:102A0000A860E8622088A1890843218A08432189B7
:102A100008432880A069686160692861E069E8610D
:102A2000206AA861284600F017F870BD2E2E5C4C75
:102A300069627261726965735C4D48534350555FBA
:102A40004472697665725C7372635C6D68736370FF
:102A5000755F7370692E630010B50446204600F060
:102A600089F910BD0146086E80B270470166704753
:102A70007047000070B504460D460F48204008B16D
:102A800004B103E078210DA001F025F80DB1012D6E
:102A900000D103E0792109A001F01DF82DB1134800
:102AA000406820431149486004E010484068A04352
:102AB0000E49486070BD0000034730F42E2E5C4C78
:102AC00069627261726965735C4D48534350555F2A
:102AD0004472697665725C7372635C6D687363706F
:102AE000755F7379736374726C2E630000F001403C
:102AF00070B504460D460F48204008B104B103E00C
:102B0000C4210DA000F0E7FF0DB1012D00D103E0BD
:102B1000C52109A000F0DFFF2DB11348C068204394
:102B20001149C86004E01048C068A0430E49C8605D
:102B300070BD0000034730F42E2E5C4C6962726158
:102B4000726965735C4D48534350555F44726976B2
:102B500065725C7372635C6D68736370755F7379C3
:102B6000736374726C2E630000F001400D490968B4
:102B700001F03001102902D10B49016006E009493A
:102B8000096801F0300109B9084901600549C96ABD
:102B90004FF47A72514341600249096B514381609D
:102BA0007047000000F0014000D8B80500A24A04B8
:102BB00010B504461CB1012C01D0022C00D104E058
:102BC0004FF4B0711BA000F086FF24B3012C02D09B
:102BD000022C2CD10EE02348006840F00800214967
:102BE00008600846006820F0040008600846006895
:102BF00008601CE01B48006840F0080019490860A4
:102C00000846006820F0040008600846006840F0AC
:102C1000040008600BE01348006820F00800114928
:102C200008600846006820F00400086000BF00BF8C
:102C300010BD00002E2E5C4C696272617269657372
:102C40005C4D48534350555F4472697665725C73BE
:102C500072635C6D68736370755F737973637472AC
:102C60006C2E630000F0014010B504460CB1012C3D
:102C700000D104E040F27B110FA000F02CFF14B152
:102C8000012C16D109E01848006820F0010016490F
:102C900008600846006808600BE01348006820F0F0
:102CA0000100114908600846006840F00100086012
:102CB00000BF00BF10BD00002E2E5C4C6962726127
:102CC000726965735C4D48534350555F4472697631
:102CD00065725C7372635C6D68736370755F737942
:102CE000736374726C2E630000F0014010B50446EB
:102CF000022C01D0012C00D104E040F24B1110A0B5
:102D000000F0E9FE012C02D0022C16D109E018488F
:102D1000006820F030001649086008460068086026
:102D20000BE01348006820F03000114908600846A5
:102D3000006840F01000086000BF00BF10BD000038
:102D40002E2E5C4C69627261726965735C4D4853EA
:102D50004350555F4472697665725C7372635C6D53
:102D600068736370755F7379736374726C2E63003C
:102D700000F0014015490144B9B1B1F5805F1BD0A5
:102D8000B1F5005F03D0B1F5405F1CD106E01049FA
:102D9000896921F080710E4A916114E00C498969BA
:102DA00041F080710A4A91610DE00949896921F079
:102DB0000071074A916106E00549896921F0806147
:102DC000034A916100BF00BF704700000080FEBF52
:102DD00000F0014010B504460CB1012C00D104E014
:102DE00040F239110BA000F076FE14B1012C0ED187
:102DF00006E01448006820F400701249086006E0FC
:102E00001048006840F400700E49086000BF00BF21
:102E100010BD00002E2E5C4C696272617269657390
:102E20005C4D48534350555F4472697665725C73DC
:102E300072635C6D68736370755F737973637472CA
:102E40006C2E630000F001402DE9F041044600269D
:102E5000207A35284FD1607A30380A2849D2DFE805
:102E600000F005091922231B483D3E1A94F80C0175
:102E7000A0723FE094F80C01A072002507E004F274
:102E80000F10425D04F10A00691C42546D1C042DB0
:102E9000F5D32FE000BF00BF94F80D01A07294F8A5
:102EA0000C11E17226E000BF94F80D01A07294F8B5
:102EB0000E11E17294F80C11217394F80C01592849
:102EC0000BD1002507E004F21910425D04F10A005D
:102ED000E91C42546D1C102DF5D30BE000BF94F893
:102EE0000D01A07294F80E11E17294F80C11217387
:102EF00000E000BF4EE0207A37282DD1607A2F38CD
:102F0000052828D2DFE800F004030506230000BFEF
:102F100000BF00BF94F80C01A07294F80C0159286E
:102F200014D1B4F83001010AE17294F83011217320
:102F3000002507E004F59A70425D04F10A00E91CDF
:102F400042546D1CD4F83001A842F3D803E094F841
:102F50000C01A07200BF1DE0207A38281AD1607AD7
:102F6000302816D194F80C01A07294F80C0159285D
:102F70000ED1002507E004F23320425D04F10A007F
:102F8000691C42546D1CD4F83403801CA842F2D84A
:102F900000BF00BF86F00206022000F0A1FAA08860
:102FA000C0F307277E40384600F09AFA27797E4022
:102FB000384600F095FA207A4640607A4640207AFA
:102FC00000F08EFA607A00F08BFA002509E004F137
:102FD0000A00405D464004F10A01485D00F080FAB5
:102FE0006D1C6068801EA842F1D886F0030603209D
:102FF00000F076FA304600F073FABDE8F08110B5C3
:103000000220FFF773FE0020FFF7D2FD0020FFF73C
:103010002BFE10BD10B505480068401C0349086030
:103020000121034800F006F810BD00001000002048
:103030000030014008B501EB810200EB8202D2684A
:10304000009208BD70B504460D4616460EB1012E1D
:1030500000D103E024210FA000F03DFD66B105EB97
:10306000850004EB8000806840F0010005EB8501DD
:1030700004EB810188600BE005EB850004EB800028
:10308000806820F0010005EB850104EB8101886078
:1030900070BD00002E2E5C4C6962726172696573AE
:1030A0005C4D48534350555F4472697665725C735A
:1030B00072635C6D68736370755F74696D65722EA1
:1030C0006300000010B504460348844203D1012187
:1030D0004805FFF70DFD10BD0030014070B50446F6
:1030E0000D4616460EB1012E00D103E04B210FA074
:1030F00000F0F1FC66B105EB850004EB8000806810
:1031000020F0040005EB850104EB810188600BE0F1
:1031100005EB850004EB8000806840F0040005EBBF
:10312000850104EB8101886070BD00002E2E5C4C8F
:1031300069627261726965735C4D48534350555FB3
:103140004472697665725C7372635C6D68736370F8
:10315000755F74696D65722E6300000070B5054679
:103160000C46002228462168FFF76CFF00202168EA
:1031700001EB810105EB81018860206800EB800094
:1031800005EB8000806840F00200216801EB8101BE
:1031900005EB81018860206800EB800005EB800072
:1031A000806820F00800216801EB810105EB8101B6
:1031B0008860D4E9001001EB810145F8210070BD61
:1031C00010B500BF044800F019FA0028FAD00248F0
:1031D00000F026FA10BD0000006001402DE9F0412A
:1031E0000446FFF7EDFF20702078022802D000206F
:1031F000BDE8F081002084F80B0194F80B012178E0
:10320000484084F80B01FFF7DBFF606094F80B0186
:103210002179484084F80B01606800026060FFF784
:10322000CFFF064694F80B01704084F80B016068EC
:1032300030436060A08887B2FFF7C2FF2072FFF7BB
:10324000BFFF607294F80B01217A484084F80B01AB
:1032500094F80B01617A484084F80B0100250CE0DA
:10326000FFF7AEFF04F10A01485594F80B01495DE0
:10327000484084F80B01681CC5B2B81EA842EFDCB8
:10328000FFF79EFF84F80A0194F80A01032801D091
:103290000020ADE794F80B0194F80A11484084F837
:1032A0000B01FFF78DFF064694F80B01B04201D0E9
:1032B00000209DE7207A352850D1607A30380A28DE
:1032C0004BD2DFE800F00506071A21094A35360817
:1032D00000BF42E000BF00BFA07A84F80D010025C6
:1032E00008E004F10A00691C415C04F21310415526
:1032F000681CC5B2062DF4DB2FE0A07A84F80D011E
:10330000E07A84F80E0128E0A07A84F80D01E07AD2
:1033100084F80E01002508E004F10A00A91C415CB4
:1033200004F219104155681CC5B2102DF4DB14E0ED
:1033300000BFA07A84F80D01E07A84F80E01002520
:1033400008E004F10A00A91C415C04F2291041556F
:10335000681CC5B2042DF4DB00BF35E0207A3728A5
:1033600027D1607A312804D0322803D033281FD1E6
:103370001DE000BFB43414F8AA0CE067E06F00024F
:10338000E067E06FB43CE17A0843C4F830010025FF
:1033900008E004F10A00A91C415C04F59A7041554B
:1033A000681CC5B2D4F83001A842F2D800E000BFD2
:1033B0000AE0207A382807D1607A302803D1A07A31
:1033C00084F8320200BF00BF012011E770B5424807
:1033D000806800F00F05042D0AD004DC012D76D0A2
:1033E000022D75D148E0062D73D00C2D70D100E070
:1033F00000BF002438E038480068C2B23748D0F82F
:103400001831D0F81801401C3449C1F8180101F5F1
:103410009070C2540846D0F81801FF2803DD00213F
:103420002E48C0F818112D48D0F81C01FF2807DCE1
:103430002A48D0F81C01401C2849C1F81C0111E0A1
:1034400001212648C0F82012D0F81401401C23495D
:10345000C1F814010846D0F81401FF2802DD00204D
:10346000C1F81401601CC4B2102C04DA1A4884306C
:1034700000680028BFD12DE000BF1848006928B9B6
:1034800000228221144800F03BF81BE013488168B9
:103490008068401C114A906002F11400405C0E49A3
:1034A000086010468068FF2802DD00201146886011
:1034B0000A480069401E09490861074880300068D1
:1034C0001028DAD300BF05E001E001E001E001E0EF
:1034D00000BF00BF00BF70BD00600140B0160020FB
:1034E00010B5044600BF054800F091F80028FAD056
:1034F0002146024800F098F810BD0000006001402D
:103500001AB143680B43436002E043688B43436056
:1035100070470000FEB505460C46206820B12A49D8
:103520002068884200D203E0192128A000F0D3FAD5
:10353000606840B16068012805D06068022802D048
:103540006068032800D103E01A2120A000F0C3FA2C
:10355000A06848B1A068042801D1606820B1A068C3
:10356000042802D1606800B103E01B2117A000F01D
:10357000B2FAE06828B1E068182802D0E0680828AC
:1035800000D103E01C2111A000F0A5FA6846FFF766
:10359000EDFAE86840F08000E860029800092168D0
:1035A00000EB5100B0FBF1F6F0B22860C6F3072043
:1035B0006860E86820F08000E860D4E90101084311
:1035C000E1680843E860FEBD21AA44002E2E5C4C51
:1035D00069627261726965735C4D48534350555F0F
:1035E0004472697665725C7372635C6D6873637054
:1035F000755F756172742E630000000001464869B2
:1036000000F0010008B1012070470020FCE70146EE
:10361000486900F0400008B1012070470020FCE735
:1036200001460868C0B27047CAB20260704700BF66
:10363000FEE700000FB4054B10B503A9044A029839
:1036400000F018F810BC5DF814FB0000113B0001FD
:103650003800002002E008C8121F08C1002AFAD171
:1036600070477047002001E001C1121F002AFBD102
:10367000704700002DE9FF4F8DB00F46054600262C
:1036800006E025280BD0DDE90F1290476D1C761C53
:1036900028780028F5D111B03046BDE8F08F00241D
:1036A000A246A1460122EC4900E0044315F8013F7F
:1036B000203B02FA03F00842F7D128782A2810D0DC
:1036C0006FF02F022878A0F13001092914D80AEBF5
:1036D0008A0102EB410144F0020400EB010A6D1C77
:1036E000F0E701CF5FEA000A03D544F40054CAF1C1
:1036F000000A44F002046D1C28782E2817D115F812
:10370000010F44F004042A280ED06FF02F0228780D
:10371000A0F1300109290AD809EB890102EB410126
:1037200000EB01096D1CF2E757F8049B6D1C28782B
:103730006C280FD006DC4C2817D068280DD06A28DA
:1037400014D104E0742810D07A280FD10DE044F48D
:1037500000140AE044F4801401E044F44014697851
:10376000814202D104F580146D1C6D1C2A786E2AEA
:103770001FD00CDC632A31D004DC002A8BD0582AFD
:1037800011D1A3E0642A68D0692A0CD165E0732ABC
:103790002ED004DC6F2A73D0702A04D19BE0752AE6
:1037A0006FD0782A6ED01046DDE90F129047761C54
:1037B00050E1C4F30250022806D0032809D004289F
:1037C00001CF09D0066045E101CFF117C0E90061E2
:1037D00040E101CF06803DE106703BE117F8040BA4
:1037E0008DF8000000208DF80100EB46012003E079
:1037F00057F804BB4FF0FF3061074FF0000102D4CF
:103800000DE008F10101884649450FDA8045F8DBF3
:103810001BF808100029F4D108E008F101018846DE
:103820008142FADB1BF808100029F6D1DDE90F23ED
:10383000AAEB08008146214600F036F9304400EB3F
:10384000080604E0DDE90F121BF8010B9047B8F100
:103850000108F7D221464846F7E00A21C4F3025393
:103860004FF0000B0891022B04D001CFC117032B9E
:1038700009D00AE0FF1D27F00707F7E8020108E07A
:1038800032E01FE020E000B2C117042B01D140B2AA
:10389000C117031E71F1000307DA4FF0000CD0EBE3
:1038A0000C006CEB01012D2302E0230504D52B2332
:1038B0008DF82430012303E0E30701D02023F7E74C
:1038C000984658E00A2110E010210EE010204FF039
:1038D000000B08900CE010214FF0000B44F00404A2
:1038E0004FF00809089103E008214FF0000B089100
:1038F000C4F30253022B04D001CF0021032B06D0C6
:1039000006E0FF1D27F00707F7E8020103E080B299
:10391000042B00D1C0B24FF0000823072BD5702A2A
:1039200007D0DDF820C08CF0100C5CEA0B0C05D041
:103930000EE040238DF82430012308E050EA010313
:1039400006D030238DF824308DF8252002239846A8
:10395000DDF820C08CF0080C5CEA0B0C0BD150EAAF
:10396000010301D1630706D530238DF824304FF0D1
:103970000108A9F10109582A04D038A20B9208AA1B
:103980000A920BE03AA2F9E75B46089AFDF7F6FBCC
:103990000B9B9B5C0A9A521E0A92137050EA01021A
:1039A000F2D10A98ADEB000000F1200B600702D5C0
:1039B00024F4803401E04FF00109D94502DDA9EB80
:1039C0000B0000E0002000EB0B0141440890AAEB43
:1039D000010AE00306D4DDE90F232146504600F03A
:1039E00063F806444FF0000908E009A911F809003E
:1039F000DDE90F12904709F10109761CC145F4DB9E
:103A0000E0030CD5DDE90F232146504600F04CF8C9
:103A1000064404E0DDE90F1230209047761C089937
:103A2000481E08900029F5DC08E00A980A990078F9
:103A3000491C0A91DDE90F129047761CBBF1000189
:103A4000ABF1010BF1DC21465046DDE90F2300F01C
:103A500019F806446D1C1BE6092801003031323389
:103A600034353637383961626364656600000000BA
:103A700030313233343536373839414243444546A4
:103A8000000000002DE9F041044600251E461746BF
:103A9000880404D405E039462020B0476D1C641E1C
:103AA000F9D52846BDE8F0812DE9F041044600250E
:103AB0001E469046C80301D5302700E02027880421
:103AC00004D505E041463846B0476D1C641EF9D563
:103AD0002846BDE8F08100BFFEE770B505460C46FC
:103AE000284601F065F8064626EA0401284601F05A
:103AF00019F970BD10B5044604B910BD04E04FF4C7
:103B00007A70FDF7E1FA641E002CF8D100BFF4E7EB
:103B100070B504460D460A2C03D129460D20FFF747
:103B2000F7FF00BF0548FFF772FD0028FAD0E1B2A9
:103B30000248FFF779FD204670BD0000006001409B
:103B400002468A4202D2C84310447047501AFCE72A
:103B50000148006870470000100000200EB50120E9
:103B600000900520019002200290694619480068E3
:103B7000FDF78AFC082000900520019002200290A9
:103B800069461548FDF780FC08211348FDF7D2FD72
:103B90004FF4804000900520019002200290694679
:103BA0000D48FDF771FC4FF4005000900220019089
:103BB000029069460848FDF767FC4FF4805000907A
:103BC000052001900220029069460348FDF75CFC45
:103BD0000EBD00000800002010D0014000B587B0E5
:103BE000002011490860012005901048006B0690E4
:103BF0000F48FFF767FA05A90D48FFF7AFFA012252
:103C000011460B48FFF76AFA012211460848FFF7F0
:103C100019FA0A200190012004900290039001A853
:103C2000FEF7EAFA07B000BD1000002000F00140E6
:103C3000003001400020FFF7CDF80220FFF756F8D2
:103C40000020FEF7B5FF0020FFF70EF80121254800
:103C5000FEF710FF01212448FEF74AFF00214FF430
:103C6000E13001F02FF8FFF7B9FFFFF777FF00F021
:103C7000C7FFFEF7A3FA1DA0FFF7DCFC00F08EFDE6
:103C80002EE02048FFF7AAFA0446012C28D11D484F
:103C9000007A352804D037280CD038281ED113E0FC
:103CA0003520194908721748FEF79CF81648FFF7A7
:103CB000CBF814E03720144908721248FDF7C2FA15
:103CC0001148FFF7C1F80AE038200F4908720D4883
:103CD000FDF71AFB0C48FFF7B7F800E000BF00BF84
:103CE000CFE700000101300001012000312E312E0C
:103CF00031204275696C6420362028626574612920
:103D000000000000CC060020040A002030B5034665
:103D1000FFF71EFF044600BFFFF71AFF05462146C6
:103D2000FFF70EFF9842F7D330BD10B5142000F016
:103D30003FFF20F003042146142000F0F3FF10BDE4
:103D400010B5142000F034FF40F003042146142085
:103D500000F0E8FF10BD00002DE9F04706460F46D1
:103D600090469946DFF860A000210D2000F0DAFFB0
:103D7000042000F099FE0E20514608700C20488067
:103D8000084606714771002407E019F80420A01CBA
:103D90000D49091D0A54601CC4B2062CF5DB0A4803
:103DA000D8F80010C160504600F08EF9054645B9BC
:103DB000082000F0FDFE00F0080008B1002500E03A
:103DC000FC252846BDE8F087F41800202DE9F74FC0
:103DD00084B081460C46974801904FF0000B0024B8
:103DE00000200290039000210D2000F09BFF802115
:103DF0001220FFF772FE80211320FFF76EFE0420D1
:103E000000F052FE00BF2046E11704EB5171C910CB
:103E1000A4EBC101CEB2AEB1E11704EB5171C910F0
:103E2000491C01F0FF0A77210D20FFF756FE06F02E
:103E30000700702202EA061240EA02010D2000F09B
:103E4000D1FE05E02046E11704EB5171C1F3C70A2A
:103E50000C2078490870084680F804902046E11745
:103E600004EB5171C910202202EB011106F00F0280
:103E70001144CAB26F494A71002507E002A8425DA9
:103E80006C48001DA91C4254681CC5B25545F5DBA1
:103E90000AF1020067494880019800F015F90746C9
:103EA0002046E11704EB5171C91002AA12F80180F3
:103EB00007F1180000286CD100250DE05D49091DAF
:103EC0006A1C895C2046E21704EB527205EBE202A1
:103ED00002AB9954681CC5B2E21704EB5272D210BF
:103EE000052A07DCE21704EB5272D210C2F1050278
:103EF000AA42E3DCE11704EB5171C91002AA515C3C
:103F000041EA08012046E21704EB5272D21002ABDC
:103F1000995448480079B04204DB46480079801B38
:103F20002044C4B2E21704EB5272D21002AB9A5C86
:103F30002146E31704EB5373DB10A4EBC303C3F177
:103F4000080CFF2343FA0CF31A402046E31704EB56
:103F50005373DB100DF1080C0CF80320E21704EB8F
:103F60005272D21002AB9A5CE31704EB5373DB106E
:103F7000A4EBC30C012303FA0CF31A43E31704EB7D
:103F80005373DB100DF1080C0CF80320601CC4B255
:103F90002CE05FBB002510E026494888C11700EBE4
:103FA0005171C5EBE101491E224A121D515CC5F158
:103FB000040202AB9954681CC5B21E494888C11757
:103FC00000EB5171C910A94201DD042DE4DDE117B8
:103FD00004EB5171C91002AA515C41EA0801204664
:103FE000E21704EB5272D21002AB995407F1180099
:103FF00000283FF408AFB7B9002509E002A8415DE9
:104000000698415502A8405D80EA0B0B681CC5B2BA
:10401000042DF3DB02A8405D584504D083273846C1
:1040200007B0BDE8F08F00210D2000F07BFE384680
:10403000F6E70000F41800202DE9F04707460D468A
:104040009046DFF880A04FF0000900210D2000F01D
:1040500069FE8021122000F0C5FD8021132000F0B0
:10406000C1FD042000F020FD0C20514608700720FF
:1040700048800846077170214171002409E0285DDD
:1040800080EA09092A5D0F48001DA11C4254601CEA
:10409000C4B2042CF3DB0B4880F80A90504600F0C1
:1040A00013F806465EB907484088082803D0F5266D
:1040B0003046BDE8F0870348007988F800003046B4
:1040C000F7E70000F41800202DE9FF5F04464FF0E9
:1040D000000B0026B146002003900290019020784A
:1040E000082812D003DC38B1042821D114E00C28B0
:1040F00017D00E281CD103E00020029001901AE096
:10410000112002901020019015E030200290202014
:104110000190012003900EE0502002904020019079
:1041200009E071200290202001900120039002E01C
:10413000E920207000BF00BF20781730002871D020
:1041400020780C2802D02078042802D1608800282A
:1041500005DC20780C28F2D020780428EFD000214C
:10416000012000F0DFFD022000F022FD00F08000C1
:104170000090029A0098104340F00101022000F0E4
:10418000D1FD7F21042000F0CDFD7F21052000F02E
:10419000C9FD80210A2000F025FD20780C2805D0DB
:1041A0002078042802D020780E2869D16688402E15
:1041B00002DB4FF0400B01E006F0FF0B002706E0AA
:1041C000201DC15D092000F0ADFD781CC7B25F4520
:1041D000F6DBA6EB0B0086B23EB10421084600F0E8
:1041E000A1FD0421022000F0FDFC2178012000F057
:1041F00099FD20780C2803D180210D2000F0F2FCDD
:1042000029E000BF072000F0D3FC00F010000028D8
:10421000F8D0302E02DD4FF0300B01E006F0FF0B3E
:1042200000270AE068E16088801BC219201D815CBC
:10423000092000F077FD781CC7B25F45F3DB04214D
:10424000084600F06FFDA6EB0B0086B21EB90421F4
:104250000220FFF742FC002ED3D100BF072000F060
:10426000A7FC00F010000028F8D0042000F0A0FC0B
:10427000054605F0400018B14021042000F052FD31
:104280002078082803D140210C2000F0ABFC002648
:104290000821042000F046FD0821022000F0A2FCC5
:1042A00000BF072000F084FC00F010000028F8D0C8
:1042B0002FE000BF072000F07BFC00F0100000287A
:1042C000F8D0042000F074FC054605F00800D8B1D1
:1042D00005F02000C0B906F13000FF2800DD19E02C
:1042E000002707E0092000F063FCF219211D885423
:1042F000781CC7B2302FF5DB0821042000F012FD36
:1043000006F1300086B204E008210220FFF7E5FB49
:1043100000E0CEE700BF042000F04AFC0546294635
:10432000042000F0FFFC05F0010010B14FF0FF0A7F
:10433000C9E0062000F03CFC81464FF0830A01985A
:10434000284000287DD0029828400028FAD005F0A7
:10435000020090BB4FF0000A03980028E8D00A2022
:1043600000F026FC00F07F050C2000F021FC00F09E
:1043700007087019FF2802DD4FF0830AA3E0B8F1A7
:10438000000F05D025B1681E08EBC000608001E079
:10439000E8006080608800EBC600608005B90125F8
:1043A000002707E0092000F003FCF219211D8854C2
:1043B000781CC7B2AF42F5DB85E0FFE709F00800E3
:1043C000F0B30E2000F0F4FB00F02000C0BB4FF073
:1043D000E80A039850B30A2000F0EAFB00F07F05DA
:1043E0000C2000F0E5FB00F007087019FF281DDC29
:1043F000B8F1000F05D025B1681E08EBC000608041
:1044000001E0E8006080608800EBC600608005B9CC
:104410000125002708E0092000F0CAFBF119491C1A
:10442000221D5054781CC7B2AF42F4DB0E2000F0BE
:10443000BFFB00F01F002071207920B9202001E08F
:1044400005E03EE020712079401E20713BE009F03C
:10445000080028B10E2000F0ABFB00F0200060BB8C
:1044600009F0010010B14FF0EB0A2CE009F0060052
:1044700020B309F0010008BB0A2000F099FB00F00E
:104480007F050C2000F094FB00F007087019FF284E
:1044900002DD4FF0830A0EE0B8F1000F05D025B120
:1044A000681E08EBC000608001E0E8006080608862
:1044B00000EBC60060804FF0DD0A04E04FF0DD0A3B
:1044C00001E04FF0830A80210C2000F08BFB7F215C
:1044D000042000F027FC7F21052000F023FC7F2131
:1044E0000220FFF7FAFA7F210320FFF7F6FA0021F6
:1044F000012000F017FC01E04FF0810A504604B0A3
:10450000BDE8F09F70B50446FFF70FFC0720FFF7EA
:10451000FDFB412C76D108210846FFF7DEFA802109
:104520000220FFF7DAFA3D21112000F0FBFB862183
:10453000172000F0F7FB5821262000F0F3FB402164
:10454000152000F0EFFB0021122000F0EBFB002112
:10455000132000F0E7FB10210C2000F0E3FB3720D4
:1045600000F026FB06460021372000F0DBFB372059
:1045700000F01EFB0546112D1CD14821262000F01D
:10458000D1FB5E21372000F0CDFB8821172000F001
:10459000C9FB6B21382000F0C5FB23213A2000F035
:1045A000C1FB1221292000F0BDFB25213B2000F09A
:1045B000B9FB21E0122D1FD15E21372000F0B2FBA4
:1045C0004821262000F0AEFB8821172000F0AAFB2E
:1045D0001221292000F0A6FBED21352000F0A2FBDE
:1045E000A5213B2000F09EFBAE21372000F09AFB76
:1045F00072213B2000F096FB3146372000F092FB01
:1046000088E0FFE7422C7DD10021082000F08AFBE2
:1046100080210220FFF761FA3F21112000F082FB88
:104620008821172000F07EFBF821272000F07AFB7C
:104630003F21282000F076FB1221292000F072FB98
:104640000021362000F06EFB0021152000F06AFBEF
:1046500013211E2000F066FB8321122000F062FB74
:104660008321132000F05EFB00210D2000F05AFB97
:10467000372000F09DFA06460021372000F052FB5B
:10468000372000F095FA0546112D18D15E2137200C
:1046900000F048FB8821172000F044FB23213A203A
:1046A00000F040FB6B21382000F03CFB1221292058
:1046B00000F038FB25213B2000F034FB21E0122DD7
:1046C0001FD15E21372000F02DFB4821262000F06D
:1046D00029FB8821172000F025FB1221292000F05A
:1046E00021FBED21352000F01DFBA5213B2000F032
:1046F00019FBAE21372000F015FB72213B2000F0A2
:1047000011FB00E004E03146372000F00BFB01E034
:10471000812070BDFFF714FB0220FFF7F7FA00209D
:10472000F7E7000010B50446C0212B2000F0FAFA8C
:1047300088212A2000F0F6FA0E2C01DC012C00DA88
:1047400001240120A040C1B22D2000F0EBFA01208D
:10475000A040C0F307212C2000F0E4FA7F210420C0
:1047600000F0E0FA0121022000F0DCFA80212A208A
:10477000FFF7B3F940210C2000F034FA00BF072006
:1047800000F016FA00F010000028F8D00249087A6C
:1047900000F08AF910BD0000D418002010B500F018
:1047A0000DF80520FFF7B2FA00F078F90520FFF7C1
:1047B000ADFA4120FFF7A6FE10BD000010B54FF482
:1047C00080410548FDF73AF8002400E0641CB4F588
:1047D000FA6FFBDB10BD000010D001402DE9F84F4F
:1047E00007468A46904600266F4D00208346814644
:1047F000009002206D4908740320487408468770B1
:10480000087BFFF78FFF042000F04EF900210D20F8
:1048100000F088FA8021122000F0E4F980211320B2
:1048200000F0E0F90C202946087002204880E020C2
:10483000087107F15000C1B2284641712846FFF7C0
:1048400043FC06465EB969884FEAE17C01EB5C7C7B
:104850004FEAEC0CA1EBCC0CBCF1000F2ED106F111
:10486000180CBCF1000F29D006F1230CBCF1000F8D
:1048700009D16B884FEAE37C03EB5C7C4FEAEC0CDC
:10488000BCF1040F1ADB06F1230CBCF1000F16D1AA
:104890006A884FEAE27C02EB5C7C4FEAEC0CBCF1EC
:1048A000040F0CDB68884FEAE07C00EB5C7C4FEA8D
:1048B000EC0CA0EBCC0CBCF1000F00D0FF26002EBE
:1048C0006FD12C1D207888F8000098F80020214630
:1048D0005046FCF721FC6988CA1701EB5272D210CE
:1048E000012A07DB6888C21700EB5272D2102378C6
:1048F0009A4202D08220BDE8F88F6078C0F30010A1
:10490000801C6178C1F3401108446178C1F38011C3
:1049100008442178884244D8607800F08000C0BB09
:10492000607800F0100008B14FF00109607800F0E5
:10493000200068B14FF0010B09F10200205C000972
:104940001A49886009F10200205C00F00F00C8607D
:10495000607800F0400028B1012000900020134949
:10496000C8704870607800F00F00114931F81000ED
:104970000E494860688809F1020101EB0B020099B9
:104980001144C21700EB5272B1EBE20F03DD82203B
:10499000B1E705E005E00549087A00F085F800E098
:1049A00082263046A7E70000F4180020D418002023
:1049B000140000202DE9F04104460D46164F002159
:1049C0000D2000F0AFF98021122000F00BF98021BA
:1049D000132000F007F9042000F066F80C20394697
:1049E000087002204880302008710846447138461B
:1049F000FFF76AFB06465EB938464088802801D03A
:104A0000F52605E010220449091D2846FCF784FB21
:104A10003046BDE8F0810000F41800202DE9F04197
:104A200005460C461C4FFFF780F90520FFF762F89A
:104A3000FFF786F90520FFF75DF807210D2000F04C
:104A400071F980211220FFF748F880211320FFF729
:104A500044F808210846FFF740F8042000F024F845
:104A60000C203946087001204880084605713846F8
:104A7000FFF72AFB06463EB938464088102803D087
:104A8000F5263046BDE8F0810348007920700248E1
:104A9000407960703046F5E7F418002010B50F211A
:104AA000012000F03FF910BD10B5044600212B2075
:104AB00000F038F988212A2000F034F90120A040C4
:104AC000C1B22D2000F02EF90120A040C0F3072133
:104AD0002C2000F027F910BD2DE9F04105460E46C7
:104AE000324F00210D2000F01DF98021122000F02E
:104AF00079F880211320FEF7F0FF0520FFF7D4FF9F
:104B00000C203946087002204880A0200871084611
:104B100045713846FFF7D8FA0446601CC0B13846E4
:104B20004088042801D0F52412E02048007900F0E4
:104B30000F001E4908710846007910B10A2804D1F7
:104B400001E0F62403E0002401E0FA2400BF00BFE6
:104B50004CBB0520FFF7A8FF0C201449087010205B
:104B60004880102231461148001DFCF7D5FA38461E
:104B7000FFF7AAFA0446601C90B10C48007900F0D7
:104B80000F000A4908710846007910B10A2804D1BB
:104B900001E0F12403E0002401E0FA2400BF00BF9B
:104BA0000420FFF781FF2046BDE8F081F4180020C3
:104BB00070B504466006040E44F080054FF4805141
:104BC0000748FCF7B7FD284600F05EF800F040F813
:104BD00005464FF480510248FCF730FE284670BD70
:104BE00010D0014070B505460C462846FFF7E0FF9F
:104BF000064646EA0401284600F094F870BD00001D
:104C000000B589B0012234210F48FCF7FBFC0020DD
:104C10000090012001900720029000200390049052
:104C2000012005901020069000200790089069460A
:104C300006480068FDF71EFE012104480068FDF7E4
:104C4000BFFD09B000BD000010D001400C000020E5
:104C500070B50025C824FF210A480068FDF706FF4B
:104C600001E0601E84B2082106480068FDF7D0FD0F
:104C700008B9002CF5D103480068FDF7F3FEC5B272
:104C8000284670BD0C00002070B505460026C824DB
:104C900029460B480068FDF7E9FE01E0601E84B27A
:104CA000082107480068FDF7B3FD08B9002CF5D1CD
:104CB00004B9012602480068FDF7D4FE304670BDF5
:104CC0000C0000207FB504460D460094039500209B
:104CD00002900320019069460F48FEF71BFC4FF439
:104CE00009710E48FCF73FFA012203210C48FCF73A
:104CF00089FC972008498860012211460648FEF782
:104D0000FFFB0520012181404209920002F1E022CF
:104D1000C2F8001100BF7FBD00600140B016002046
:104D200000D0014070B504460D466006040E24F024
:104D300080064FF480510748FCF7FCFC3046FFF733
:104D4000A3FF2846FFF7A0FF4FF480510148FCF76E
:104D500075FD70BD10D0014000D0014010D0014061
:104D600020D0014030D00140000001400000000090
:104D70000000000000000000984D0001000000202D
:104D80003C00000054360001D44D00013C000020DE
:104D9000BC59000064360001000000000000000063
:104DA00010D0014000A001400000000010001800D9
:104DB0002000280030004000600080000001000159
:104DC00000010001000100010001000100010001DB
:044DD00000000000DF
:04000005010010B531
:00000001FF
