:020000040100F9
:10100000D06C0020C9100001A74A00014140000136
:10101000694A000175340001F57500010000000007
:10102000000000000000000000000000AD5C0001B6
:10103000E134000100000000754E0001ED100001D8
:10104000EF100001EF100001EF100001EF100001A0
:101050003D5400019D710001EF100001EF100001EF
:10106000EF100001EF100001BD6E0001EF10000154
:10107000EF100001EF100001EF100001EF10000170
:10108000B1500001EF100001EF100001EF1000015E
:10109000EF100001F16E0001EF100001EF100001F0
:1010A000EF100001EF100001EF100001EF10000140
:1010B000EF100001DFF80CD001F0B4FF004800474A
:1010C000ED8A0001D06C002009480A4908600068D8
:1010D000854609488047094800470000FEE7FEE7CB
:1010E000FEE7FEE7FEE7FEE7FEE7FEE7FEE7FEE7D8
:1010F0000010000108ED00E0A56E0001B510000130
:10110000014600204A682AB18A680AB1042006E034
:10111000032004E08A680AB1022000E00120704741
:101120000146002208784B7858408B78584081F867
:10113000030200BF07E091F80302CB1C9B5C584000
:1011400081F80302521C88789042F4DC002070473A
:101150002DE9F04105460F4600263C4628682060F0
:10116000241D2846FFF7CCFF012806D0022805D011
:10117000032813D0042844D122E042E0A868FF28C5
:1011800001DD002607E0A868C11700EB1161091214
:10119000A0EB0121CEB204F8016B32E06868C11700
:1011A00000EB11610912A0EB0121CEB204F8016B32
:1011B000324605F10C01204601F060FE344420E087
:1011C0006868C11700EB11610912A0EB0121CEB2D2
:1011D00004F8016B324605F10C01204601F04EFE89
:1011E0003444A868FF2801DD002607E0A868C1177D
:1011F00000EB11610912A0EB0121CEB204F8016BE2
:1012000000BF00BFE01BBDE8F0812DE9F0410546BD
:101210000F4616461C46686DB04210DA5435287CDD
:101220002070A87C40F02000A874607015F8540964
:10123000A070A2783946E01C01F020FE0EE015F8FF
:10124000640F2070A87820F02000A870643D6070C2
:10125000A670A2783946E01C01F010FE607880F09C
:10126000400085F866000020BDE8F08170B50546B5
:101270000C46284600F050FF2046FFF751FF0122A0
:101280002146284600F081FF0122611C284600F01B
:101290007CFF0122A11C284600F077FFA278E11C08
:1012A000284600F072FF012204F20321284600F0D4
:1012B0006CFF284607F0E6F8607885F867000020A4
:1012C00070BDF8B506460C460020009000250027AA
:1012D0004FF40171204601F0EAFD0122214630461B
:1012E00000F074FF05463DB1FE48854202D11FB9AA
:1012F000074601E02846F8BD0122611C304600F097
:1013000065FF05463DB1F748854202D11FB9074642
:1013100001E02846EFE7607886F86D000122A11C05
:10132000304600F053FF054665B1EE48854207D1CF
:101330004FF48072E11C304600F048FF2846DAE79F
:101340002846D8E7A278E11C304600F03FFF05466A
:101350003DB1E448854202D11FB9074601E0284665
:10136000C9E701226946304600F030FF05463DB12D
:10137000DC48854202D11FB9074601E02846BAE79A
:101380002046FFF7CDFE94F803029DF80010484078
:1013900010B1D4483038AEE7D248874200D1AAE72E
:1013A000207810B1CF482E38A5E7607800F0800093
:1013B000C8B9A078FE2802DDCA4831389BE796F804
:1013C000660000F0200010B1C6482F3893E796F869
:1013D0006C0000F04000617801F04001884240D08C
:1013E000C0482F3887E7607800F0400058B9A078EF
:1013F00010B1BC4831387EE7607800F0200078B347
:10140000B8482F3877E796F8670000F0C000C0288A
:1014100006D0607800F0200010B1B2482F386AE79B
:10142000607800F01F00042802DDAE48333862E720
:101430006078C12808D1E078102802DBE078FE2827
:1014400002DDA848323856E76078C22802D1A548A4
:10145000343850E7A078012803D0A24831384AE751
:10146000FFE7002047E72DE9FC5F81460C469046E8
:1014700000260027454600200190834600908246C2
:10148000B9F1000F03D19748001DBDE8FC9FB8F1EA
:10149000000F02D19348001DF7E714B99148001DD1
:1014A000F3E73521204601F002FD002005F8010B8D
:1014B000012201A9484600F089FE8246BAF1000FD8
:1014C00001D05046E1E79DF804003B2803D10020FD
:1014D000C9F824000AE09DF804003F2803D1012048
:1014E000C9F8240002E07F481038CEE79DF80400D8
:1014F00005F8010B9DF804002070012201A948465F
:1015000000F064FE8246BAF1000F01D05046BCE7FD
:101510009DF8040005F8010B9DF8040060709DF82B
:10152000040000F0F00700260020C9F8280066E05B
:10153000012201A9484600F049FE8246BAF1000F97
:1015400001D05046A1E79DF8040005F8010B07F013
:10155000100058B1A0780121B1400843A0709DF857
:101560000410A01D815527F0100748E007F0200067
:1015700060B1E0780121B1400843E0709DF80410AB
:1015800004F10E00815527F0200738E007F04000F5
:1015900060B120790121B140084320719DF8041009
:1015A00004F11600815527F0400728E007F080007D
:1015B00018B360790121B140084360719DF804209F
:1015C0003046761C04F11E010A549DF8040000F018
:1015D0000F000099084300909DF8040000F0F00708
:1015E0009DF8040000F00F00022807DA9DF80400BF
:1015F00000F00F00C9F8280000E002E000BF002F53
:1016000096D100BF607800F00F022946484600F0EE
:10161000DDFD8246BAF1000F01D0504635E7607813
:1016200000F00F02294604F1260001F027FC607843
:1016300000F00F000544009818B3012201A94846A4
:1016400000F0C4FD8246BAF1000F01D050461CE7FD
:1016500002264FF0000B05E03046761C18F800001B
:1016600080EA0B0BA5EB0800B042F5DC9DF8040006
:10167000584502D01B481C3807E79DF8040005F8C0
:10168000010BA5EB0800401E88F800000020FCE6D6
:101690002DE9F04705460C460027B846B94605B186
:1016A0001CB91048001DBDE8F087607900F001000A
:1016B00038B1A07F00F00F00012802DD094814387E
:1016C000F1E7A07800F0010090B1A07800F00200EE
:1016D00070B1E07900F0100050B9A079112805DB55
:1016E000A07901E009F5FFFF132801DDF748DAE7EB
:1016F000A07800F00200E0B3E07900F0100010B133
:10170000F248001FCFE7E07900F00F00012802DD6A
:10171000EE48001FC7E7A07800F0010048B394F836
:1017200006A04FEAEA710AEB1171081101F034F8D2
:10173000F8B1A679F11706EB11710911A6EB0110AA
:1017400001F02FF8A8B1A679F11706EB1171081175
:1017500001F022F8E862A679F11706EB1171091180
:10176000A6EB011001F01DF82863E07900F00F00EE
:10177000A862286902280BD1E07800F0010010B9B6
:10178000D248401E8FE7A07B10B1D048401E8AE7A8
:10179000207900F00100A0B1A07DFF2805DAA07D2E
:1017A0000C30E86394F816900DE0A86A08B90C2094
:1017B000E863A86A012801D10B20E8634FF0FF39E4
:1017C00001E00C20E863E07800F0020010B1BF48AF
:1017D000401F68E742F27071286B4843A864207983
:1017E00000F0020070B1E07D0A2802D0B748801FE7
:1017F00059E7E07DC0EB0010800100F5F870296B1F
:101800004843A864607900F0020080B1E07F00F0F6
:101810000F0001280BD0A07F00F00F0020B9E07F5F
:1018200000F00F000E2802D0A848C01F3BE7202080
:101830006865A07800F0040050B1207A102802DB1F
:10184000207AFF2802D1A14808382CE7207A686561
:10185000286BC0EB001101EB4010E864286BC0EB73
:101860000010C0010B306864A86A012835D1E07807
:1018700000F0040010B96FF4316014E7207CC11748
:1018800000EB11714FEA2118207CC11700EB117198
:101890000911A0EB0117B8F1040F01DC052F02DDDF
:1018A0006FF43160FFE60120B84009F10101884280
:1018B00002DC6FF43160F6E6012000FA08F0C0EBBC
:1018C00000104FF4707101EB8010296B48430B300E
:1018D00068640120B8400F30E864207900F004000B
:1018E00020B1207E10B179480A38DCE6FE2045F8A8
:1018F000500F0020A875E8752877687755F8280CF0
:10190000503D10B91020286401E0162028640420FE
:1019100028610120A8600020C5E62DE9F74F88B0B6
:101920000C461546002700200790804601200690AF
:101930000020059004900390029001908246089840
:1019400020B11CB115B16068FF2804DD5F48153077
:101950000BB0BDE8F08F4FF0010B00200590012087
:101960000690AE1D04F10C0900BFBBF1060F7CD23E
:10197000DFE80BF07B034090C4F42046FFF7C0FB88
:10198000074660680790A068FF2801DCA06800E0B7
:1019900000208046089800F0BFFB042221460898EA
:1019A00000F0F3FB022F09DD6068C11700EB116145
:1019B0000912A0EB0121C9B2049110E0022F0CD151
:1019C000A068FF2809DCA068C11700EB11610912AB
:1019D000A0EB0121C9B2049101E000200490012292
:1019E00004A9089800F0D1FB089806F04BFD4FF0D1
:1019F000020B41E1012204A9089800F0E7FB8246AE
:101A0000BAF1000F04D0089806F01AFC50469FE780
:101A100060789DF81010884213D19DF8100000F0F6
:101A2000F00090280AD09DF8100000F0F000602827
:101A300004D04FF0030B002006902AE04FF0050B76
:101A400027E0607880F0FF009DF81010884215D1E3
:101A50009DF8100000F0F00090280CD09DF81000C8
:101A600000F0F000602806D000E004E14FF0040B25
:101A7000002006900DE04FF0050B0AE09DF81000E5
:101A8000602804D14FF0020B0020069001E04FF0D7
:101A9000050BF1E0032F1FDAA81D301A4044B0F502
:101AA000807F05DD089806F0CBFB084815304FE72E
:101AB00042463146089800F089FB8246BAF1000F91
:101AC00006D0089806F0BCFB504641E7F8F4FFFF4B
:101AD00046444FF000080EE0089800F01DFB494610
:101AE000DDE9072000F051FB089806F0CBFC0798D1
:101AF0008144002007904FF0020BBDE0032F21DA54
:101B0000A81D301AB0F5807F05DCA81D301A4044AE
:101B1000B0F5807F04DD089806F092FBF44817E7E3
:101B200001223146089800F051FB8246BAF1000FBD
:101B300004D0089806F084FB504609E7761CA8F10B
:101B400001081CE004F10C00A9EB0000B0F5807F57
:101B500005DD089806F074FBE548F9E612E0089800
:101B600000F0DAFA01224946089800F00EFB0898C6
:101B700006F088FC09F101090798401E07904FF014
:101B8000020B79E09DF8100000F0F00090280BD0D7
:101B90009DF8100000F0F000602805D0089806F0CD
:101BA0004FFBD3482738D3E6012203A9089800F059
:101BB0000DFB8246BAF1000F04D0089806F040FBF6
:101BC0005046C5E69DF8100028719DF80C0068711C
:101BD0004FF0000B08988069F0B39DF81000612861
:101BE00002D06C2817D10CE0C2A000682060002051
:101BF00060609DF80C00A060002006904FF0010B83
:101C000037E0002060609DF80C00A0600020069086
:101C10004FF0010B2DE0042F2AD1069840BB9DF810
:101C20001000622810D09DF8100063280CD09DF899
:101C3000100000F0F00090281AD19DF810009028B4
:101C400002D19DF80C0098B1AAA000682060002085
:101C500060604FF4807000E00CE0A060012005900F
:101C60009DF8100002909DF80C0001904FF0010BC0
:101C700000BF00BF00E000BF00BFBBF1000F7FF45A
:101C800074AE0598012803D10298287101986871F3
:101C9000A81D301A286000205AE62DE9F04FADF259
:101CA000246D04468846154600270020049040F223
:101CB000CB300390002002903CB1B8F1000F04D06B
:101CC0001DB1D8F80400FF2804DD89480DF2246D09
:101CD000BDE8F08F00BF206D0290606C0390AE1DD8
:101CE0000DF21C414046FFF733FA0DF21C4100EBA8
:101CF000010B8946002084F865004FF0050A00BFFB
:101D0000BAF10A0F6FD2DFE80AF06FA3FD146E0577
:101D1000FB5BFAF9ABEB090286AB49462046FFF7BD
:101D200074FA9DF81A020490049881444FF0030A53
:101D300077E114F8650F401C207014F86509042839
:101D400007DB204606F07CFA694F2F3F4FF0040A6C
:101D500035E09DF8190200F0800010B900200190D4
:101D600009E09DF8190200F0400010B9012001902F
:101D700001E00220019086A92046FFF777FA05A925
:101D80002046FFF79EFA07460398606458483038AB
:101D9000874202D0401E874205D1204606F050FA05
:101DA0004FF0040A0BE047B10198012802D14FF02F
:101DB000030A04E04FF0060A01E04FF0070A30E1A1
:101DC0009DF8150000F0800010B94FF0000A09E0FE
:101DD0009DF8150000F0400010B94FF0010A01E035
:101DE0004FF0020A1DE119E1002084F865009DF81A
:101DF000150000F0200060B19DF816200DF11701CC
:101E0000304601F03BF89DF8160006444FF0080AF2
:101E100017E09DF816200DF11701304601F02EF85D
:101E20009DF816000644A81D301A801E2860701EFA
:101E3000064600786871701E0646007828714FF0DB
:101E4000040A9DF8150080F0400084F86C00E8E07A
:101E50009DF8150000F0100094F8661001F04001A4
:101E6000B0EBA10F26D19DF8150000F00F0068B966
:101E700094F8660000F0200028B14FF0050A002019
:101E800084F8650033E04FF0060A30E0019801283D
:101E90000DD19DF8190200F00F0010B94FF0080A9B
:101EA00001E04FF0030A002084F865001FE04FF0C6
:101EB000060A1CE094F86C0000F0200028B1002015
:101EC00084F865004FF0080A11E0216D0298814204
:101ED00002D0206D0290FEE694F8660080F040008B
:101EE00084F866000498A9EB00094FF0050A98E011
:101EF0000DF5FFFF00C000000000000036E04BE0E1
:101F00005DE0FFE79DF8150000F0200010B14FF0F4
:101F1000060A2AE0002084F865009DF8150000F00C
:101F20000F00052820D2DFE800F003040D0E190091
:101F30001AE09DF8160020B19DF8170060654FF07B
:101F4000090A11E010E09DF8160030B19DF8170065
:101F50000399484360644FF0090A05E0204606F003
:101F60006FF94FF0040A00BF00BF5AE09DF814005B
:101F70008DF818029DF8150040F020008DF815002E
:101F80008DF8190201208DF81A029DF817008DF8BE
:101F90001B024FF0030A44E094F864008DF8180225
:101FA00094F86C0000F04000802141EAA0008DF818
:101FB000190200208DF81A024FF0030A31E094F85C
:101FC00064008DF8180200208DF81A0207F62B30F5
:101FD00080B1042802D0342812D100BF94F86C00DC
:101FE00000F04000812141EAA0008DF819024FF075
:101FF000030A11E0204606F023F94FF0040A0BE033
:1020000094F86C0000F04000822141EAA0008DF8B5
:1020100019024FF0030A00BF00BF02E04FF0040AAC
:1020200000BF00BFBAF1040F7FF46AAE38464DE638
:1020300030B5ADF5017D04460025012084F865002A
:1020400000BF14F8640F8DF80000C1208DF8010066
:1020500001208DF80200FE208DF803006078401CFE
:102060006070643C69462046FFF700F969462046E7
:10207000FFF727F905461E48854202D0401E8542DB
:102080000AD1206A012800D12EE0204606F0D8F8B7
:1020900028460DF5017D30BDBDB99DF8020001282F
:1020A00013D19DF80100E1280FD19DF80300FE280F
:1020B0000BD19DF8000094F86410884205D1FE20F1
:1020C0002065002084F865000EE094F8650004287F
:1020D00009D1206A012800D106E0204606F0B0F8B8
:1020E0000348401CD5E7ACE700BF0020D1E7000063
:1020F000DDF4FFFF02469166002070470246644807
:102100000260644801600020704701466048006832
:102110000860604800687047014600208A6EC2F877
:102120000002401E8A6EC2F8040200208A6EC2F8C5
:1021300008028A6EC2F80C0270470146886ED0F819
:102140000C028A6ED2F80822904201D10120704719
:102150000020FCE70146886ED0F808028A6ED2F8AB
:102160000C22904209DA886ED0F80C02C0F500709B
:102170008A6ED2F8082210447047886ED0F80802A0
:102180008A6ED2F80C22801AF6E770B503460C4628
:10219000002100BF16E0605C9D6ED5F80862A8556E
:1021A000986ED0F80802401C9D6EC5F80802986E23
:1021B000D0F80802B0F5007F03D100209D6EC5F86D
:1021C0000802491C9142E6DB002070BD2DE9F04178
:1021D00004460F4615460026B04649E02046FFF764
:1021E000ACFF70BBA06ED0F80402A16ED1F80C1247
:1021F00088420DD1A06A012809D1A06ED0F8000252
:102200002549884200D035E0DFF88C8000E031E0DD
:10221000A06ED0F80C12425C3046761C3A54A06E88
:10222000D0F80C02401CA16EC1F80C02A06ED0F8D0
:102230000C02B0F5007F1BD10020A16EC1F80C028A
:1022400016E0FFE7A06ED0F80402A16ED1F80C12E0
:1022500088420DD1A06A012809D1A06ED0F80002F1
:102260000D49884200D005E0DFF82C8000E001E055
:10227000AE42B3DB00BFAE4202D14046BDE8F081C2
:10228000204600F0B9FAA06ED0F80002F6E7000090
:10229000D8000020DC00002009F5FFFFF648704759
:1022A000F6A07047F8A0704710B50446F9A1204683
:1022B00000F01AFE10BD10B5A0B0002480216846C1
:1022C00000F0F5FD6846FFF7EFFF05F0B7FF0321CB
:1022D000F148FFF713FF00BF56E0C4EBC401EE4A1C
:1022E00002EB0110702100F0E2FDC4EBC400EA49EA
:1022F00001EB001004600120C4EBC401E64A02EBCC
:10230000011188614FF4BA70C4EBC40102EB0111F2
:10231000C8620120C4EBC40102EB011108634FF451
:10232000BA70C4EBC40102EB011148630120C4EB95
:10233000C40102EB011188630C20C4EBC40102EB61
:102340000111C86342F26070C4EBC40102EB0111D9
:10235000C86440F2CB30C4EBC40102EB0111486405
:1023600042F27070C4EBC40102EB01118864FE20DC
:10237000C4EBC40102EB011108652020C4EBC401C9
:1023800002EB01114865641C032CA6DB002020B081
:1023900010BD2DE9F0418EB007460D46904600264F
:1023A000384606F08EFB18B9BC480EB0BDE8F08187
:1023B000384607F0F3FD0746C7EBC700B64901EB07
:1023C00000142760A06810B1204605F039FF0021F5
:1023D000204605F075FE05F0030058B1012805D030
:1023E00002280BD140F6B83060610BE04FF4E16099
:1023F000606107E04FF49660606103E041F288306D
:10240000606100BF00BF05F0040010B10120E06171
:1024100001E00020E0614FF4BA70E062606305F013
:102420001800082805D0102807D104202063A063D5
:1024300007E002202063A06303E001202063A06383
:1024400000BF00BF05F0200010B90020206201E0AD
:1024500001202062FE202065002084F8670084F8B7
:10246000660084F86D0084F86C0010202064002061
:10247000E060204605F026FF061E01D0304694E7B6
:10248000204605F021FE424669462046FEF7EBFF56
:10249000061E4DD1206A38B9206828B96946204601
:1024A000FFF7F6F8064604E06946204600F0F1F929
:1024B000064686B9E06970B16946204600F0C7FB60
:1024C000064646B1204605F0BBFE0121204605F038
:1024D000F7FD304669E7A6B3204605F053FF4246B4
:1024E00069462046FEF7BFFF061E18D1206A38B99C
:1024F000206828B969462046FFF7CAF8064604E076
:102500006946204600F0C5F90646D6B1204605F0DA
:1025100097FE0121204605F0D3FD304645E72046D1
:1025200005F08EFE0121204605F0CAFD30463CE74D
:10253000204605F085FE0121204605F0C1FD30460C
:1025400033E7FFE7A06A01280DD12046FFF770FDB1
:10255000061E08D0204605F073FE0121204605F036
:10256000AFFD304621E70121204605F0A9FD0020FE
:102570001BE72DE9F043ADF2144D0746884614469B
:102580001E464FF00009384606F09BFA20B9434832
:102590000DF2144DBDE8F083384607F0FFFC074606
:1025A000C7EBC7003C4901EB00152F606068B0F530
:1025B000007F02DD3948C01EEAE72869042802D0FE
:1025C0003648801FE4E708F0010010B10120A8613F
:1025D00001E00020A8610021284605F071FD206877
:1025E00082906068C11700EB11610912A0EB012114
:1025F0008391D4F80802B0F5807F02DD4FF480703B
:1026000001E0D4F80802849004F1080185A8839AB7
:1026100000F034FC4FF40271684600F048FCA86AF0
:1026200030B96A4682A92846FFF777F9814605E066
:102630006A4682A92846FFF730FB81464FF40271B3
:10264000304600F034FCB9F1000F0FD19DF80400C2
:1026500086F804029DF8050086F8050200983060AF
:102660000DF10601301D009A00F008FC01212846FA
:1026700005F026FD48468BE7010502024E6F7620E5
:10268000313420323031370031363A33373A32354F
:102690000000000031313200802B002010F5FFFFD8
:1026A00070B50446204606F00CFA00B970BD20460D
:1026B00007F074FC0446C4EBC400354901EB001577
:1026C0002C60284605F0BCFD00BFEFE770B505465D
:1026D000284606F0F6F908B92E4870BD284607F0DE
:1026E0005DFC0546C5EBC500294901EB00142560DA
:1026F0000021204605F0E4FC206838B141F2883022
:1027000060614FF4BA70E06201202063204605F05A
:102710007FFD012805D10121204605F0D1FC0020D4
:10272000DBE70121204605F0CBFC1A48801ED4E7E8
:1027300070B50446204606F0C4F908B9154870BDC6
:10274000204607F02BFCC4B2C4EBC400104901EBD7
:1027500000152C60A868F2E770B505460E462846BD
:1027600006F0AFF908B90B4870BD284607F016FC13
:10277000C5B2C5EBC500064901EB00142560012078
:10278000E0600EB1A06001E00020A0600020EBE757
:10279000802B002010F5FFFF0146154850F821005E
:1027A00070470146134850F8210070470246002147
:1027B000012109E00E4850F82100904203D101B9EF
:1027C000012108467047491C1029F3DB0020F9E776
:1027D00002460021012107E0064850F821009042FE
:1027E00001D108467047491C1029F5DB0020F9E7A4
:1027F000B8A50001F8A5000101460869022802D029
:102800000869032817D1886ED0F80002FA4A90426E
:1028100004D1F9480C388A6EC2F80002886ED0F8EC
:102820000002F54A521E904231D1F3480E388A6EAA
:10283000C2F800022BE0886A90B9886ED0F80002D6
:10284000ED4A521E904205D0886ED0F80002521C0C
:1028500090421CD1E84820388A6EC2F8000216E087
:10286000886ED0F80002E44A904204D1E2482B3846
:102870008A6EC2F80002886ED0F80002DE4A521E4C
:10288000904204D1DC482C388A6EC2F80002002045
:1028900070472DE9F84F04460D464FF00008C14639
:1028A000C24600260020009004B11DB9D248401D48
:1028B000BDE8F88F687900F0010028B3A87F00F028
:1028C0000F00012802DDCC481338F1E7A87F00F0A3
:1028D0000F00A062012610E0701E05F11E01085CC9
:1028E00000F00F0105F11E00805D00F00F00814235
:1028F00002DDC1481C38DBE7761C68790121B14054
:1029000008400028E8D101E00020A062A87800F08B
:102910000200002844D0E87900F0100020B1606B7C
:10292000E062A06B20633BE0E87900F00F00012833
:1029300002DDB1481438BBE7A87800F0010048B3C5
:1029400095F806B04FEAEB710BEB11710811FFF728
:1029500023FF00B3AF79F91707EB11710911A7EB4A
:102960000110FFF71EFFB0B1AF79F91707EB117136
:102970000811FFF711FFE062AF79F91707EB11714A
:102980000911A7EB0110FFF70CFF2063E87900F0B5
:102990000F00A06204E04FF4BA70E06201202063EF
:1029A000287900F00100A0B1A87DFF2805DAA87DF4
:1029B0000C30E06395F816A00DE0A06A08B90C2071
:1029C000E063A06A012801D10B20E0634FF0FF3AD9
:1029D00001E00C20E06342F27071206B4843A06478
:1029E000287900F0020068B1E87D10B982481638F5
:1029F0005EE7E87DC0EB0010800100F5F870216B08
:102A00004843A0644FF00D084FF004092020606592
:102A10000126A9E005F11E00805D00F00F00009086
:102A2000761C0098012802D00F286FD13BE0A878CF
:102A30000121B140084060B1A81D805D18B1A81DFA
:102A4000805DFF2802D16C48183831E7A81D805DF1
:102A50006065E8780121B140084018B305F10E0126
:102A6000885DC11700EB11714FEA211905F10E01C4
:102A7000885DC11700EB11710911A0EB0118B9F1C4
:102A8000090F02DCB8F10F0F02DD6FF431600FE7C0
:102A9000012000FA08F00AF10101884202DC6FF41B
:102AA000316005E75FE0A8780121B140084070B3CC
:102AB000A81D805D00F0C00030B1402807D08028FC
:102AC00008D0C0280CD108E00020A06508E0012053
:102AD000A06505E00220A06502E00320A06500BF1C
:102AE00000BFA81D805D00F03F00082819D2DFE874
:102AF00000F01804070A0F1812150020E06511E015
:102B00000120E0650EE00320E0650BE02AE00AE02A
:102B10000220E06506E00420E06503E00520E065B2
:102B200000E000BF00BFE8780121B1400840C0B11B
:102B300005F10E00805D00F0800020B105F10E006F
:102B4000805D20660DE005F10E00805D00F07F00E5
:102B500028B105F10E00805D0020206601E0002014
:102B6000206600E000BF00BF68790121B140084045
:102B700000287FF44FAF012000FA09F0C0EB0010ED
:102B80000B2101EB801000F57070216B48436064ED
:102B9000012000FA08F00F30216B4143E16420204E
:102BA0002065002084F8660084F8670084F86C00D3
:102BB00084F86D00A06A38B9E06B102801D9E06B89
:102BC00000E01020206401E0162020640420206131
:102BD0000120A06000206BE670B59CB00546242162
:102BE00005A800F064F9054B0FCB01AC0FC400241D
:102BF000002600BF20E0000008F5FFFF38A6000116
:102C000001A850F824006861284605F05BFB2846BF
:102C100005F05AFA05AA0EA92846FEF724FC064636
:102C20009448864203D1284605F00AFB03E0284673
:102C300005F006FB02E0641C042CE1DB00BF042C61
:102C400003D18C4810301CB070BD0020FBE72DE98B
:102C5000F04F85B004460D464FF00008C1460026EF
:102C600085A0006804900020039082460027216B15
:102C7000A06CB0FBF1F00290216B606CB0FBF1F046
:102C80000190216BE06CB0FBF1F00090A87800F0AF
:102C9000020018B1002005B0BDE8F08FA87800F060
:102CA0000100A0B395F806B04FEAEB710BEB117180
:102CB0000811FFF771FD804695F806B04FEAEB71F9
:102CC0000BEB11710911ABEB0110FFF76AFD8146A7
:102CD000B8F1000F02D0B9F1000F01D10020DAE7FE
:102CE00098FBF9F0012804DA4FF001084FF00309CE
:102CF00010E0A879C11700EB11714FEA2118A879EB
:102D0000C11700EB11710911A0EB011902E0FFE7F7
:102D10000020C0E7606BE062A06B206394F828009D
:102D200040F010008DF8110009EB0810C0B28DF8CA
:102D300012009DF810009DF8111048409DF81210E7
:102D400048408DF813002046FFF7E6F9042204A955
:102D50002046FFF71AFA204605F094FB012203A94A
:102D60002046FFF733FA06460EB1304693E79DF84A
:102D70000C00FF2802D03F4828388CE79DF80C70E3
:102D8000012203A92046FFF721FA06460EB130467C
:102D900081E79DF80CA09DF80C0047400AF0100058
:102DA00098B3012203A92046FFF710FA06460EB198
:102DB000304670E79DF80C0047409DF812009DF8E2
:102DC0000C10884222D19DF80CB04FEAEB710BEB4E
:102DD00011710811FFF7E0FCE0629DF80CB04FEABA
:102DE000EB710BEB11710911ABEB0110FFF7D9FC83
:102DF0002063206B02994843A064206B01994843EB
:102E00006064206B00994843E06402E01948293867
:102E100041E70AF0200058B1012203A92046FFF73C
:102E2000D5F906460EB1304635E79DF80C0047400F
:102E30000AF0400058B1012203A92046FFF7C6F965
:102E400006460EB1304626E79DF80C0047400122A9
:102E500003A92046FFF7BAF906460EB130461AE735
:102E60009DF80C00474017B102482A3813E70020AC
:102E700011E70000FCF4FFFFFF10130040EA01031C
:102E80009B0703D009E008C9121F08C0042AFAD220
:102E900003E011F8013B00F8013B521EF9D27047E4
:102EA000D2B201E000F8012B491EFBD2704700228C
:102EB000F6E710B513460A4604461946FFF7F0FF39
:102EC000204610BD30B505462A460B4612F8010BC8
:102ED00013F8014B08B1A042F8D01CB1002802D071
:102EE0006D1CF1E7284630BD034611F8012B00F8B0
:102EF000012B002AF9D11846704770B5064604F038
:102F00002DFD046805460A220021304600F052F8E3
:102F10002C6070BD2DE9F05F0546002092469B466F
:102F200088460646814640241BE0284641464746DF
:102F3000224600F02FF853465A46C01A914110D34A
:102F400011461846224600F016F82D1A67EB0108C4
:102F50004F4622460120002100F00DF817EB000932
:102F60004E41201EA4F10104DFDC484631462A46CA
:102F70004346BDE8F09F202A04DB203A00FA02F124
:102F8000002070479140C2F1200320FA03F3194357
:102F900090407047202A04DB203A21FA02F00021F9
:102FA000704721FA02F3D040C2F120029140084359
:102FB000194670472DE9F04791460F468046044672
:102FC000002614F8015B2DB100F03EF80068405D6A
:102FD000C007F6D12B2D02D02D2D18D0641E4A46E5
:102FE0003946204600F034F827B13968A14201D1B2
:102FF000C7F8008071054FF002040BD5404200284D
:1030000003DD04F0ABFC0460A007BDE8F08746F4E4
:103010008066E4E70028F8DA04F0A0FC04606FF0B2
:103020000040F2E7064C074D06E0E06840F001037F
:1030300094E8070098471034AC42F6D3FEF73EF808
:1030400014A7000134A7000100487047CCA6000176
:103050002DE9F05F82460078002715468B460AF17D
:103060000104B946302801D09DB113E014F8010BDA
:103070000127782803D0582801D045B10AE00DB1C6
:10308000102D07D10027102514F8010B02E00825A8
:1030900000E00A250026B0460EE005FB080005FB0F
:1030A00006F1012701EB10461FFA80F8B6F5803FC4
:1030B00000D3B94614F8010B294600F018F800288F
:1030C000EBDABBF1000F05D00FB1641E00E05446EF
:1030D000CBF80040B9F1000F06D004F03FFC02210C
:1030E0000160C81EBDE8F09F48EA0640FAE73A28AA
:1030F00000D2303820F02002412A01D3A2F137005B
:10310000884201D34FF0FF3070472DE9F04104466B
:103110000D4616464FF0000801F01AF9A02001F004
:10312000E3F801F059F910B10020BDE8F081201258
:1031300001F0DAF801F050F908B10020F5E7274670
:10314000E11704EB11610912A4EB0121C8B201F0EF
:10315000CBF801F041F908B10020E6E701F0F8F8FA
:10316000A12001F0C1F801F037F908B10020DCE737
:103170000DE0012E04D1002001F086F8287003E054
:10318000012001F081F82870701E86B26D1C002E9F
:10319000EFD101F0FFF80120C7E72DE9F041044627
:1031A0000D46904601F0D4F8A02001F09DF801F002
:1031B00013F910B10020BDE8F081201201F094F85D
:1031C00001F00AF908B10020F5E72746E11704EB02
:1031D00011610912A4EB0121C8B201F085F801F0D8
:1031E000FBF808B10020E6E700260AE0287801F0A5
:1031F0007BF801F0F1F808B10020DCE76D1C701CD1
:10320000C6B24645F2DB01F0C5F80120D3E7000065
:103210000448006800F0010008B101207047002058
:10322000FCE700008000034070B504460D4604F042
:10323000010040B904F0020028B904F0040010B9FC
:1032400004F0080000B103E057210AA004F0CBFD10
:103250003DB113480068204311498839C1F88800FE
:1032600006E00F480068A0430D498839C1F888007E
:1032700070BD00002E2E5C4C6962726172696573CC
:103280005C4D48534350555F4472697665725C7378
:1032900072635C6D68736370755F62706B2E630040
:1032A0008800034070B504460D4604F0010040B9A3
:1032B00004F0020028B904F0040010B904F008007A
:1032C00000B103E049210AA004F08DFD3DB113488F
:1032D0000068204311498C39C1F88C0006E00F4882
:1032E0000068A0430D498C39C1F88C0070BD000006
:1032F0002E2E5C4C69627261726965735C4D485335
:103300004350555F4472697665725C7372635C6D9D
:1033100068736370755F62706B2E63008C0003408E
:1033200070B504460D4604F0020058B904F00400DC
:1033300040B904F0080028B904F0100010B904F0F6
:10334000200000B103E073210AA004F04CFD24F03A
:1033500001043DB112480068204311499439C1F875
:10336000940006E00E480068A0430D499439C1F866
:10337000940070BD2E2E5C4C696272617269657337
:103380005C4D48534350555F4472697665725C7377
:1033900072635C6D68736370755F62706B2E63003F
:1033A0009400034010B500210F20FFF73DFF10BD32
:1033B00070B504460B460021FFF72AFF08B900202C
:1033C00070BDD018202801D90020F9E7002106E0BF
:1033D00054F821005518044E46F82500491C99421E
:1033E000F6D30120ECE700000000034010B50121F6
:1033F0000F20FFF757FF10BD10B500210F20FFF77A
:1034000051FF10BD0EB50220009005200190022052
:1034100002906946164800F0E5FA10200090052059
:1034200001900220029069461148203000F0DAFA3B
:1034300020200090052001900220029069460C484F
:10344000203000F0CFFA10200090042001900220DC
:10345000029069460648103800F0C4FA0448103853
:10346000C06820F0100002491039C8600EBD00008D
:1034700010D0014000BFFEE7F0B504460E4600251F
:10348000A71905E014F8011BA8B204F042F805469C
:10349000BC42F7D3A8B2002104F03BF80546A8B21D
:1034A000002104F036F80546A8B2F0BDFF200B4914
:1034B000097A082906D0202908D0252904D02829EE
:1034C00008D105E0002007E0012005E0022003E02C
:1034D000032001E0FF2000BF00BF7047E00D002087
:1034E00010B502A004F02AFA10BD00004E4D495F4D
:1034F00048616E646C65720D0A0000003EB522A240
:1035000007CA8DE807000024224800F00FFE224879
:1035100004F09EF804464FF47A7004F0B5FC002CD9
:103520001BDD1EA000F002FE26A000F0FFFD3048CB
:1035300000F0FCFD2146684604F05EF82DA000F086
:10354000F5FD684600F0F2FD2CA000F0EFFD13A0A1
:1035500000F0ECFD00F0AEFD14E0601C18B929A0ED
:1035600000F0E4FD0EE0A01C18B935A000F0DEFD6F
:1035700008E0E01C18B938A000F0D8FD02E03BA03C
:1035800000F0D4FD3EBD000020202020202020207F
:1035900020200000D0A60001742600202B2D2D2D08
:1035A0002D2D2D2D2D2D2D2D2D2D2D2D2D2D2D2D4B
:1035B0002D2D2D2D2D2D2D2D2D2D2D2D2D2D2D2D3B
:1035C0002B0D0A0050726F72616D6D696E6720631A
:1035D0006F6D706C65746564207375636365737378
:1035E00066756C6C79210D0A4E616D653A2000009C
:1035F000742A00200D0A53697A653A00427974658D
:10360000730D0A0054686520696D616765207369F0
:103610007A652069732068696768657220746861DB
:103620006E2074686520616C6C6F776564207370C0
:10363000616365206D656D6F7279210D0A00000070
:10364000566572696669636174696F6E2066616947
:103650006C6564210D0A000041626F72746564201C
:1036600062792075736572210D0A00004661696CEC
:10367000656420746F20726563656976652074687F
:10368000652066696C65210D0A00000070B504466E
:103690000426B4F1807F03D3B4F1847F00D203E029
:1036A000B52113A004F09FFBE10B012000FA01F506
:1036B0001B480068284008B1032070BD184808382E
:1036C000046002201649143908601648006814493D
:1036D0000C39086014480068086000F03BF8104896
:1036E0001038006800F0020000B102263046E4E71E
:1036F0002E2E5C4C69627261726965735C4D485331
:103700004350555F4472697665725C7372635C6D99
:1037100068736370755F666C6173682E6300000088
:1037200014140040080000200C0000200448054943
:103730000860054805490860C043054908607047AE
:103740005AFF325408000020A5FFCBED0C000020EA
:103750000814004010B5104C72B671B6B4F1807FF9
:1037600002D3B4F1847F05D3B4F1007F06D30B48B4
:10377000844203D20021C869804709E0012008493A
:10378000086000BF0648006800F001000028F9D179
:1037900061B662B610BD000055370001004000025E
:1037A000041400402DE9F04704460E464FF004098A
:1037B000B4F1807F02D3B4F1847F05D3B4F1007FEC
:1037C00003D32848844200D203E0FE2126A004F05F
:1037D0000AFB04F0030000B903E0FF2122A004F07B
:1037E00002FBB4F1807F08D3B4F1847F05D2DFF807
:1037F000A8804FF08075032706E0DFF89C8008F171
:1038000008084FF000750027601B000BF8400121ED
:1038100001FA00F5D8F80000284010B10320BDE8F7
:10382000F08700201C49143908601B48001F0660FF
:10383000001F04601948006817490C3908601848CF
:1038400000680860FFF786FF13481038006800F032
:10385000020010B92068B04201D04FF0020948467A
:10386000DDE70000004000022E2E5C4C69627261B0
:10387000726965735C4D48534350555F4472697675
:1038800065725C7372635C6D68736370755F666CA0
:103890006173682E630000001414004008000020CB
:1038A0000C00002030B5B0F1807F07D3B0F1847FE9
:1038B00004D20E4A4FF0807103230BE0B0F1007F79
:1038C00007D30B4CA04204D2084A0832E10200237D
:1038D00000E030BD441A240BDC40012505FA04F158
:1038E00014688C43146000BFF3E700001414004018
:1038F0000040000203480449086004480449086085
:1039000070470000A500CDAB080000205A0034121B
:103910000C000020032800DB7047002100EB401260
:103920000C4B03EB0212C2F8001200EB401203EB47
:103930000212C2F8081200EB401203EB0212C2F8A6
:103940000C12491E00EB401203EB0212C2F80412E3
:1039500000BFE1E7E80000207FB50446134B0FCB22
:103960008DE80F00124884420BD011481030844279
:1039700007D00F482030844203D00D4830308442B5
:1039800000D103E033210BA004F02DFA002507E05D
:103990005DF82500A04202D1284604B070BD6D1C20
:1039A000042DF5DB4FF0FF30F7E7000068A30001BE
:1039B00000D001402E2E5C4C6962726172696573A1
:1039C0005C4D48534350555F4472697665725C7331
:1039D00072635C6D68736370755F6770696F2E6387
:1039E0000000000070B504460D464FF0FF364E480B
:1039F00084420BD04C481030844207D04A482030D3
:103A0000844203D048483030844200D103E055213D
:103A100046A004F0E8F928686FF30F0010B9286891
:103A200000B103E0562141A004F0DDF968680128E7
:103A30000BD06868022808D06868032805D0686839
:103A4000052802D06868042800D103E0572137A078
:103A500004F0C9F9288881B22046AA6800F080F8ED
:103A6000A868022800D070BD2046FFF775FF064603
:103A70006868062855D2DFE800F054030C152A3F89
:103A8000A06829680843A060E06829688843E0606E
:103A900047E0A06829680843A060E06829680843F7
:103AA000E0603EE0A06829688843A060E06829687B
:103AB0008843E0602068296888432060274830F800
:103AC000160029880843254921F8160029E0A06836
:103AD00029680843A060E06829680843E06020681E
:103AE0002968884320601D4830F81600298808435B
:103AF0001A4921F8160014E0A06829688843A060DC
:103B0000E06829688843E0602068296808432060ED
:103B1000124830F8160029688843104921F8160029
:103B200000BF00BF00BF9EE700D001402E2E5C4CBE
:103B300069627261726965735C4D48534350555FA9
:103B40004472697665725C7372635C6D68736370EE
:103B5000755F6770696F2E63000000000000002031
:103B60002DE9F0410746884616463B4887420BD070
:103B700039481030874207D037482030874203D079
:103B800035483030874200D104E04FF4C67133A08D
:103B900004F029F94FEA18404FEA004018B9B8F18B
:103BA000000F00D004E040F28D112CA004F01BF9AE
:103BB000012E05D0022E03D0032E01D0042E00D1F9
:103BC00004E04FF4C77125A004F00DF93846FFF763
:103BD000C3FE044600253BE00120A84000EA08009F
:103BE000A8B32A4850F824006A0003219140884372
:103BF000264941F82400012E06D0022E05D0032EBE
:103C00000ED0042E22D116E020E0204850F82400E7
:103C10006A000121914008431C4941F8240015E045
:103C20001A4850F824006A000221914008431749BD
:103C300041F824000AE0154850F824006A000321E6
:103C400091400843114941F8240000BF00BF6D1C9A
:103C5000102DC1D3BDE8F08100D001402E2E5C4C68
:103C600069627261726965735C4D48534350555F78
:103C70004472697665725C7372635C6D68736370BD
:103C8000755F6770696F2E630000000080D101408E
:103C900070B505460C460026244885420BD02348C3
:103CA0001030854207D021482030854203D01F487C
:103CB0003030854200D103E0A6211DA004F093F826
:103CC000012C25D0022C23D0042C21D0082C1FD06D
:103CD000102C1DD0202C1BD0402C19D0802C17D09C
:103CE000B4F5807F14D0B4F5007F11D0B4F5806FA7
:103CF0000ED0B4F5006F0BD0B4F5805F08D0B4F5EA
:103D0000005F05D0B4F5804F02D0B4F5004F00D16C
:103D100003E0A72106A004F066F8286804EA104032
:103D200008B1012600E00026304670BD00D00140F9
:103D30002E2E5C4C69627261726965735C4D4853EA
:103D40004350555F4472697665725C7372635C6D53
:103D500068736370755F6770696F2E6300000000A1
:103D60002DE9F04105460C464FF0FF3600274FF095
:103D700000082F4885420BD02D481030854207D0CF
:103D80002B482030854203D029483030854200D16D
:103D900004E040F20B1127A004F025F8012C25D0F7
:103DA000022C23D0042C21D0082C1FD0102C1DD085
:103DB000202C1BD0402C19D0802C17D0B4F5807F3C
:103DC00014D0B4F5007F11D0B4F5806F0ED0B4F5E7
:103DD000006F0BD0B4F5805F08D0B4F5005F05D05C
:103DE000B4F5804F02D0B4F5004F00D104E04FF499
:103DF000867110A003F0F7FF2846FFF7ADFD0646D9
:103E0000184830F8160000EA0407164830F8160083
:103E100024EA0008134830F81600204018B1A868BA
:103E2000B843A86002E04FEA08406860BDE8F0814E
:103E300000D001402E2E5C4C69627261726965731C
:103E40005C4D48534350555F4472697665725C73AC
:103E500072635C6D68736370755F6770696F2E6302
:103E600000000000000000202DE9F04105460C464E
:103E70004FF0FF3600274FF000082E4885420BD048
:103E80002C481030854207D02A482030854203D084
:103E900028483030854200D103E0ED2126A003F010
:103EA000A2FF012C25D0022C23D0042C21D0082CD9
:103EB0001FD0102C1DD0202C1BD0402C19D0802CB2
:103EC00017D0B4F5807F14D0B4F5007F11D0B4F5CD
:103ED000806F0ED0B4F5006F0BD0B4F5805F08D0C2
:103EE000B4F5005F05D0B4F5804F02D0B4F5004FB3
:103EF00000D103E0EE2110A003F075FF2846FFF784
:103F00002BFD0646184830F8160000EA040716484C
:103F100030F8160024EA0008134830F81600204054
:103F200018B1A8683843A86001E0C5F80480BDE86E
:103F3000F081000000D001402E2E5C4C696272615D
:103F4000726965735C4D48534350555F447269769E
:103F500065725C7372635C6D68736370755F6770C4
:103F6000696F2E6300000000000000201F48C07A27
:103F7000022804D100201D49C872012070471B4847
:103F8000C07E022804D100211848C1760220F5E73E
:103F9000164890F82B00022805D10021134880F81C
:103FA0002B100320EAE7114890F83B00022805D1C6
:103FB00000210E4880F83B100420DFE70B4890F802
:103FC0004B00022805D10021084880F84B1005203D
:103FD000D4E7064890F85B00082805D10021034883
:103FE00080F85B100620C9E70020C7E7200000200A
:103FF00010B500241EE0114800EB0410007800B951
:1040000016E00E4901EB0411C86880470B4901EB2B
:104010000411497A884205D10120084901EB0411B5
:10402000087204E00020054901EB0411087200BF8A
:10403000601CC4B2062CDEDB10BD00002000002096
:1040400002E002A003F07AFCFBE700006861726402
:104050006661756C740D0A002DE9F0410446002577
:1040600000260427C4F30B0018B1012000EB14361E
:1040700000E0260BFFF73EFC00200B4908600025FE
:1040800006E00A4901EB0530FFF700FB07466D1C0F
:10409000B54201D2042FF4D00548FFF7F7FAFFF735
:1040A00045FBBDE8F08100001414004000640201EB
:1040B00000F0070110B50A4800680A490840B0F14D
:1040C000005F0CD10648001D0468074804600449DD
:1040D000086880F3088800BF03480068804710BD67
:1040E000006402010000FE2FCC00002010B5044641
:1040F000054803F0F5F928B1034803F003FA2070EE
:10410000012010BD0020FCE70060014010B504460E
:1041100000BF054803F0EDF90028FAD02146024817
:1041200003F0F4F910BD00000060014010B5044632
:1041300003E02078FFF7EAFF641C20780028F8D11C
:1041400010BD000070B504460F4EFFF7D3FB30469C
:10415000FFF7A8FB002510E00B4A042303FB052012
:104160002168FFF71FFB56F825002168884202D01E
:104170004FF0FF3070BD241D6D1C002DECD0FFF7FB
:10418000D5FA0020F6E7000000F0070170B50446FC
:104190000D46FFF7AFFB002614E00D4821680068CC
:1041A000FFF700FB0A48006800682168884202D0D7
:1041B0004FF0FF3070BD06480068001D04490860DC
:1041C000241D361DAE42E8D3FFF7B0FA0020F1E718
:1041D000D000002010B54FF480410D48FFF7C0FD1E
:1041E0000B482038806A20F4004009492039886251
:1041F0004FF400410648FFF7B3FD4FF480410448F7
:10420000FFF732FE4FF480410148FFF7A9FD10BDD2
:1042100020D001400EB54FF44040009003200190A3
:104220000220029069460748FFF7DCFB4FF480410B
:104230000448FFF719FE4FF400410248FFF714FE4F
:104240000EBD000020D0014010B54FF480410D4854
:10425000FFF786FD0B482038806A20F400400949AA
:10426000203988624FF400410648FFF7FDFD4FF406
:1042700080410448FFF7F8FD4FF480410148FFF703
:104280006FFD10BD20D0014070B5054600241548D3
:10429000806A40F4004013498862002618E04FF419
:1042A000804110482030FFF75BFD4FF480410D48FE
:1042B0002030FFF7D9FD6006040E4FF40041094895
:1042C0002030FFF7E5FC08B1601CC4B2701CC6B218
:1042D000082EE4DB15B9FFF7B7FF01E0FFF77AFF1F
:1042E000204670BD00D0014070B504461748806A72
:1042F00020F40040154988624FF480411348203073
:10430000FFF72EFD00251EE0E00930B14FF400411B
:104310000E482030FFF7A8FD05E04FF400410B48A0
:104320002030FFF71DFD6006040E4FF48041074862
:104330002030FFF799FD4FF4804104482030FFF70B
:104340000FFD681CC5B2082DDEDB70BD00D001403A
:1043500010B50F48806A20F400400D4988624FF480
:1043600000410B482030FFF77FFD4FF480410848A3
:104370002030FFF779FD4FF4004105482030FFF76A
:10438000EFFC4FF4804102482030FFF7E9FC10BDFC
:1043900000D0014010B50F48806A20F400400D495C
:1043A00088624FF480410B482030FFF7D9FC4FF46E
:1043B000004108482030FFF7D3FC4FF48041054806
:1043C0002030FFF751FD4FF4004102482030FFF745
:1043D0004BFD10BD00D0014010B500241548806A87
:1043E00040F40040134988624FF4004111482030E6
:1043F000FFF73AFD4FF480410E482030FFF734FDBF
:1044000007E0601CC4B2FA2C03DDFFF7C3FF0120F4
:1044100010BD4FF4004107482030FFF739FC002859
:10442000EFD14FF4804103482030FFF799FC002082
:10443000EEE7000000D001402DE9FF4F89B00446AF
:104440004FF0000B002007908246F74D2E462F4676
:10445000B0460690059004900120039000210D20A5
:1044600005F06AFF8021122005F0A8FD80211320AD
:1044700005F0A4FDA5F10409012001900021169882
:104480000160012003900020069005900490606870
:10449000102801D2202060606068C01E07906078FC
:1044A00010B10798401E0790E07810B10798401EA1
:1044B0000790DDF82CB00020029000BF01980A2878
:1044C0007CD2DFE800F07B05637C94A0F8F7F6F57A
:1044D0002F460798834527DD207C00F0010040F03F
:1044E00012002870E07818B1287840F00800287091
:1044F000607818B1287840F0040028707F1CE078BC
:1045000020B1A07800F00F0007F8010B607820B10F
:10451000207800F00F0007F8010BDDF81CA0DDF893
:104520001CA0ABEB0A0B23E0207C00F0010040F064
:1045300002002870E07818B1287840F00800287050
:10454000607818B1287840F0040028707F1CE0786B
:1045500020B1A07800F00F0007F8010B607820B1BF
:10456000207800F00F0007F8010BDA464FF0000B3F
:10457000524638460A99FEF781FC57440A9850443F
:104580000A902878207405200190A8E12F46207C0D
:1045900000F0010040F0A2002870E07818B12878FF
:1045A00040F0080028707F1CE07820B1A07800F06F
:1045B0000F0007F8010B0520019090E18EE12F46D6
:1045C000207C00F0010040F0B2002870E07818B1C3
:1045D000287840F0080028707F1CE07820B1A0788F
:1045E00000F00F0007F8010B0520019077E12F463E
:1045F000F22007F8010B039800F03F0007F8010BC9
:10460000052001906BE10498401C049003983B281E
:1046100007D9012003900A2001906FF063000890F1
:104620005DE1824903980877207B04F039FF207A06
:1046300005F0BEF8781BA9F80200B9F80220294657
:1046400009F10400FEF71AFC0C2089F80000484626
:1046500004F008FD0890B9F80210CA1701EB527275
:10466000D2100846CB1701EB5373DB10A1EBC30349
:104670000BB1012300E000231A44626109F1040137
:1046800030466269FEF7FAFBB9F80200C11700EB89
:104690005171C910A0EBC101A1610898B0B1049893
:1046A000022802DC0698022806DD0920019055E068
:1046B0000AE1E6E0B0E057E0607C00F0100010B1E5
:1046C000022001904AE00320019047E0002004907E
:1046D000089830BBB046307800F0E200022812D1D2
:1046E000307800F0020030B16069FE2803D83078DD
:1046F00000F00C0010B1092001902FE0002006907E
:10470000062001902AE0307800F0E000A0280ED1C9
:10471000307800F00C0010B96069022802D9092035
:1047200001901BE0002006900720019016E03078F1
:1047300000F0C000C0280FD1307800F00C0010B994
:104740006069022802D90920019007E00698401C00
:1047500006900820019001E00920019001200390BB
:10476000324903980877BAE0BBF1000F02D0092064
:10477000019050E008F10108207C00F00100317840
:1047800001F00101884244D130786074307800F043
:10479000100070B1307800F0080008B108F101088D
:1047A000307800F0040008B108F1010802200190FF
:1047B0000DE0307800F0080008B108F10108307809
:1047C00000F0040008B108F101080A200190A8EBEC
:1047D00006016069884217D3A8EB06016069421A96
:1047E00041460C98FEF74AFBA8EB06016069411AA6
:1047F0000C9808440C90A8EB06016069411A1698C1
:104800000068014416980160207C80F0010020744B
:1048100001E00920019062E0307800F0100038B12A
:10482000092001902CE00000682100204421002094
:10483000207C00F00100317801F0010188420FD1A5
:10484000207C00F0100040B1207C80F0010020743A
:10485000002005900120019012E0092001900FE056
:104860000598401C05900598022802DD092001905A
:1048700006E0D3440A98A0EB0A000A9001200190B8
:104880002DE0307800F0F700F22802D009200190E6
:1048900019E006F10108307800F0080008B108F1CD
:1048A000010898F8000000F03F0010B909200190BD
:1048B00009E00298401C029098F8000000F03F00C8
:1048C0000390042001900AE00898B0F1FF3F02D065
:1048D0006FF0630008900A20019000E000BF00BF65
:1048E00001980A287FF4EAAD08980DB0BDE8F08F72
:1048F00010B54FF0FF30124948606FF48010C86067
:104900000020104908606FF480300D498861084626
:10491000806940F480108861012244F270710A4875
:10492000FFF71EF90648C06B20F0005040F08050A1
:104930000349C8630549012000F086FD10BD000051
:1049400000F0014080D1014000D00140404B4C00BC
:104950000146CA1701EB92729210A1EB820292B942
:10496000642091FBF0F200FB121050B94FF4C870B4
:1049700091FBF0F200FB121008B9012070470020F3
:10498000FCE70120FAE70020F8E7000010B502215B
:104990000148FFF77DF910BD20D0014010B504217A
:1049A0000148FFF775F910BD20D0014010B508216E
:1049B0000148FFF76DF910BD20D0014010B510215E
:1049C0000148FFF765F910BD20D0014010B5202146
:1049D0000148FFF75DF910BD20D0014070B50024FB
:1049E000FFF7DCFF0546FFF7F1FF2844C4B20CB91E
:1049F000002070BD0120FCE770B504460D46032C75
:104A000013D0012D08D1164A32F81410154A52F865
:104A10002400FFF7A5F922E0114A32F81410114AD8
:104A200052F82400FFF720FA19E065B90D4850F854
:104A30002400C0680A4931F814108843094951F824
:104A40002410C8600BE0074850F82400C0680449EF
:104A500031F814100843034951F82410C86070BDA0
:104A600098A300018000002000BFFEE730B5034698
:104A70000C46002100BF12E0585C78B1605C68B160
:104A800018782578A84201DD012030BD18782578F6
:104A9000A84202DA4FF0FF30F7E7491C491C914267
:104AA000EADB0020F1E770471FB5062000F0B2F8FE
:104AB000042000900020019001200290039068469D
:104AC00000F00CF8052000900020019002200290D8
:104AD00001200390684600F001F81FBD2DE9F04762
:104AE0000446E06810B1E068012800D103E011211C
:104AF0003BA003F078F96068102800D203E012218F
:104B000037A003F070F9A068102800D203E0132149
:104B100033A003F068F9E068002853D000BF3A489A
:104B20000068C0F3022005462846D4E90123014667
:104B3000C1F10708B8F1040F02D94FF0040801E0F1
:104B4000C1F10708C44601F10408B8F1070F02D209
:104B50004FF0000801E0A1F1030847464FF00108BB
:104B600008FA0CF8A8F1010808EA020808FA07F8A0
:104B70004FF0010909FA07F9A9F1010909EA030946
:104B800048EA090600BF30462168002908DA020712
:104B9000170E1D4A0C3201F00F031B1FD75403E000
:104BA0000207130E194A535400BF206800F01F0279
:104BB000012191404209920002F1E022C2F8001165
:104BC00000BF0AE0206800F01F0201219140104A56
:104BD000430942F8231000BF00BFBDE8F087000082
:104BE0002E2E5C4C69627261726965735C4D48532C
:104BF0004350555F4472697665725C7372635C6D95
:104C00006973632E630000000CED00E000E400E037
:104C100080E100E0014601F00702064B18684FF6FC
:104C2000FF031840044B034343EA0220014B186082
:104C3000704700000CED00E00000FA0570B5FEB012
:104C40000446002600207C490870C8217B48FEF7F6
:104C50002EF92078002859D16078002856D1E078C4
:104C600027281AD1A1784FF4E04202EB81102822C4
:104C7000E11C01F007FAA1784FF4E04202EB811049
:104C8000282201A900F0B8FA2822E11C01A8FFF7A8
:104C9000EDFE00283AD1012638E0E078282819D125
:104CA000A1784FF4E04202EB81102922E11C01F0CF
:104CB000E9F9A1784FF4E04202EB8110292201A921
:104CC00000F09AFA2922E11C01A8FFF7CFFEE8B90B
:104CD00001261BE0E078402818DCE278A1784FF448
:104CE000E04303EB8110E11C01F0CCF9E278A178FC
:104CF0004FF4E04303EB811001A900F07DFAE27864
:104D0000E11C01A8FFF7B2FE00B90126207858B9CE
:104D10006078022808D1A1784FF4E04202EB8110BC
:104D2000292201A900F068FA207800283DD1607896
:104D300003283AD12379E17803EB01218A1CA17879
:104D40004FF4004303EB4120E11C01F09BF9237970
:104D5000E17803EB01218A1CA1784FF4004303EBB7
:104D6000412001A900F048FA002507E001AAE81C4B
:104D7000115C33A002F0E2FD681C85B29DF80810BA
:104D80009DF8070001EB0020801CA842EEDC217991
:104D9000E07801EB0020821CE11C01A8FFF766FE11
:104DA00018B9012628A002F0C9FD207808BB607858
:104DB00004281ED12379E17803EB01218A1CA17814
:104DC000430303EB412001A900F016FA20A002F0F2
:104DD000B5FD002506E001A8415D19A002F0AEFD79
:104DE000681C85B22179E07801EB0020801CA84284
:104DF000F1DC6EB114201949087019480078401C84
:104E0000174908700846017816A002F097FD0EE0D9
:104E1000207860B96078FF2809D101201049087016
:104E2000134908700E4801780EA002F087FD0C4867
:104E300000787EB070BD0000C400002098250020DE
:104E4000252E32582000000043412D5355430A00BF
:104E50000D0A52644341504B2D3E0000C300002018
:104E6000C10000206E756D3D252E325800000000F7
:104E7000C200002070472DE9F04105460E46174656
:104E8000002400BF3A463146284603F0CBFB00B968
:104E900005E0641C142CF5D10120BDE8F08100BFB1
:104EA0000020FAE72DE9F04105460E46174600249A
:104EB00000BF3A463146284605F064F800B905E0DF
:104EC000641C142CF5D10120BDE8F08100BF002046
:104ED000FAE7000000B500BF00F0F6F80028FBD0AC
:104EE00000200149086000BDB000034070B50026F5
:104EF0000024002500F082F83B4909680844064474
:104F00003A48B6FBF0F43A480088A0423DD0384910
:104F10000C8040F2B27510E02846FFF719FD40B151
:104F2000B4F5B77F02D3A4F5B77404E0681C85B26A
:104F300006E0A4F26D14681C85B2B4F5B67FEBD818
:104F400000BF2C484560002517E02A49898888B2AF
:104F5000FFF7FEFC30B1012D04D11D2C01D31D3C07
:104F600009E00CE02448405DA04203D82248405D9F
:104F7000241A00E003E0681C85B21C2CE5D200BFB7
:104F8000681C1C490872601C48721848B6FBF0F196
:104F900000FB11644FF46160B4FBF0F01549087038
:104FA0004FF46160B4FBF0F100FB11403C21B0FB19
:104FB000F1F0104948704FF46160B4FBF0F100FB70
:104FC00011403C21B0FBF1F201FB1200094988704D
:104FD0000B465A7A197A9B8898B200F02DF8054949
:104FE0008872002070BD0000A400034080510100C1
:104FF000D4000020742B0020ACA5000100B50021D6
:1050000000BF00F061F80028FBD00A48006840F0BB
:105010000200084AA03AC2F8A00006480C30016815
:105020001046D0F8A00020F00200024A10600846A6
:1050300000BD0000A0000340F0B503460C46154635
:10504000642093FBF0F0C6B2642093FBF0F700FB02
:105050001730C1B2132E02DD01F16400C1B208465F
:10506000CF1701EB977701EBA707BAB2072092FBA6
:10507000F0F700FB172082B25719601EDFF82CC032
:105080001CF80000384482B2CF1701EB9777BF10AD
:10509000A1EB87071FB9032C01DA501E82B207204B
:1050A00092FBF0F700FB1720C0B2F0BDA0A50001F5
:1050B00010B5FFF71BFFFFF70DFFFFF79FFF441C25
:1050C000204600F081F810BD0448006800F0080098
:1050D00008B1012070470020FCE70000A000034059
:1050E00000B500BFFFF7F0FF0028FBD004480068C0
:1050F00040F010000249A039C1F8A00000BD000036
:10510000A00003402DE9F05F06460F469046994601
:10511000DDE90AAB002440F2B270864203DB40F6C0
:105120003300864202DD0120BDE8F09F40F2B275F7
:105130000AE02846FFF70CFC10B11F48044401E0C8
:105140001E480444681C85B2B542F2DB781EC7B223
:10515000002510E01A48405D40F2A321484304EBCB
:10516000C0143046FFF7F4FB18B1012D01D11548EA
:105170000444681C85B2BD42ECDBA8F1010040F29A
:10518000A321484304EBC014C9EB4910C0EB09202C
:1051900004EB0014CAEB0A1004EB80045C442046C4
:1051A00000F01EF8FFF79CFF012000F00DF8FFF75C
:1051B0009DFE0020B8E700000085E2018033E10198
:1051C000ACA500018051010000B5014600BFFFF70A
:1051D0007BFF0028FBD00148016000BDA800034010
:1051E00000B5014600BFFFF76FFF0028FBD0014864
:1051F000016000BDA400034070B504460D4616468C
:10520000142002F041FE32462946204600F001F803
:1052100070BD2DE9F04704468946154604F07F002D
:10522000C8B104F07F002844802814D904F07F001E
:10523000C0F18008A0B242464946FDF766FF0A2049
:1052400002F022FE4444C144A5EB0805C5F3C7168D
:1052500005F07F0803E0C5F3C71605F07F080027B7
:105260000CE009EBC71104EBC71290B28022FDF7E6
:105270004CFF0A2002F008FE781CC7B2B742F0DBF0
:10528000B8F1000F07D009EBC61104EBC61290B2BB
:105290004246FDF73AFFBDE8F087000010B5012255
:1052A0004FF484710C48FFF7E6FD062240F2091125
:1052B0000948401CFFF7DFFD062240F20F110648A7
:1052C0000830FFF7D8FD012240F2151102480F30D7
:1052D000FFF7D1FD10BD00006026002010B5FEF7DD
:1052E00087FE002492E0544800EB0410807A30B12D
:1052F00001281AD0042837D0082815D14EE04E488E
:1053000000EB0410007A012809D14B4901EB04118C
:1053100088720020484901EB0411C87204E00020A3
:10532000454901EB0411C8726DE0434800EB0410DD
:10533000007A01280ED104203F4901EB0411887244
:1053400000203D4901EB0411C8723B4901EB0411F7
:10535000486008E00020384901EB041188723649A2
:1053600001EB0411C8724EE0334800EB0410007AE0
:1053700048B90020304901EB041188722E4901EB35
:105380000411C87209E008202B4901EB041188724E
:105390000420294901EB0411C87234E0264800EBCF
:1053A0000410007A01280AD00020234901EB0411DF
:1053B00088720220204901EB0411C87222E01E48C5
:1053C00000EB0410007A012817D11B4800EB0410F1
:1053D0004068401C184901EB0411486064280CD354
:1053E000052C0AD10820144901EB0411C8720020D1
:1053F000114901EB0411486004E000200E4901EB63
:105400000411C87200BF00BF601CC4B2062CFFF6B6
:105410006AAF094890F85800012804D0064890F86F
:105420005B00082807D100210348C176817680F807
:105430004B1080F84A1010BD2000002010B500204D
:1054400000F09AF810BD00002DE9F04305460C4627
:105450003DB1072D05DC2748844202D3264884420B
:1054600003D94FF0FF30BDE8F0832448066B00BF3E
:105470004FF4FA7006FB00F8A8EB5400B0FBF4F709
:10548000781CB8FBF0F9002330E001209840284058
:1054900050B31B4800EB43104460194800EB431025
:1054A000C0F80890164800EB4310C660144901EBA1
:1054B00043110F820020124901EB4311C8824FF4BF
:1054C0007A700F4901EB4311088300200C4901EB6E
:1054D0004311C861094840680A49C95C0843074943
:1054E0004860184603F048F8581CC3B2032BCCDBC5
:1054F0000020B8E740420F00404B4C0000F0014054
:105500001807002084A30001F0B503460E46144698
:1055100006B114B96FF00400F0BDFF277000B3F8B6
:1055200010C00CF1010C00FB0CF000EB640090FBD0
:10553000F4F2052116E0B2FBF1F001FB1020B842B5
:105540000ED2B2FBF1F04FF6FF7C604508D20D465B
:10555000B2FBF1F001FB102080B2071E00D103E086
:10556000481C81B2FF29E6DD00BF5D82B2FBF5F089
:10557000401E98820020CFE72DE9F04705464FF006
:105580000009DFF8E083F84800EB4517F74850F8CA
:1055900025403868012804D002287ED0032874D121
:1055A000F4E0E06E00F02A00D8B1E06E00F02000D8
:1055B00020B1DFF8B083A8F10F086BE0E06E00F0D7
:1055C000020020B1DFF89C8308F1030862E0E06E7E
:1055D00000F0080000285DD0DFF8888308F101089A
:1055E00058E0E06E00F4C060002853D0206886B216
:1055F0000020788340F20310864201D03B2E45D133
:1056000040F20310864206D101207883606840F0A2
:10561000030060603F2605EB4511D54B03EB0111FC
:10562000D1F80802411C05EB4513DFF844C30CEB2D
:105630000313C3F8081205EB4511634603EB011190
:105640000E5405EB4510194601EB0010D0F8080286
:10565000B0F5007F07D1002005EB45111A4602EB9B
:105660000111C1F80802206920F0200020612069A2
:1056700040F4A8702061206A10B94FF4C060E06661
:1056800002203860BDE8F08707E074E1DFF8D482DB
:10569000A8F11208002038606EE1E06E00F480701E
:1056A00020B1DFF8C082A8F111086EE0E06E00F0D2
:1056B000400020B1DFF8AC82A8F1100865E0E06E90
:1056C00000F0020020B1DFF89C8208F103085CE0E2
:1056D000E06E00F0100020B1DFF88882A8F1020827
:1056E00053E0E06E00F4C060F0B347E0206886B29B
:1056F00006F48070C0B1DFF86C82A8F1020805EBF7
:1057000045109B4901EB0010D0F8080205EB45114C
:10571000974A02EB0111C1F80402404605EB45111E
:1057200002EB0111C1F8000205EB4511904B03EBB0
:105730000111D1F80802411C05EB4513DFF830C216
:105740000CEB0313C3F8081205EB4511634603EB9A
:1057500001110E5405EB4510194601EB0010D0F86D
:105760000802B0F5007F00E00FE007D1002005EB54
:1057700045111A4602EB0111C1F80802206A0028FF
:10578000B4D14FF4C060E0667CE7F5E0A06800F0BB
:105790000400042877D1E06E00F01A00A8B1E06E92
:1057A00000F01000102806D10120E061DFF8B4817C
:1057B000A8F1050876E0E06E00F00200022871D141
:1057C000DFF8A08108F103086CE0E06E00F40060EF
:1057D000B0F5006F66D105EB4510654901EB00108F
:1057E000D0F8080205EB4511614A02EB0111D1F82E
:1057F0000C1288420FD1E06968B9A06820F004005B
:10580000A0604FF47F60E06640F28270206128461D
:10581000FEF780F842E03DE005EB4510544901EB0E
:105820000010D0F8080205EB4511514A02EB0111B6
:10583000D1F80C12884227D005EB451102EB01117B
:10584000D1F80C02411C05EB4512494B03EB021247
:10585000C2F80C1205EB45111A4602EB0111095C66
:10586000216005EB4510114601EB0010D0F80C0249
:10587000B0F5007F0ED1002005EB451102EB0111C0
:10588000C1F80C0206E011E0A06900F0F000401C35
:10589000A06102E0E0690828BED300BF4FF40060B9
:1058A000E066EFE62846FEF735F863E0D4F86C8052
:1058B000E06E00F4807020B1DFF8A880A8F1040841
:1058C00058E0E06E00F0800020B1DFF89880A8F189
:1058D00003084FE0E06E00F0100020B1DFF8848094
:1058E000A8F1020846E0E06E00F4C060C8B331E001
:1058F000206886B206F4807020B11A49891E2846B5
:1059000000F04AF805EB4511194B03EB0111D1F8F2
:105910000802411C05EB4513DFF854C00CEB0313E0
:10592000C3F8081205EB4511634603EB01110E5451
:1059300005EB4510194601EB0010D0F80802B0F550
:10594000007F07D1002005EB45111A4602EB01113B
:10595000C1F80802206A0028CAD14FF4C060E0668E
:1059600090E607E00BF5FFFF1807002078A3000181
:10597000E800002000E000BF00BF002020614FF4DD
:105980007F60E0664146284600F006F8A06820F0F7
:105990000400A06000BF75E610B500EB4012164B86
:1059A00003EB0212D2F800227AB100EB401203EBB3
:1059B0000212D2F8042200EB40130F4C04EB031345
:1059C000D3F80C329A4200DD10BD00EB40120A4BB6
:1059D00003EB0212C2F8001200EB401203EB0212BA
:1059E000D2F8082200EB4013034C04EB0313C3F876
:1059F000042200BFE8E70000E800002070B505467B
:105A00000C460CB1012C00D103E0402104A002F0AF
:105A1000EAF914B10120A86001E00020A86070BD7F
:105A20002E2E5C4C69627261726965735C4D4853DD
:105A30004350555F4472697665725C7372635C6D46
:105A400068736370755F7370692E630070B5054687
:105A50000C460026082C07D0102C05D0042C03D0AF
:105A6000022C01D0012C00D103E0C52105A002F0D9
:105A7000BAF9A86A204008B1012600E000263046A5
:105A800070BD00002E2E5C4C696272617269657394
:105A90005C4D48534350555F4472697665725C7340
:105AA00072635C6D68736370755F7370692E6300F9
:105AB00070B505460C46206858B12068B0F5807F67
:105AC00007D02068B0F5007F03D02068B0F5407F94
:105AD00000D103E00F2164A002F085F9A0680F282F
:105AE00002D0A068072800D103E010215EA002F0D8
:105AF0007AF96069012801D0606900B903E01121D9
:105B000059A002F070F9E06810B1E068802800D177
:105B100003E0122154A002F066F9206910B1206957
:105B2000402800D103E013214FA002F05CF9A069E6
:105B3000022815D0A069042812D0A06908280FD027
:105B4000A06910280CD0A069202809D0A06940289D
:105B500006D0A069802803D0A069B0F5807F00D16D
:105B600003E0142140A002F03EF9E06960B3E0696F
:105B7000012829D0E069022826D0E069032823D033
:105B8000E069042820D0E06905281DD0E0690628D6
:105B90001AD0E069072817D0E069082814D0E06916
:105BA000092811D0E0690A280ED0E0690B280BD033
:105BB000E0690C2808D0E0690D2805D0E0690E28BE
:105BC00002D0E0690F2800D103E0152126A002F0E1
:105BD0000AF9206A60B3206A012829D0206A0228C5
:105BE00026D0206A032823D0206A042820D0206AE7
:105BF00005281DD0206A06281AD0206A072817D049
:105C0000206A082814D0206A092811D0206A0A289E
:105C10000ED0206A0B280BD0206A0C2808D0206AEE
:105C20000D2805D0206A0E2802D0206A0F2800D83F
:105C300003E016210CA002F0D6F80020A860E8626C
:105C40002088A1890843218A0843218908432880A4
:105C5000A069686160692861E069E861206AA861FB
:105C6000284600F017F870BD2E2E5C4C69627261F8
:105C7000726965735C4D48534350555F4472697651
:105C800065725C7372635C6D68736370755F73706B
:105C9000692E630010B50446204600F089F910BD56
:105CA0000146086E80B27047016670477047000079
:105CB00070B504460D460F48204008B104B103E01A
:105CC00078210DA002F08FF80DB1012D00D103E075
:105CD000792109A002F087F82DB1134840682043CC
:105CE0001149486004E010484068A0430E494860EC
:105CF00070BD0000034730F42E2E5C4C6962726167
:105D0000726965735C4D48534350555F44726976C0
:105D100065725C7372635C6D68736370755F7379D1
:105D2000736374726C2E630000F0014070B504461A
:105D30000D460F48204008B104B103E0C4210DA076
:105D400002F051F80DB1012D00D103E0C52109A0E9
:105D500002F049F82DB11348C06820431149C860CA
:105D600004E01048C068A0430E49C86070BD000040
:105D7000034730F42E2E5C4C696272617269657360
:105D80005C4D48534350555F4472697665725C734D
:105D900072635C6D68736370755F7379736374723B
:105DA0006C2E630000F001400D49096801F03001DC
:105DB000102902D10B49016006E00949096801F088
:105DC000300109B9084901600549C96A4FF47A727E
:105DD000514341600249096B5143816070470000A3
:105DE00000F0014000D8B80500A24A0410B50446EE
:105DF0001CB1012C01D0022C00D104E04FF4B07191
:105E00001BA001F0F0FF24B3012C02D0022C2CD1F6
:105E10000EE02348006840F0080021490860084669
:105E2000006820F0040008600846006808601CE074
:105E30001B48006840F008001949086008460068DF
:105E400020F0040008600846006840F00400086084
:105E50000BE01348006820F008001149086008466C
:105E6000006820F00400086000BF00BF10BD000003
:105E70002E2E5C4C69627261726965735C4D485389
:105E80004350555F4472697665725C7372635C6DF2
:105E900068736370755F7379736374726C2E6300DB
:105EA00000F0014010B504460CB1012C00D104E013
:105EB00040F27B110FA001F096FF14B1012C16D116
:105EC00009E01848006820F00100164908600846FB
:105ED000006808600BE01348006820F001001149D9
:105EE00008600846006840F00100086000BF00BF7D
:105EF00010BD00002E2E5C4C696272617269657380
:105F00005C4D48534350555F4472697665725C73CB
:105F100072635C6D68736370755F737973637472B9
:105F20006C2E630000F0014010B50446022C01D035
:105F3000012C00D104E040F24B1110A001F053FFFE
:105F4000012C02D0022C16D109E01848006820F07C
:105F50003000164908600846006808600BE01348E6
:105F6000006820F03000114908600846006840F0E1
:105F70001000086000BF00BF10BD00002E2E5C4C5A
:105F800069627261726965735C4D48534350555F35
:105F90004472697665725C7372635C6D687363707A
:105FA000755F7379736374726C2E630000F0014047
:105FB00015490144B9B1B1F5805F1BD0B1F5005F5F
:105FC00003D0B1F5405F1CD106E01049896921F08A
:105FD00080710E4A916114E00C49896941F0807129
:105FE0000A4A91610DE00949896921F00071074A67
:105FF000916106E00549896921F08061034A916158
:1060000000BF00BF704700000080FEBF00F00140ED
:1060100010B504460CB1012C00D104E040F2391156
:106020000BA001F0E0FE14B1012C0ED106E01448E3
:10603000006820F400701249086006E0104800680B
:1060400040F400700E49086000BF00BF10BD0000A2
:106050002E2E5C4C69627261726965735C4D4853A7
:106060004350555F4472697665725C7372635C6D10
:1060700068736370755F7379736374726C2E6300F9
:1060800000F0014070B504460D461646142001F09C
:10609000FBFE32462946204600F001F870BD2DE98E
:1060A000F04704468946154604F07F00C8B104F065
:1060B0007F002844802814D904F07F00C0F18008B4
:1060C000A0B242464946FDF768F80A2001F0DCFE1E
:1060D0004444C144A5EB0805C5F3C71605F07F0885
:1060E00003E0C5F3C71605F07F0800270CE009EBB5
:1060F000C71104EBC71290B28022FDF74EF80A20B8
:1061000001F0C2FE781CC7B2B742F0DBB8F1000F55
:1061100007D009EBC61104EBC61290B24246FDF758
:106120003CF80A2001F0B0FEBDE8F08730B58DB034
:1061300000250024FDF71AFF0446002C4AD0022057
:106140008DF8000001208DF8010023A00068CDF833
:10615000020070208DF8060000208DF80700022054
:106160008DF8080000208DF80900072C1DD2DFE80B
:1061700004F01C04080C1014180035208DF80A00D7
:1061800013E031208DF80A000FE030208DF80A006E
:106190000BE032208DF80A0007E033208DF80A006A
:1061A00003E034208DF80A0000BF00BF0A210DF182
:1061B000010001F04DFEC5B28DF80B5003208DF8A3
:1061C0000C000D21684601F0EFF80548007808B191
:1061D00001F00CFE0DB030BD0E010B0100000000FF
:1061E000CA0000202DE9F043ADF5017D04460025ED
:1061F0000026002080904FF4967135A8FCF757FEDA
:10620000C82103A8FCF753FE0027A846A07944281C
:106210007DD012DC36287BD008DC082820D030283E
:1062200051D0342850D035284CD10DE1372870D0CA
:1062300040286FD04328F7D1FBE161286BD008DC00
:10624000452869D0462868D0522867D05328EBD11A
:10625000FEE368287DD071287CD07228E4D1F8E371
:1062600002208DF80C0001208DF80D00FEA00068C2
:10627000CDF80E0008208DF812002089000A8DF854
:106280001300207A8DF8140004F10C010DF11600B2
:10629000A268FCF7F3FDA06800F109010DF10D0003
:1062A00001F0D6FDC5B2A0680A3003A90D54032140
:1062B000A0680B3003AA115420890C3081B203A8C6
:1062C00001F072F864E2FDE7207B042859D12089AF
:1062D000401E81B280AB35AA04F10D0003F080FAB4
:1062E00006461EB900208DF8150002E001208DF849
:1062F000150002208DF80C0001208DF80D00DAA0A9
:106300000068CDF80E0034208DF8120007E005E299
:1063100019E151E15AE1F5E33BE291E223E3BDF8F3
:106320000002401C000A8DF81300BDF80002401C5A
:10633000C0B28DF81400BDF8002235A90DF1160089
:10634000FCF79CFDBDF8000200F109010DF10D0004
:1063500001E0F6E3F6E301F07BFDC5B2BDF8000213
:106360000A3003A90D540321BDF800020B3003AA23
:106370001154BDF800020C3081B203A801F014F8EA
:1063800061E0207B012802D1B94908700EE0207B32
:10639000022802D1B649087008E0207B032802D108
:1063A000B349087002E0B3A001F0C8FA2089401E8A
:1063B00081B280AB35AA04F10D0003F025FA064640
:1063C0001EB900208DF8150002E001208DF815009F
:1063D00002208DF80C0001208DF80D00AAA00068A5
:1063E000CDF80E0034208DF81200BDF80002401CDC
:1063F000000A8DF81300BDF80002401CC0B28DF8F1
:106400001400BDF8002235A90DF11600FCF736FD89
:10641000BDF8000200F109010DF10D0001F018FDB9
:10642000C5B2BDF800020A3003A90D540321BDF81E
:1064300000020B3003AA1154BDF800020C3081B2E7
:1064400003A800F0B1FF3DE7207B012802D1884975
:1064500008700EE0207B022802D18549087008E010
:10646000207B032802D18249087002E088A001F055
:1064700065FA7F480078012803D07D48007802281B
:106480000CD17B48007803F011FD18B100208DF885
:1064900015001CE001208DF8150018E07448007804
:1064A000032814D1002003F021FE68B97C4802784B
:1064B000411C7C48FCF7E2FC794800787A49087076
:1064C00000208DF8150002E001208DF81500022053
:1064D0008DF80C0001208DF80D006BA00068CDF840
:1064E0000E0035208DF812006F480078401C001215
:1064F0008DF813006C480078401CC0B28DF8140071
:106500006948027867490DF11600FCF7B7FC664848
:10651000007800F109010DF10D0001F099FCC5B200
:10652000614800780A3003A90D5403215E480078C1
:106530000B3003AA11545C48007800F10C0103A849
:1065400000F032FFBEE6207B012804D102F001FCFE
:1065500001F04CFC0AE0207B022804D102F0EEFBA3
:1065600001F044FC02E051A001F0E8F902208DF8AE
:106570000C0001208DF80D0043A00068CDF80E003E
:1065800036208DF8120000208DF8130001208DF8C0
:10659000140000208DF8150009210DF10D0001F007
:1065A00057FCC5B28DF8165003208DF817000C214A
:1065B00003A800F0F9FE85E6002703E001F016FCD1
:1065C000781CC7B2207BB842F8DC7BE6207B302801
:1065D00006D1A27B617B42EA012001F08DFC02E042
:1065E00034A001F0ABF902208DF80C0001208DF8E9
:1065F0000D0025A00068CDF80E0040208DF8120097
:1066000000208DF8130001208DF8140000208DF873
:10661000150009210DF10D0001F01AFCC5B28DF82D
:10662000165003208DF817000C2103A800F0BCFEC3
:1066300048E602208DF80C0001208DF80D000AA01C
:106640000068CDF80E0045208DF8120000208DF86E
:10665000130008208DF8140000208DF8150019484B
:106660008088000A30E00000D2F8CDA800000000C9
:10667000C00000206572726F72207073616D206EB1
:10668000756D210D0A0000000E010B0100000000D5
:106690006E6F207073616D206E756D210D0A0000A4
:1066A000F01C002068220020B400002033362D2D7D
:1066B0002D3E0A00646967206572726F722D2D2D60
:1066C0003E0A0000742B00208DF81600FB4800796C
:1066D0008DF81700F948007A8DF81800F748407ACD
:1066E0008DF81900F54800788DF81A00F3484078C5
:1066F0008DF81B00F14880788DF81C0010210DF1F9
:106700000D0001F0A5FBC5B28DF81D5003208DF8DA
:106710001E00132103A800F047FE9DE34FF08031D7
:10672000012003F0EBFDA07C617CCDE9001094F822
:106730000DC094F80C904CEA0920237CE27BA17BED
:10674000FEF7E0FC02208DF80C0001208DF80D0012
:10675000AFF2EC000068CDF80E0044208DF8120076
:1067600000208DF8130001208DF8140000208DF812
:10677000150009210DF10D0001F06AFBC5B28DF87D
:10678000165003208DF817000C2103A800F00CFE12
:1067900062E3FEF783FD02208DF80C0001208DF8E6
:1067A0000D00AFF23C100068CDF80E0045208DF8CA
:1067B000120000208DF8130017208DF8140000201F
:1067C0008DF815008DF8160001208DF817000620B1
:1067D0008DF81800BA480168CDF819108088ADF816
:1067E0001D0000208DF81F0002208DF820000620DB
:1067F0008DF82100B248401E8168CDF822108089B2
:10680000ADF8260000208DF8280003208DF829001F
:1068100001208DF82A00AA48401EC07B8DF82B006D
:106820001F210DF10D0001F013FBC5B28DF82C50A6
:1068300003208DF82D00222103A800F0B5FD0BE305
:1068400002208DF80C0001208DF80D00AFF2E81049
:106850000068CDF80E0046208DF8120000208DF85B
:10686000130001208DF81400607B217B00EB0120D8
:10687000012834D1A07BB8B9E07B012814D104F100
:10688000110000F006FBFEF709FD227C04F1110166
:106890008B48FEF7EBF818B101208DF8150052E097
:1068A00000208DF815004EE0A07BE0BBE07B0228C5
:1068B00049D104F1110000F0E3FAFEF7EFFC227C6D
:1068C00004F111017E48C01DFEF7D0F818B1012077
:1068D0008DF8150037E000208DF8150033E0607B5F
:1068E000217B00EB012002282DD1A07B30B9E07B79
:1068F000012803D104F1110000F0CBFAE07D30B99A
:10690000207E022803D104F11A0000F0B9FAFEF744
:10691000C5FC227C04F111016948FEF7A7F818B103
:1069200001208DF815000EE0627E04F11A01644822
:10693000C01DFEF79BF818B101208DF8150002E08C
:1069400000208DF8150009210DF10D0001F080FAED
:10695000C5B28DF8165003208DF817000C2103A83E
:1069600000F022FD78E24FF4E1305549491E0861FC
:1069700002208DF80C0001208DF80D00AFF2F820F8
:106980000068CDF80E0052208DF81200084600690C
:10699000B0F5E13F03D100208DF816003FE04848F4
:1069A000401E0069B0F5614F03D101208DF816003B
:1069B00035E04348401E0069B0F5164F03D1022070
:1069C0008DF816002BE03E48401E0069B0F5E14FFF
:1069D00003D103208DF8160021E03948401E0069DC
:1069E000B0F5964F03D104208DF8160017E0002073
:1069F0008DF8130001208DF814008DF81500092181
:106A00000DF10D0001F024FAC5B28DF816500320E7
:106A10008DF817000C2103A800F0C6FC1CE2002032
:106A20008DF8130002208DF8140000208DF8150059
:106A30000A210DF10D0001F00BFAC5B28DF81750C7
:106A400003208DF818000D2103A800F0ADFC03E22F
:106A500000E0C7E1FEF722FC02208DF80C000120C7
:106A60008DF80D00AFF200400068CDF80E00532005
:106A70008DF81200207B28B94FF4E1301049491EEF
:106A8000086140E0207B012805D14FF461400C49AA
:106A9000491E086137E0207B022805D14FF41640DB
:106AA0000749491E08612EE0207B03280AD14FF4D4
:106AB000E1400349491E086125E00000742B0020D5
:106AC00061260020207B042804D14FF49640E5493C
:106AD000086118E000208DF8130001208DF81400E3
