:020000040100F9
:10100000105A0020E1100001D121000161190001F6
:10101000CD21000141120001DD340001000000007B
:10102000000000000000000000000000892A00010C
:10103000BD1300010000000049230001051100015B
:10104000071100010711000107110001071100013C
:101050004B230001D93100010711000107110001E4
:1010600007110001071100012D30000107110001D7
:10107000071100010711000107110001071100010C
:1010800007110001071100010711000107110001FC
:1010900007110001071100010711000107110001EC
:1010A00007110001071100010711000107110001DC
:1010B00007110001DFF80CD000F0B0F8004800473D
:1010C000F13B0001105A00204FF0180100FB01F025
:1010D00000BF00BF00BF013800BFFCD100BF704798
:1010E00009480A4908600068854609488047094858
:1010F00000470000FEE7FEE7FEE7FEE7FEE7FEE74B
:10110000FEE7FEE7FEE7FEE70010000108ED00E065
:1011100017300001B510000110B5431A934209D2EF
:101120008318881803E010F8011D03F8011D521EF2
:10113000F9D210BD40EA01039B0703D009E008C9BA
:10114000121F08C0042AFAD203E011F8013B00F88C
:10115000013B521EF9D210BDD2B201E000F8012BC2
:10116000491EFBD270470022F6E710B513460A4627
:1011700004461946FFF7F0FF204610BD2DE9F05F49
:101180000546002092469B468846064681464024F6
:101190001BE0284641464746224600F02FF85346BA
:1011A0005A46C01A914110D311461846224600F003
:1011B00016F82D1A67EB01084F4622460120002140
:1011C00000F00DF817EB00094E41201EA4F10104B8
:1011D000DFDC484631462A464346BDE8F09F202AD8
:1011E00004DB203A00FA02F1002070479140C2F17E
:1011F000200320FA03F3194390407047202A04DBB0
:10120000203A21FA02F00021704721FA02F3D0407F
:10121000C2F120029140084319467047064C074D21
:1012200006E0E06840F0010394E8070098471034B6
:10123000AC42F6D3FFF742FF444D0001644D00017C
:1012400000BFFEE72DE9FC4705460C46687A3128C9
:1012500004D0322803D033285BD145E000BF687A40
:10126000312801D1607203E0687A322800D16072BF
:10127000D5F8308102F04AFC814601A805F59A7341
:10128000424619460090244800F06CFBC6B202F0BA
:101290003DFCA0EB090A514620A002F021F9B6B9A5
:1012A0000198401D60600198C4F83001002706E0F5
:1012B00005F59A70C15D04F59A70C1557F1CD4F88C
:1012C0003001B842F4D8592084F80C0121E0032001
:1012D000606006F1640018B9452084F80C0118E03C
:1012E0004E2084F80C0114E033206072032060600B
:1012F0001EB9592084F80C010AE006F17D0018B9E6
:10130000452084F80C0104E04E2084F80C0100E034
:1013100000BF00BFBDE8FC87E8180020636F73744E
:101320003A25646D730D0A002DE9F04107460C461D
:10133000DFF87C80787A302802D0312835D133E04C
:10134000302060721B4AA2F14001002003F028FA0D
:1013500046B2EEB9002507E016484038415D04F278
:1013600033204155681CC5B2134890F86D08A84257
:10137000F2DC114890F86D08C01C60600E4890F8CF
:101380006D08801EC4F83403592084F80C010CE069
:1013900003206060701C18B9452084F80C0104E03B
:1013A0004E2084F80C0100E000BF00BFBDE8F081D2
:1013B00008190020AD150020400D002010B502A036
:1013C00002F08EF810BD00004E4D495F48616E641A
:1013D0006C65720D0A000000032800DB70470021D5
:1013E00000EB40120C4B03EB0212C2F8001200EBB0
:1013F000401203EB0212C2F8081200EB401203EB9A
:101400000212C2F80C12491E00EB401203EB02124A
:10141000C2F8041200BFE1E7400000207FB5044697
:10142000134B0FCB8DE80F00124884420BD01148AC
:101430001030844207D00F482030844203D00D483A
:101440003030844200D103E033210BA002F099FA3E
:10145000002507E05DF82500A04202D1284604B02F
:1014600070BD6D1C042DF5DB4FF0FF30F7E7000079
:10147000244D000100D001402E2E5C4C6962726147
:10148000726965735C4D48534350555F4472697689
:1014900065725C7372635C6D68736370755F6770AF
:1014A000696F2E630000000070B504460D464FF0D2
:1014B000FF364E4884420BD04C481030844207D04F
:1014C0004A482030844203D048483030844200D11A
:1014D00003E0552146A002F054FA28686FF30F008C
:1014E00010B9286800B103E0562141A002F049FA82
:1014F000686801280BD06868022808D0686803284B
:1015000005D06868052802D06868042800D103E087
:10151000572137A002F035FA288881B22046AA6800
:1015200000F080F8A868022800D070BD2046FFF7C0
:1015300075FF06466868062855D2DFE800F05403B8
:101540000C152A3FA06829680843A060E068296854
:101550008843E06047E0A06829680843A060E0682D
:1015600029680843E0603EE0A06829688843A060DD
:10157000E06829688843E060206829688843206023
:10158000274830F8160029880843254921F8160015
:1015900029E0A06829680843A060E068296808433A
:1015A000E06020682968884320601D4830F81600F4
:1015B000298808431A4921F8160014E0A068296810
:1015C0008843A060E06829688843E0602068296853
:1015D00008432060124830F81600296888431049F3
:1015E00021F8160000BF00BF00BF9EE700D00140F9
:1015F0002E2E5C4C69627261726965735C4D485352
:101600004350555F4472697665725C7372635C6DBA
:1016100068736370755F6770696F2E630000000008
:10162000000000202DE9F0410746884616463B4859
:1016300087420BD039481030874207D037482030D6
:10164000874203D035483030874200D104E04FF460
:10165000C67133A002F095F94FEA18404FEA0040F6
:1016600018B9B8F1000F00D004E040F28D112CA0A1
:1016700002F087F9012E05D0022E03D0032E01D0EF
:10168000042E00D104E04FF4C77125A002F079F9CF
:101690003846FFF7C3FE044600253BE00120A84082
:1016A00000EA0800A8B32A4850F824006A00032181
:1016B00091408843264941F82400012E06D0022E8D
:1016C00005D0032E0ED0042E22D116E020E02048B3
:1016D00050F824006A000121914008431C4941F858
:1016E000240015E01A4850F824006A0002219140B5
:1016F0000843174941F824000AE0154850F824002F
:101700006A00032191400843114941F8240000BFB9
:1017100000BF6D1C102DC1D3BDE8F08100D0014089
:101720002E2E5C4C69627261726965735C4D485320
:101730004350555F4472697665725C7372635C6D89
:1017400068736370755F6770696F2E6300000000D7
:1017500080D101402DE9F04105460C464FF0FF369F
:1017600000274FF000082F4885420BD02D4810303D
:10177000854207D02B482030854203D0294830309D
:10178000854200D104E040F20B1127A002F0F9F8E5
:10179000012C25D0022C23D0042C21D0082C1FD0C2
:1017A000102C1DD0202C1BD0402C19D0802C17D0F1
:1017B000B4F5807F14D0B4F5007F11D0B4F5806FFC
:1017C0000ED0B4F5006F0BD0B4F5805F08D0B4F53F
:1017D000005F05D0B4F5804F02D0B4F5004F00D1C2
:1017E00004E04FF4867110A002F0CBF82846FFF712
:1017F00015FE0646184830F8160000EA0407164899
:1018000030F8160024EA0008134830F8160020408B
:1018100018B1A868B843A86002E04FEA08406860C1
:10182000BDE8F08100D001402E2E5C4C69627261EF
:10183000726965735C4D48534350555F44726976D5
:1018400065725C7372635C6D68736370755F6770FB
:10185000696F2E6300000000000000202DE9F041B8
:1018600005460C464FF0FF3600274FF000082E4883
:1018700085420BD02C481030854207D02A482030B2
:10188000854203D028483030854200D103E0ED2165
:1018900026A002F076F8012C25D0022C23D0042CAF
:1018A00021D0082C1FD0102C1DD0202C1BD0402C58
:1018B00019D0802C17D0B4F5807F14D0B4F5007FF8
:1018C00011D0B4F5806F0ED0B4F5006F0BD0B4F525
:1018D000805F08D0B4F5005F05D0B4F5804F02D02A
:1018E000B4F5004F00D103E0EE2110A002F049F85A
:1018F0002846FFF793FD0646184830F8160000EA20
:101900000407164830F8160024EA0008134830F897
:101910001600204018B1A8683843A86001E0C5F857
:101920000480BDE8F081000000D001402E2E5C4C08
:1019300069627261726965735C4D48534350555FCB
:101940004472697665725C7372635C6D6873637010
:10195000755F6770696F2E63000000000000002053
:1019600000BFFEE72DE9FF4F89B004464FF0000BA2
:10197000002007908246F94D2E462F46B04606902D
:101980000590049001200390A5F104090190002125
:1019900016980160012003900020069005900490A5
:1019A0006068102801D2202060606068C01E079027
:1019B000607810B10798401E0790E07810B1079842
:1019C000401E0790DDF82CB00020029000BF019867
:1019D0000A287CD2DFE800F07B05637C94A0F5F454
:1019E000F3F22F460798834527DD207C00F00100A5
:1019F00040F012002870E07818B1287840F0080014
:101A00002870607818B1287840F0040028707F1C96
:101A1000E07820B1A07800F00F0007F8010B6078A3
:101A200020B1207800F00F0007F8010BDDF81CA0B2
:101A3000DDF81CA0ABEB0A0B23E0207C00F00100DA
:101A400040F002002870E07818B1287840F00800D3
:101A50002870607818B1287840F0040028707F1C46
:101A6000E07820B1A07800F00F0007F8010B607853
:101A700020B1207800F00F0007F8010BDA464FF094
:101A8000000B524638460A99FFF746FB57440A981E
:101A900050440A902878207405200190A4E12F4634
:101AA000207C00F0010040F0A2002870E07818B11E
:101AB000287840F0080028707F1CE07820B1A078DA
:101AC00000F00F0007F8010B052001908CE18AE17E
:101AD0002F46207C00F0010040F0B2002870E07832
:101AE00018B1287840F0080028707F1CE07820B1F9
:101AF000A07800F00F0007F8010B0520019073E1BA
:101B00002F46F22007F8010B039800F03F0007F87A
:101B1000010B0520019067E10498401C0490039894
:101B20003B2807D9012003900A2001906FF0630041
:101B3000089059E18A4903980877207A02F092FFC9
:101B4000781BA9F80200B9F80220294609F104001F
:101B5000FFF7E2FA0C2089F80000484602F096FAF6
:101B60000890B9F80210CA1701EB5272D210084659
:101B7000CB1701EB5373DB10A1EBC3030BB10123B4
:101B800000E000231A44626109F1040130466269F1
:101B9000FFF7C2FAB9F80200C11700EB5171C91082
:101BA000A0EBC101A1610898B0B10498022802DC41
:101BB0000698022806DD0920019055E009E1E5E0DC
:101BC000B0E057E0607C00F0100010B102200190FE
:101BD0004AE00320019047E000200490089830BBC1
:101BE000B046307800F0E200022812D1307800F0E0
:101BF000020030B16069FE2803D8307800F00C0094
:101C000010B1092001902FE00020069006200190DD
:101C10002AE0307800F0E000A0280ED1307800F003
:101C20000C0010B96069022802D9092001901BE05C
:101C3000002006900720019016E0307800F0C000E8
:101C4000C0280FD1307800F00C0010B9606902286C
:101C500002D90920019007E00698401C0690082050
:101C6000019001E009200190012003903C49039874
:101C70000877B9E0BBF1000F02D00920019050E0D5
:101C800008F10108207C00F00100317801F0010129
:101C9000884244D130786074307800F0100070B120
:101CA000307800F0080008B108F10108307800F041
:101CB000040008B108F10108022001900DE030781D
:101CC00000F0080008B108F10108307800F00400C5
:101CD00008B108F101080A200190A8EB060160692B
:101CE000884217D3A8EB06016069421A41460C9856
:101CF000FFF712FAA8EB06016069411A0C98084434
:101D00000C90A8EB06016069411A1698006801441E
:101D100016980160207C80F00100207401E0092009
:101D2000019061E0307800F0100010B109200190BE
:101D30002BE0207C00F00100317801F001018842A5
:101D400013D1207C00F0100060B1207C80F00100F5
:101D50002074002005900120019016E00C1900204D
:101D6000E8180020092001900FE00598401C05901C
:101D70000598022802DD0920019006E0D3440A9864
:101D8000A0EB0A000A90012001902DE0307800F0CD
:101D9000F700F22802D00920019019E006F10108AD
:101DA000307800F0080008B108F1010898F8000048
:101DB00000F03F0010B90920019009E00298401C92
:101DC000029098F8000000F03F000390042001907A
:101DD0000AE00898B0F1FF3F02D06FF0630008906E
:101DE0000A20019000E000BF00BF01980A287FF49C
:101DF000EEAD08980DB0BDE8F08F00002DE9FF5F53
:101E000006460C46EF480090707A30380A2824D2F3
:101E1000DFE800F0052462B2B3FA23F9F863032087
:101E2000606030206072032700BF7F1EE6495220A9
:101E300002F0D6FD45B2681C08B9002FF5D11DB9D6
:101E4000592084F80C0108E0681C18B9452084F872
:101E50000C0102E04E2084F80C01B0E131206072E8
:101E6000032700BF7F1ED849522002F0B9FD45B2BA
:101E7000681C08B9002FF5D1681C28B903206060E0
:101E8000452084F80C019AE1FDB9CF48C179821C44
:101E9000932001F07DFF45B20720606075B959209D
:101EA00084F80C01C849D1F80210C4F80F11C64AD1
:101EB0000832911F932002F0A1F805E04E2084F82B
:101EC0000C010021C4F80F1179E14E2084F80C01B7
:101ED0000021C4F80F1172E100BF0420606096F881
:101EE0000D0184F80D01707A322803D160724FF031
:101EF000600A05E0707A392802D160724FF0610AF9
:101F0000D6F813110191B6F81701ADF8080096F84C
:101F10000D0180064FEA106B01ABAB4A921C59468B
:101F2000504601F0FBFE45B21DB9592084F80C0162
:101F300045E1281D18B9332084F80C013FE105F173
:101F40001B00A8B9032700BF7F1E9F49522002F043
:101F500047FD45B2681C08B9002FF5D1681C18B9B7
:101F6000452084F80C012AE14E2084F80C0126E17A
:101F70004E2084F80C0122E100BF96F80D0184F890
:101F80000D0196F80E0184F80E0196F80D011F2838
:101F900008DC96F80E1196F80D0101EB800000F0B8
:101FA000FF0909E096F80D01802101EB001096F879
:101FB0000E11084400F0FF09707A332807D16072CF
:101FC00081491D31484602F0D7FC45B209E0707ADC
:101FD000342806D1607206F21911484602F05AFD03
:101FE00045B2EDB915206060592084F80C01707A73
:101FF00033280AD1102274491D3104F21910FFF759
:102000008BF80CE09CE09AE029E0707A342806D145
:1020100010226D491D3104F21910FFF77DF8CEE052
:1020200005F11B00B8B905206060032700BF7F1EC3
:102030006549522002F0D4FC45B2681C08B9002F53
:10204000F5D1681C18B9452084F80C01B7E034209C
:1020500084F80C01B3E04E2084F80C01AFE00420BA
:1020600060603520607296F80D0184F80D0196F8D5
:102070000D011F2808DC96F80D01032101EB8000FB
:10208000C1B25048417107E096F80D010F2101EBF4
:102090000010C1B24B4841714FF000080BE006F24E
:1020A000131010F808204748001D08F1020142549F
:1020B000481E00F0FF08B8F1060FF0DBFF21414891
:1020C000017307214173802181736921C1734FF02E
:1020D000000809E0FF223B48001D08F10C014254B2
:1020E00008F1010000F0FF08B8F1060FF2DB3549F6
:1020F0004879891D02F0CEFC45B21DB9592084F8FB
:102100000C015CE005F11B00A8B9032700BF7F1E8E
:102110002D49522002F064FC45B2681C08B9002F1A
:10212000F5D1681C18B9452084F80C0147E04E2011
:1021300084F80C0143E04E2084F80C013FE000BF1E
:102140000520606096F80D0184F80D0196F80E01E7
:1021500084F80E014FF0000803E008F1010000F0E0
:10216000FF08B8F1040FF8DB707A372801D16072EC
:1021700003E0707A382800D160721DB9592084F8C4
:102180000C011CE005F11B00A8B9052700BF7F1E4C
:102190000D49522002F024FC45B2681C08B9002FFA
:1021A000F5D1681C18B9452084F80C0107E04E20D1
:1021B00084F80C0103E0342084F80C0100BF00BF58
:1021C000BDE8FF9F08190020400D002000BFFEE77A
:1021D000704700001FB5072002460B4B19684FF6E9
:1021E000FF031940094B0B4343EA0221064B1960D8
:1021F00000BF052000900020019001200290039074
:10220000684600F005F81FBD0CED00E00000FA057F
:102210002DE9F0470446E06810B1E068012800D1DC
:1022200003E011213BA001F0ACFB6068102800D254
:1022300003E0122137A001F0A4FBA068102800D20F
:1022400003E0132133A001F09CFBE068002853D089
:1022500000BF3A480068C0F3022005462846D4E98A
:1022600001230146C1F10708B8F1040F02D94FF06C
:10227000040801E0C1F10708C44601F10408B8F1FF
:10228000070F02D24FF0000801E0A1F10308474612
:102290004FF0010808FA0CF8A8F1010808EA020852
:1022A00008FA07F84FF0010909FA07F9A9F101093D
:1022B00009EA030948EA090600BF304621680029F7
:1022C00008DA0207170E1D4A0C3201F00F031B1F1C
:1022D000D75403E00207130E194A535400BF206875
:1022E00000F01F02012191404209920002F1E02218
:1022F000C2F8001100BF0AE0206800F01F020121AF
:102300009140104A430942F8231000BF00BFBDE8C6
:10231000F08700002E2E5C4C6962726172696573F1
:102320005C4D48534350555F4472697665725C73E7
:1023300072635C6D6973632E630000000CED00E056
:1023400000E400E080E100E0704710B5002000F0FC
:1023500001F810BD2DE9F04705464FF00009DFF800
:10236000E083F84800EB4517F74850F825403868F7
:10237000012804D002287ED0032874D1F4E0E06E56
:1023800000F02A00D8B1E06E00F0200020B1DFF8A4
:10239000B083A8F10F086BE0E06E00F0020020B1FE
:1023A000DFF89C8308F1030862E0E06E00F00800AB
:1023B00000285DD0DFF8888308F1010858E0E06E5E
:1023C00000F4C060002853D0206886B200207883D3
:1023D00040F20310864201D03B2E45D140F203105B
:1023E000864206D101207883606840F00300606077
:1023F0003F2605EB4511D54B03EB0111D1F808023F
:10240000411C05EB4513DFF844C30CEB0313C3F881
:10241000081205EB4511634603EB01110E5405EB61
:102420004510194601EB0010D0F80802B0F5007F06
:1024300007D1002005EB45111A4602EB0111C1F846
:102440000802206920F020002061206940F4A87073
:102450002061206A10B94FF4C060E0660220386045
:10246000BDE8F08707E074E1DFF8D482A8F1120834
:10247000002038606EE1E06E00F4807020B1DFF87B
:10248000C082A8F111086EE0E06E00F0400020B1BB
:10249000DFF8AC82A8F1100865E0E06E00F0020001
:1024A00020B1DFF89C8208F103085CE0E06E00F0E8
:1024B000100020B1DFF88882A8F1020853E0E06E36
:1024C00000F4C060F0B347E0206886B206F4807084
:1024D000C0B1DFF86C82A8F1020805EB45109B49FA
:1024E00001EB0010D0F8080205EB4511974A02EB0A
:1024F0000111C1F80402404605EB451102EB011140
:10250000C1F8000205EB4511904B03EB0111D1F826
:102510000802411C05EB4513DFF830C20CEB031336
:10252000C3F8081205EB4511634603EB01110E5485
:1025300005EB4510194601EB0010D0F80802B0F584
:10254000007F00E00FE007D1002005EB45111A469F
:1025500002EB0111C1F80802206A0028B4D14FF43F
:10256000C060E0667CE7F5E0A06800F004000428A5
:1025700077D1E06E00F01A00A8B1E06E00F0100014
:10258000102806D10120E061DFF8B481A8F1050828
:1025900076E0E06E00F00200022871D1DFF8A08141
:1025A00008F103086CE0E06E00F40060B0F5006F25
:1025B00066D105EB4510654901EB0010D0F8080223
:1025C00005EB4511614A02EB0111D1F80C1288426A
:1025D0000FD1E06968B9A06820F00400A0604FF452
:1025E0007F60E06640F2827020612846FEF7F4FECC
:1025F00042E03DE005EB4510544901EB0010D0F8F6
:10260000080205EB4511514A02EB0111D1F80C12F9
:10261000884227D005EB451102EB0111D1F80C02DD
:10262000411C05EB4512494B03EB0212C2F80C1298
:1026300005EB45111A4602EB0111095C216005EB1F
:102640004510114601EB0010D0F80C02B0F5007FE8
:102650000ED1002005EB451102EB0111C1F80C026F
:1026600006E011E0A06900F0F000401CA06102E06B
:10267000E0690828BED300BF4FF40060E066EFE6D3
:102680002846FEF7A9FE63E0D4F86C80E06E00F403
:10269000807020B1DFF8A880A8F1040858E0E06E4F
:1026A00000F0800020B1DFF89880A8F103084FE027
:1026B000E06E00F0100020B1DFF88480A8F102087D
:1026C00046E0E06E00F4C060C8B331E0206886B236
:1026D00006F4807020B11A49891E284600F04AF895
:1026E00005EB4511194B03EB0111D1F80802411C10
:1026F00005EB4513DFF854C00CEB0313C3F80812C5
:1027000005EB4511634603EB01110E5405EB451033
:10271000194601EB0010D0F80802B0F5007F07D190
:10272000002005EB45111A4602EB0111C1F8080221
:10273000206A0028CAD14FF4C060E06690E607E046
:102740000BF5FFFF70060020344D00014000002013
:1027500000E000BF00BF002020614FF47F60E06612
:102760004146284600F006F8A06820F00400A0606A
:1027700000BF75E610B500EB4012164B03EB0212DA
:10278000D2F800227AB100EB401203EB0212D2F829
:10279000042200EB40130F4C04EB0313D3F80C326C
:1027A0009A4200DD10BD00EB40120A4B03EB02120F
:1027B000C2F8001200EB401203EB0212D2F808221A
:1027C00000EB4013034C04EB0313C3F8042200BFD7
:1027D000E8E700004000002070B505460C460CB14B
:1027E000012C00D103E0402104A001F0CAF814B18B
:1027F0000120A86001E00020A86070BD2E2E5C4C76
:1028000069627261726965735C4D48534350555FEC
:102810004472697665725C7372635C6D6873637031
:10282000755F7370692E630070B505460C4600260F
:10283000082C07D0102C05D0042C03D0022C01D07A
:10284000012C00D103E0C52105A001F09AF8A86A87
:10285000204008B1012600E00026304670BD00008F
:102860002E2E5C4C69627261726965735C4D4853CF
:102870004350555F4472697665725C7372635C6D38
:1028800068736370755F7370692E630070B5054679
:102890000C46206858B12068B0F5807F07D02068CA
:1028A000B0F5007F03D02068B0F5407F00D103E091
:1028B0000F2164A001F065F8A0680F2802D0A0687D
:1028C000072800D103E010215EA001F05AF86069EA
:1028D000012801D0606900B903E0112159A001F07D
:1028E00050F8E06810B1E068802800D103E01221C0
:1028F00054A001F046F8206910B12069402800D1A9
:1029000003E013214FA001F03CF8A069022815D084
:10291000A069042812D0A06908280FD0A069102847
:102920000CD0A069202809D0A069402806D0A06951
:10293000802803D0A069B0F5807F00D103E0142186
:1029400040A001F01EF8E06960B3E069012829D0D9
:10295000E069022826D0E069032823D0E069042832
:1029600020D0E06905281DD0E06906281AD0E0696A
:10297000072817D0E069082814D0E069092811D089
:10298000E0690A280ED0E0690B280BD0E0690C281A
:1029900008D0E0690D2805D0E0690E2802D0E06972
:1029A0000F2800D103E0152126A000F0EAFF206ADD
:1029B00060B3206A012829D0206A022826D0206A24
:1029C000032823D0206A042820D0206A05281DD09F
:1029D000206A06281AD0206A072817D0206A0828FB
:1029E00014D0206A092811D0206A0A280ED0206A43
:1029F0000B280BD0206A0C2808D0206A0D2805D09F
:102A0000206A0E2802D0206A0F2800D803E0162181
:102A10000CA000F0B6FF0020A860E8622088A18921
:102A20000843218A0843218908432880A0696861F6
:102A300060692861E069E861206AA861284600F0C1
:102A400017F870BD2E2E5C4C6962726172696573F5
:102A50005C4D48534350555F4472697665725C73B0
:102A600072635C6D68736370755F7370692E630069
:102A700010B50446204600F089F910BD0146086EE5
:102A800080B27047016670477047000070B5044619
:102A90000D460F48204008B104B103E078210DA095
:102AA00000F06FFF0DB1012D00D103E0792109A0E5
:102AB00000F067FF2DB1134840682043114948607A
:102AC00004E010484068A0430E49486070BD000013
:102AD000034730F42E2E5C4C696272617269657333
:102AE0005C4D48534350555F4472697665725C7320
:102AF00072635C6D68736370755F7379736374720E
:102B00006C2E630000F0014070B504460D460F487E
:102B1000204008B104B103E0C4210DA000F031FF52
:102B20000DB1012D00D103E0C52109A000F029FF5E
:102B30002DB11348C06820431149C86004E0104813
:102B4000C068A0430E49C86070BD0000034730F460
:102B50002E2E5C4C69627261726965735C4D4853DC
:102B60004350555F4472697665725C7372635C6D45
:102B700068736370755F7379736374726C2E63002E
:102B800000F001400D49096801F03001102902D11F
:102B90000B49016006E00949096801F0300109B9F3
:102BA000084901600549C96A4FF47A72514341608E
:102BB0000249096B514381607047000000F00140F9
:102BC00000D8B80500A24A0410B504461CB1012C77
:102BD00001D0022C00D104E04FF4B0711BA000F032
:102BE000D0FE24B3012C02D0022C2CD10EE02348BD
:102BF000006840F00800214908600846006820F09D
:102C0000040008600846006808601CE01B48006873
:102C100040F00800194908600846006820F00400E8
:102C200008600846006840F0040008600BE01348A4
:102C3000006820F00800114908600846006820F08C
:102C40000400086000BF00BF10BD00002E2E5C4CC9
:102C500069627261726965735C4D48534350555F98
:102C60004472697665725C7372635C6D68736370DD
:102C7000755F7379736374726C2E630000F00140AA
:102C800010B504460CB1012C00D104E040F27B11D8
:102C90000FA000F076FE14B1012C16D109E01848FF
:102CA000006820F0010016490860084600680860C6
:102CB0000BE01348006820F0010011490860084645
:102CC000006840F00100086000BF00BF10BD0000B8
:102CD0002E2E5C4C69627261726965735C4D48535B
:102CE0004350555F4472697665725C7372635C6DC4
:102CF00068736370755F7379736374726C2E6300AD
:102D000000F0014010B50446022C01D0012C00D186
:102D100004E040F24B1110A000F033FE012C02D071
:102D2000022C16D109E01848006820F0300016493E
:102D300008600846006808600BE01348006820F04F
:102D40003000114908600846006840F01000086033
:102D500000BF00BF10BD00002E2E5C4C6962726186
:102D6000726965735C4D48534350555F4472697690
:102D700065725C7372635C6D68736370755F7379A1
:102D8000736374726C2E630000F0014015490144B6
:102D9000B9B1B1F5805F1BD0B1F5005F03D0B1F5DB
:102DA000405F1CD106E01049896921F080710E4A0C
:102DB000916114E00C49896941F080710A4A91617E
:102DC0000DE00949896921F00071074A916106E027
:102DD0000549896921F08061034A916100BF00BF04
:102DE000704700000080FEBF00F0014010B50446AF
:102DF0000CB1012C00D104E040F239110BA000F01D
:102E0000C0FD14B1012C0ED106E01448006820F476
:102E100000701249086006E01048006840F4007035
:102E20000E49086000BF00BF10BD00002E2E5C4C94
:102E300069627261726965735C4D48534350555FB6
:102E40004472697665725C7372635C6D68736370FB
:102E5000755F7379736374726C2E630000F00140C8
:102E60002DE9F04104460026207A35284FD1607ABA
:102E700030380A2849D2DFE800F005091922231B5F
:102E8000483D3E1A94F80C01A0723FE094F80C0102
:102E9000A072002507E004F20F10425D04F10A0061
:102EA000691C42546D1C042DF5D32FE000BF00BFF8
:102EB00094F80D01A07294F80C11E17226E000BFA5
:102EC00094F80D01A07294F80E11E17294F80C11AF
:102ED000217394F80C0159280BD1002507E004F266
:102EE0001910425D04F10A00E91C42546D1C102DBA
:102EF000F5D30BE000BF94F80D01A07294F80E1109
:102F0000E17294F80C11217300E000BF4EE0207ACA
:102F100037282DD1607A2F38052828D2DFE800F035
:102F200004030506230000BF00BF00BF94F80C0196
:102F3000A07294F80C01592814D1B4F83001010A98
:102F4000E17294F830112173002507E004F59A70BE
:102F5000425D04F10A00E91C42546D1CD4F83001B2
:102F6000A842F3D803E094F80C01A07200BF1DE062
:102F7000207A38281AD1607A302816D194F80C01BA
:102F8000A07294F80C0159280ED1002507E004F234
:102F90003320425D04F10A00691C42546D1CD4F8D0
:102FA0003403801CA842F2D800BF00BF86F002069E
:102FB000022000F0F5F9A088C0F307277E403846CC
:102FC00000F0EEF927797E40384600F0E9F9207AE2
:102FD0004640607A4640207A00F0E2F9607A00F0DC
:102FE000DFF9002509E004F10A00405D464004F1E4
:102FF0000A01485D00F0D4F96D1C6068801EA8428B
:10300000F1D886F00306032000F0CAF9304600F03C
:10301000C7F9BDE8F08110B50220FFF773FE00206C
:10302000FFF7D2FD0020FFF72BFE10BD10B50548BD
:103030000068401C034908600121034800F006F8BD
:1030400010BD0000140000200030014008B501EB65
:10305000810200EB8202D268009208BD70B504467E
:103060000D4616460EB1012E00D103E024210FA01B
:1030700000F087FC66B105EB850004EB80008068FA
:1030800040F0010005EB850104EB810188600BE055
:1030900005EB850004EB8000806820F0010005EB63
:1030A000850104EB8101886070BD00002E2E5C4C10
:1030B00069627261726965735C4D48534350555F34
:1030C0004472697665725C7372635C6D6873637079
:1030D000755F74696D65722E6300000010B504465B
:1030E0000348844203D101214805FFF70DFD10BDBF
:1030F0000030014070B504460D4616460EB1012E53
:1031000000D103E04B210FA000F03BFC66B105EBC2
:10311000850004EB8000806820F0040005EB850149
:1031200004EB810188600BE005EB850004EB800077
:10313000806840F0040005EB850104EB81018860A4
:1031400070BD00002E2E5C4C6962726172696573FD
:103150005C4D48534350555F4472697665725C73A9
:1031600072635C6D68736370755F74696D65722EF0
:103170006300000070B505460C4600222846216811
:10318000FFF76CFF0020216801EB810105EB810155
:103190008860206800EB800005EB8000806840F0CC
:1031A0000200216801EB810105EB81018860206844
:1031B00000EB800005EB8000806820F008002168AB
:1031C00001EB810105EB81018860D4E9001001EB7E
:1031D000810145F8210070BD10B56C48806800F091
:1031E0000F00042851D1694800F071F9684908704E
:1031F0006848807900B110BD6648007800286ED01C
:103200006448C07800287CD062484078002869D0A3
:1032100060488078002853D05E4881685E484068E6
:10322000801E814239D15B480079B8B15948407954
:1032300000282AD05748007B55490978884206D192
:10324000012054498871544800F0AAFBD3E7514843
:103250000021016041608160C160CCE74C4800788A
:10326000032813D101204B4908710846007B80F0E8
:10327000030008730320484981F80A014548007B90
:1032800081F80B010120434948717DE0414800214C
:10329000016041608160C16076E03D4801783D4851
:1032A00082688068401C3B4B98603B480A308154E0
:1032B0001846007B3649097848401946087363E090
:1032C00001203449887032480078334948723148C7
:1032D000007B2F49097848402E49087354E03DE0AF
:1032E0000FE0FFE701202B494870294800782A4960
:1032F00008722848007B2649097848402549087308
:1033000042E026480078401C2449087008460078AE
:10331000022813D10020087001201E49C8701E48E1
:1033200040681B49097808431B4948601948007BDD
:103330001749097848401749087325E01448007870
:103340001549486008464068000248601148007B03
:103350000F49097848400F49087315E00C48007878
:1033600002280BD101200B4908700846007B80F031
:103370000200087302200849087005E00548002192
:10338000016041608160C16000BF34E700600140BE
:1033900010000020D8180020D006002011000020C6
:1033A00010B5044600BF054800F088F80028FAD0A0
:1033B0002146024800F08FF810BD00000060014077
:1033C0001AB143680B43436002E043688B43436098
:1033D00070470000FEB505460C46206820B12A491A
:1033E0002068884200D203E0192128A000F0C9FA21
:1033F000606840B16068012805D06068022802D08A
:103400006068032800D103E01A2120A000F0B9FA77
:10341000A06848B1A068042801D1606820B1A06804
:10342000042802D1606800B103E01B2117A000F05E
:10343000A8FAE06828B1E068182802D0E0680828F7
:1034400000D103E01C2111A000F09BFA6846FFF7B1
:1034500099FBE86840F08000E86002980009216864
:1034600000EB5100B0FBF1F6F0B22860C6F3072084
:103470006860E86820F08000E860D4E90101084352
:10348000E1680843E860FEBD21AA44002E2E5C4C92
:1034900069627261726965735C4D48534350555F50
:1034A0004472697665725C7372635C6D6873637095
:1034B000755F756172742E630000000001464869F3
:1034C00000F0400008B1012070470020FCE70146F1
:1034D0000868C0B27047CAB20260704700BFFEE71A
:1034E0000FB4054B10B503A9044A029800F018F870
:1034F00010BC5DF814FB0000CD3A00013C00002038
:1035000002E008C8121F08C1002AFAD170477047AC
:10351000002001E001C1121F002AFBD1704700000A
:103520002DE9FF4F8DB00F460546002606E0252801
:103530000BD0DDE90F1290476D1C761C287800280F
:10354000F5D111B03046BDE8F08F0024A246A14667
:103550000122EC4900E0044315F8013F203B02FA48
:1035600003F00842F7D128782A2810D06FF02F02F4
:103570002878A0F13001092914D80AEB8A0102EB5E
:10358000410144F0020400EB010A6D1CF0E701CF99
:103590005FEA000A03D544F40054CAF1000A44F07B
:1035A00002046D1C28782E2817D115F8010F44F05D
:1035B00004042A280ED06FF02F022878A0F13001E1
:1035C00009290AD809EB890102EB410100EB010945
:1035D0006D1CF2E757F8049B6D1C28786C280FD0FF
:1035E00006DC4C2817D068280DD06A2814D104E0D6
:1035F000742810D07A280FD10DE044F400140AE0AA
:1036000044F4801401E044F440146978814202D10A
:1036100004F580146D1C6D1C2A786E2A1FD00CDCFA
:10362000632A31D004DC002A8BD0582A11D1A3E0C0
:10363000642A68D0692A0CD165E0732A2ED004DC94
:103640006F2A73D0702A04D19BE0752A6FD0782A34
:103650006ED01046DDE90F129047761C50E1C4F39E
:103660000250022806D0032809D0042801CF09D02F
:10367000066045E101CFF117C0E9006140E101CFEB
:1036800006803DE106703BE117F8040B8DF8000061
:1036900000208DF80100EB46012003E057F804BB41
:1036A0004FF0FF3061074FF0000102D40DE008F148
:1036B0000101884649450FDA8045F8DB1BF8081000
:1036C0000029F4D108E008F1010188468142FADBC3
:1036D0001BF808100029F6D1DDE90F23AAEB08003A
:1036E0008146214600F036F9304400EB080604E03C
:1036F000DDE90F121BF8010B9047B8F10108F7D272
:1037000021464846F7E00A21C4F302534FF0000B6C
:103710000891022B04D001CFC117032B09D00AE076
:10372000FF1D27F00707F7E8020108E032E01FE07D
:1037300020E000B2C117042B01D140B2C117031E13
:1037400071F1000307DA4FF0000CD0EB0C006CEBCA
:1037500001012D2302E0230504D52B238DF824300D
:10376000012303E0E30701D02023F7E7984658E060
:103770000A2110E010210EE010204FF0000B0890FD
:103780000CE010214FF0000B44F004044FF0080946
:10379000089103E008214FF0000B0891C4F3025395
:1037A000022B04D001CF0021032B06D006E0FF1D21
:1037B00027F00707F7E8020103E080B2042B00D1ED
:1037C000C0B24FF0000823072BD5702A07D0DDF8D0
:1037D00020C08CF0100C5CEA0B0C05D00EE04023EE
:1037E0008DF82430012308E050EA010306D030238D
:1037F0008DF824308DF8252002239846DDF820C06E
:103800008CF0080C5CEA0B0C0BD150EA010301D1DF
:10381000630706D530238DF824304FF00108A9F155
:103820000109582A04D038A20B9208AA0A920BE088
:103830003AA2F9E75B46089AFDF7A0FC0B9B9B5C5C
:103840000A9A521E0A92137050EA0102F2D10A98A3
:10385000ADEB000000F1200B600702D524F48034AA
:1038600001E04FF00109D94502DDA9EB0B0000E0B2
:10387000002000EB0B0141440890AAEB010AE00391
:1038800006D4DDE90F232146504600F063F80644D4
:103890004FF0000908E009A911F80900DDE90F124D
:1038A000904709F10109761CC145F4DBE0030CD512
:1038B000DDE90F232146504600F04CF8064404E0B1
:1038C000DDE90F1230209047761C0899481E0890B9
:1038D0000029F5DC08E00A980A990078491C0A9149
:1038E000DDE90F129047761CBBF10001ABF1010B33
:1038F000F1DC21465046DDE90F2300F019F80644BB
:103900006D1C1BE60928010030313233343536375F
:10391000383961626364656600000000303132331B
:1039200034353637383941424344454600000000BB
:103930002DE9F041044600251E461746880404D4AC
:1039400005E039462020B0476D1C641EF9D5284695
:10395000BDE8F0812DE9F041044600251E46904661
:10396000C80301D5302700E02027880404D505E0EE
:1039700041463846B0476D1C641EF9D52846BDE85F
:10398000F08100BFFEE770B505460C46284601F001
:10399000F7F8064626EA0401284601F0A9F970BDA9
:1039A000027A352A4DD1427A303A0A2A48D2DFE8E3
:1039B00002F00506071920094733340800BF3FE02D
:1039C00000BF00BF827A80F80D21002107E000F1DE
:1039D0000A024B1CD35C00F213125354491C0629F3
:1039E000F5D32DE0827A80F80D21C27A80F80E217D
:1039F00026E0827A80F80D21C27A80F80E2100211B
:103A000007E000F10A028B1CD35C00F21912535438
:103A1000491C1029F5D313E000BF827A80F80D21EC
:103A2000C27A80F80E21002107E000F10A028B1C07
:103A3000D35C00F229125354491C0429F5D300BF6A
:103A400034E0027A372A26D1427A312A04D0322A47
:103A500003D0332A1ED11CE000BFB43010F8AA2CCA
:103A6000C267C26F1202C267C26FB438C37A1A4308
:103A7000C0F83021002107E000F10A028B1CD35C62
:103A800000F59A725354491CD0F830218A42F3D879
:103A900000E000BF0AE0027A382A07D1427A302AD1
:103AA00003D1827A80F8322200BF00BF704710B580
:103AB000044604B910BD04E04FF47A70FDF704FB2E
:103AC000641E002CF8D100BFF4E7000070B5044676
:103AD0000D460A2C03D129460D20FFF7F7FF00BF42
:103AE0000548FFF7EBFC0028FAD0E1B20248FFF7E7
:103AF000F2FC204670BD00000060014002468A4290
:103B000002D2C84310447047501AFCE701480068CD
:103B100070470000140000200EB501200090052021
:103B2000019002200290694619480068FDF7BCFC2C
:103B30000820009005200190022002906946154857
:103B4000FDF7B2FC08211348FDF704FE4FF4804056
:103B50000090052001900220029069460D48FDF773
:103B6000A3FC4FF40050009002200190029069469F
:103B70000848FDF799FC4FF4805000900520019013
:103B80000220029069460348FDF78EFC0EBD00003E
:103B90000800002010D0014000B587B00020114976
:103BA0000860012005901048006B06900F48FFF751
:103BB00095FA05A90D48FFF7DDFA012211460B48D9
:103BC000FFF798FA012211460848FFF747FA0A2042
:103BD0000190012004900290039001A8FEF718FBC9
:103BE00007B000BD1400002000F00140003001408B
:103BF0000020FFF7FBF80220FFF784F80020FEF713
:103C0000E3FF0020FFF73CF801212648FEF73EFFC6
:103C100001212548FEF778FF00214FF4E13001F043
:103C200039F8FFF7B9FFFFF777FF00F0D1FFFEF794
:103C3000D1FA1EA0FFF754FC00F092FD31E02148BC
:103C4000807901282DD12048007A352804D03728E2
:103C50000CD038281ED113E035201C4908721A48B0
:103C6000FEF7CCF81948FFF7FBF814E037201749A6
:103C700008721548FDF7E6FA1448FFF7F1F80AE074
:103C80003820124908721048FDF74EFB0F48FFF725
:103C9000E7F800E000BF00BF00200A49887100F08B
:103CA00065FFCCE70101300001012000312E312EEB
:103CB00031204275696C6420362028626574612960
:103CC00000000000D8180020D0060020080A0020BC
:103CD00030B50346FFF71AFF044600BFFFF716FF93
:103CE00005462146FFF70AFF9842F7D330BD10B5CD
:103CF000142000F045FF20F003042146142000F0BA
:103D0000F7FF10BD10B5142000F03AFF40F0030497
:103D10002146142000F0ECFF10BD00002DE9F04713
:103D200006460F4690469946DFF860A000210D2018
:103D300000F0DEFF042000F095FE0E2051460870D2
:103D40000C204880084606714771002407E019F8E6
:103D50000420A01C0D49091D0A54601CC4B2062C85
:103D6000F5DB0A48D8F80010C160504600F08EF923
:103D7000054645B9082000F003FF00F0080008B12F
:103D8000002500E0FC252846BDE8F0870819002042
:103D90002DE9F74F84B081460C46974801904FF0CB
:103DA000000B002400200290039000210D2000F061
:103DB0009FFF80211220FFF7E6FD80211320FFF7EF
:103DC000E2FD042000F04EFE00BF2046E11704EBA8
:103DD0005171C910A4EBC101CEB2AEB1E11704EB31
:103DE0005171C910491C01F0FF0A77210D20FFF71E
:103DF000CAFD06F00700702202EA061240EA02013C
:103E00000D2000F0D7FE05E02046E11704EB5171CC
:103E1000C1F3C70A0C2078490870084680F804905E
:103E20002046E11704EB5171C910202202EB011169
:103E300006F00F021144CAB26F494A71002507E02B
:103E400002A8425D6C48001DA91C4254681CC5B202
:103E50005545F5DB0AF1020067494880019800F0FA
:103E600015F907462046E11704EB5171C91002AA63
:103E700012F8018007F1180000286CD100250DE030
:103E80005D49091D6A1C895C2046E21704EB5272E9
:103E900005EBE20202AB9954681CC5B2E21704EBD1
:103EA0005272D210052A07DCE21704EB5272D210CC
:103EB000C2F10502AA42E3DCE11704EB5171C9101B
:103EC00002AA515C41EA08012046E21704EB527253
:103ED000D21002AB995448480079B04204DB4648FE
:103EE0000079801B2044C4B2E21704EB5272D21056
:103EF00002AB9A5C2146E31704EB5373DB10A4EB8F
:103F0000C303C3F1080CFF2343FA0CF31A40204605
:103F1000E31704EB5373DB100DF1080C0CF80320CE
:103F2000E21704EB5272D21002AB9A5CE31704EB77
:103F30005373DB10A4EBC30C012303FA0CF31A43F5
:103F4000E31704EB5373DB100DF1080C0CF803209E
:103F5000601CC4B22CE05FBB002510E026494888F5
:103F6000C11700EB5171C5EBE101491E224A121D38
:103F7000515CC5F1040202AB9954681CC5B21E49DC
:103F80004888C11700EB5171C910A94201DD042D09
:103F9000E4DDE11704EB5171C91002AA515C41EA5A
:103FA00008012046E21704EB5272D21002AB99547A
:103FB00007F1180000283FF408AFB7B9002509E061
:103FC00002A8415D0698415502A8405D80EA0B0BAE
:103FD000681CC5B2042DF3DB02A8405D584504D02F
:103FE0008327384607B0BDE8F08F00210D2000F090
:103FF0007FFE3846F6E70000081900202DE9F0475B
:1040000007460D469046DFF880A04FF000090021DA
:104010000D2000F06DFE8021122000F0CBFD8021EC
:10402000132000F0C7FD042000F01CFD0C205146B9
:1040300008700720488008460771702141710024EC
:1040400009E0285D80EA09092A5D0F48001DA11CCE
:104050004254601CC4B2042CF3DB0B4880F80A9075
:10406000504600F013F806465EB907484088082815
:1040700003D0F5263046BDE8F0870348007988F87C
:1040800000003046F7E70000081900202DE9FF5F27
:1040900004464FF0000B0026B1460020039002902A
:1040A00001902078082812D003DC38B1042821D1EF
:1040B00014E00C2817D00E281CD103E00020029039
:1040C00001901AE0112002901020019015E030209C
:1040D000029020200190012003900EE050200290D9
:1040E0004020019009E071200290202001900120E1
:1040F000039002E0E920207000BF00BF2078173055
:10410000002871D020780C2802D02078042802D111
:104110006088002805DC20780C28F2D0207804285C
:10412000EFD00021012000F0E3FD022000F028FD87
:1041300000F080000090029A0098104340F00101C6
:10414000022000F0D5FD7F21042000F0D1FD7F2169
:10415000052000F0CDFD80210A2000F02BFD207805
:104160000C2805D02078042802D020780E2869D1A8
:104170006688402E02DB4FF0400B01E006F0FF0B9B
:10418000002706E0201DC15D092000F0B1FD781C6C
:10419000C7B25F45F6DBA6EB0B0086B23EB1042149
:1041A000084600F0A5FD0421022000F003FD21785F
:1041B000012000F09DFD20780C2803D180210D20E6
:1041C00000F0F8FC29E000BF072000F0D9FC00F067
:1041D00010000028F8D0302E02DD4FF0300B01E047
:1041E00006F0FF0B00270AE068E16088801BC21917
:1041F000201D815C092000F07BFD781CC7B25F4563
:10420000F3DB0421084600F073FDA6EB0B0086B239
:104210001EB904210220FFF7B6FB002ED3D100BF48
:10422000072000F0ADFC00F010000028F8D00420BA
:1042300000F0A6FC054605F0400018B1402104201E
:1042400000F056FD2078082803D140210C2000F012
:10425000B1FC00260821042000F04AFD08210220BC
:1042600000F0A8FC00BF072000F08AFC00F010005E
:104270000028F8D02FE000BF072000F081FC00F0FC
:1042800010000028F8D0042000F07AFC054605F064
:104290000800D8B105F02000C0B906F13000FF28B1
:1042A00000DD19E0002707E0092000F069FCF219A1
:1042B000211D8854781CC7B2302FF5DB082104205B
:1042C00000F016FD06F1300086B204E0082102205D
:1042D000FFF759FB00E0CEE700BF042000F050FCE0
:1042E00005462946042000F003FD05F0010010B149
:1042F0004FF0FF0AC9E0062000F042FC81464FF073
:10430000830A0198284000287DD002982840002880
:10431000FAD005F0020090BB4FF0000A0398002885
:10432000E8D00A2000F02CFC00F07F050C2000F003
:1043300027FC00F007087019FF2802DD4FF0830A00
:10434000A3E0B8F1000F05D025B1681E08EBC0004E
:10435000608001E0E8006080608800EBC60060805B
:1043600005B90125002707E0092000F009FCF21932
:10437000211D8854781CC7B2AF42F5DB85E0FFE70A
:1043800009F00800F0B30E2000F0FAFB00F0200066
:10439000C0BB4FF0E80A039850B30A2000F0F0FBCE
:1043A00000F07F050C2000F0EBFB00F0070870190F
:1043B000FF281DDCB8F1000F05D025B1681E08EB01
:1043C000C000608001E0E8006080608800EBC6000B
:1043D000608005B90125002708E0092000F0D0FB26
:1043E000F119491C221D5054781CC7B2AF42F4DBAE
:1043F0000E2000F0C5FB00F01F002071207920B9CD
:10440000202001E005E03EE020712079401E20716F
:104410003BE009F0080028B10E2000F0B1FB00F0ED
:10442000200060BB09F0010010B14FF0EB0A2CE056
:1044300009F0060020B309F0010008BB0A2000F0D3
:104440009FFB00F07F050C2000F09AFB00F00708AE
:104450007019FF2802DD4FF0830A0EE0B8F1000F5B
:1044600005D025B1681E08EBC000608001E0E800BF
:104470006080608800EBC60060804FF0DD0A04E0D9
:104480004FF0DD0A01E04FF0830A80210C2000F09C
:1044900091FB7F21042000F02BFC7F21052000F000
:1044A00027FC7F210220FFF76EFA7F210320FFF710
:1044B0006AFA0021012000F01BFC01E04FF0810AA4
:1044C000504604B0BDE8F09F70B50446FFF70FFCFE
:1044D0000720FFF7FDFB412C76D108210846FFF7A6
:1044E00052FA80210220FFF74EFA3D21112000F000
:1044F000FFFB8621172000F0FBFB5821262000F04F
:10450000F7FB4021152000F0F3FB0021122000F002
:10451000EFFB0021132000F0EBFB10210C2000F03A
:10452000E7FB372000F02CFB06460021372000F087
:10453000DFFB372000F024FB0546112D1CD148215C
:10454000262000F0D5FB5E21372000F0D1FB88212A
:10455000172000F0CDFB6B21382000F0C9FB232190
:104560003A2000F0C5FB1221292000F0C1FB2521D3
:104570003B2000F0BDFB21E0122D1FD15E21372032
:1045800000F0B6FB4821262000F0B2FB882117205E
:1045900000F0AEFB1221292000F0AAFBED2135200E
:1045A00000F0A6FBA5213B2000F0A2FBAE213720A6
:1045B00000F09EFB72213B2000F09AFB3146372031
:1045C00000F096FB88E0FFE7422C7DD10021082017
:1045D00000F08EFB80210220FFF7D5F93F2111204A
:1045E00000F086FB8821172000F082FBF8212720AD
:1045F00000F07EFB3F21282000F07AFB12212920C9
:1046000000F076FB0021362000F072FB002115201F
:1046100000F06EFB13211E2000F06AFB83211220A4
:1046200000F066FB8321132000F062FB00210D20C7
:1046300000F05EFB372000F0A3FA06460021372089
:1046400000F056FB372000F09BFA0546112D18D1DB
:104650005E21372000F04CFB8821172000F048FB3A
:1046600023213A2000F044FB6B21382000F040FB6E
:104670001221292000F03CFB25213B2000F038FBD3
:1046800021E0122D1FD15E21372000F031FB48219F
:10469000262000F02DFB8821172000F029FB122195
:1046A000292000F025FBED21352000F021FBA5217C
:1046B0003B2000F01DFBAE21372000F019FB7221DA
:1046C0003B2000F015FB00E004E03146372000F00D
:1046D0000FFB01E0812070BDFFF714FB0220FFF704
:1046E000F7FA0020F7E7000010B50446C0212B20A0
:1046F00000F0FEFA88212A2000F0FAFA0E2C01DCE4
:10470000012C00DA01240120A040C1B22D2000F0CC
:10471000EFFA0120A040C0F307212C2000F0E8FAB6
:104720007F21042000F0E4FA0121022000F0E0FAE9
:1047300080212A20FFF727F940210C2000F03AFAC7
:1047400000BF072000F01CFA00F010000028F8D08D
:104750000249087A00F086F910BD0000E818002030
:1047600010B500F00DF80520FFF7B2FA00F074F96B
:104770000520FFF7ADFA4120FFF7A6FE10BD0000AF
:1047800010B54FF480410548FDF768F8002400E0BB
:10479000641CB4F5FA6FFBDB10BD000010D00140C3
:1047A0002DE9F84F07468A46904600266F4D0020B7
:1047B00083468146009002206D49087403204874A6
:1047C00008468770087BFFF78FFF042000F04AF946
:1047D00000210D2000F08CFA8021122000F0EAF96F
:1047E0008021132000F0E6F90C20294608700220F1
:1047F0004880E020087107F15000C1B2284641719D
:104800002846FFF743FC06465EB969884FEAE17C1B
:1048100001EB5C7C4FEAEC0CA1EBCC0CBCF1000F83
:104820002ED106F1180CBCF1000F29D006F1230C93
:10483000BCF1000F09D16B884FEAE37C03EB5C7C91
:104840004FEAEC0CBCF1040F1ADB06F1230CBCF1AF
:10485000000F16D16A884FEAE27C02EB5C7C4FEADB
:10486000EC0CBCF1040F0CDB68884FEAE07C00EB39
:104870005C7C4FEAEC0CA0EBCC0CBCF1000F00D040
:10488000FF26002E6FD12C1D207888F8000098F8A4
:10489000002021465046FCF73FFC6988CA1701EB0F
:1048A0005272D210012A07DB6888C21700EB5272DD
:1048B000D21023789A4202D08220BDE8F88F607827
:1048C000C0F30010801C6178C1F340110844617886
:1048D000C1F3801108442178884244D8607800F000
:1048E0008000C0BB607800F0100008B14FF00109F3
:1048F000607800F0200068B14FF0010B09F1020070
:10490000205C00091A49886009F10200205C00F06F
:104910000F00C860607800F0400028B101200090CE
:1049200000201349C8704870607800F00F001149EA
:1049300031F810000E494860688809F1020101EB66
:104940000B0200991144C21700EB5272B1EBE20F57
:1049500003DD8220B1E705E005E00549087A00F0B3
:1049600081F800E082263046A7E700000819002001
:10497000E8180020180000202DE9F04104460D46FB
:10498000164F00210D2000F0B3F98021122000F015
:1049900011F98021132000F00DF9042000F062F8D5
:1049A0000C203946087002204880302008710846E3
:1049B00044713846FFF76AFB06465EB938464088C0
:1049C000802801D0F52605E010220449091D28465B
:1049D000FCF7A2FB3046BDE8F0810000081900207A
:1049E0002DE9F04105460C461A4FFFF78BF90520DB
:1049F000FFF75DF807210D2000F07AF980211220E1
:104A0000FEF7C1FF80211320FEF7BDFF08210846F5
:104A1000FEF7B9FF042000F025F80C203946087095
:104A200001204880084605713846FFF72FFB0646EF
:104A30003EB938464088102803D0F5263046BDE8F8
:104A4000F081044800792070024840796070304657
:104A5000F5E700000819002010B50F21012000F033
:104A600047F910BD10B5044600212B2000F040F995
:104A700088212A2000F03CF90120A040C1B22D205D
:104A800000F036F90120A040C0F307212C2000F0EF
:104A90002FF910BD2DE9F04105460E46324F002199
:104AA0000D2000F025F98021122000F083F88021EC
:104AB0001320FEF768FF0520FFF7D4FF0C203946CE
:104AC000087002204880A0200871084645713846C9
:104AD000FFF7DCFA0446601CC0B138464088042861
:104AE00001D0F52412E02048007900F00F001E49A3
:104AF00008710846007910B10A2804D101E0F624B3
:104B000003E0002401E0FA2400BF00BF4CBB0520F5
:104B1000FFF7A8FF0C2014490870102048801022CD
:104B200031461148001DFCF7F7FA3846FFF7AEFA98
:104B30000446601C90B10C48007900F00F000A494F
:104B400008710846007910B10A2804D101E0F12467
:104B500003E0002401E0FA2400BF00BF0420FFF7B7
:104B600081FF2046BDE8F08108190020034800219C
:104B7000016041608160C16070470000D81800206A
:104B800070B504466006040E44F080054FF4805171
:104B90000748FCF7DFFD284600F05EF800F040F81B
:104BA00005464FF480510248FCF758FE284670BD78
:104BB00010D0014070B505460C462846FFF7E0FFCF
:104BC000064646EA0401284600F092F870BD00004F
:104BD00000B589B0012234210F48FCF723FD0020E5
:104BE0000090012001900720029000200390049083
:104BF000012005901020069000200790089069463B
:104C000006480068FDF742FE012104480068FDF7F0
:104C1000E3FD09B000BD000010D001400C000020F1
:104C200070B50025C824FF210A480068FDF72AFF57
:104C300001E0601E84B2082106480068FDF7F4FD1B
:104C400008B9002CF5D103480068FDF717FFC5B27D
:104C5000284670BD0C00002070B505460026C8240B
:104C600029460B480068FDF70DFF01E0601E84B285
:104C7000082107480068FDF7D7FD08B9002CF5D1D9
:104C800004B9012602480068FDF7F8FE304670BD01
:104C90000C0000207FB504460D46009403950020CB
:104CA00002900320019069460E48FEF793FB4FF4F3
:104CB00009710D48FCF757FA012203210B48FCF754
:104CC000B1FC012211460748FEF77AFB05200121BD
:104CD00081404209920002F1E022C2F8001100BFB7
:104CE0007FBD000000600140B416002000D00140EC
:104CF00070B504460D466006040E24F080064FF49D
:104D000080510748FCF726FD3046FFF7A5FF2846EF
:104D1000FFF7A2FF4FF480510148FCF79FFD70BDE3
:104D200010D0014000D0014010D0014020D00140FF
:104D300030D00140000001400000000000000000F1
:104D400000000000644D0001000000204000000051
:104D500000350001A44D000140000020D0590000A2
:104D600010350001000000000000000010D00140DC
:104D700000A001400000000000000000100018002A
:104D80002000280030004000600080000001000189
:104D9000000100010001000100010001000100010B
:044DA000000000000F
:04000005010010B531
:00000001FF
