:020000040100F9
:1010000028410020211300010521000107210001D2
:101010000B2100010F21000113210001000000003D
:101020000000000000000000000000001721000187
:1010300019210001000000001B2100011D210001F9
:101040004713000147130001471300014713000134
:101050004713000127210001471300014713000136
:1010600047130001772100014713000147130001D6
:101070004713000147130001471300014713000104
:1010800047130001471300014F21000147130001DE
:1010900047130001471300014713000147130001E4
:1010A00047130001471300014713000147130001D4
:1010B00047130001DFF80CD002F016F80048004793
:1010C000CF110001284100204FF0180100FB01F072
:1010D00000BF00BF00BF013800BFFCD100BF704798
:1010E00072B600BF00BF00BF00BF30BF00BF00BF6F
:1010F00000BF00BF62B670471CB505208DF8040024
:101100002020009002208DF805006946644800F018
:101110004EFC2021624800F01BFE1CBD1FB50720BD
:101120000246604B19684FF6FF0319405E4B0B43B4
:1011300043EA02215B4B196000BF052000900020AC
:101140000190012002908DF80C00684601F0D4FC5B
:1011500012200090002001900220029001208DF8C2
:101160000C00684601F0C8FC1FBD00B589B005A899
:1011700001F050FB684601F0C3FB01214B4801F030
:1011800046F80121084601F091F801220321444864
:10119000203800F090FB4FF4E130059003200690DA
:1011A00000200790089001208DF800000190022097
:1011B000029003900120049005A93D4801F0D0FA67
:1011C000012211463A4801F02EFB09B000BDFFF79D
:1011D000CCFFFFF7A3FFFFF78FFF0EE035A001F074
:1011E000B5FF2F482038006A80F020002C492039B4
:1011F00008624FF4FA7000F06FF8EFE770B504463C
:101200000D4600BF2A4801F0D7FB0028FAD0E1B212
:10121000274801F011FB204670BD00BFFEE710B566
:101220000121480500F0F3FF0121480501F03EF8D7
:10123000244825494860254801F069FD0122002124
:10124000224801F006FE10BD10B50121C80700F0CC
:10125000DEFF0121C80701F029F8012001F0A5FEF9
:10126000002001F0D7FE10BD00B58DB00120039025
:101270000F480090019002200490002006900890F2
:101280001348029000200590079009900F200B90C2
:1012900000200A9069460F4800F0C8F80DB000BD64
:1012A00020D001400CED00E00000FA050100100024
:1012B0000060014048656C6C6F204D6831393032F8
:1012C0000D0A0000006CDC0200000020003001402C
:1012D000980000200809004010B5044604B910BD6C
:1012E00004E04FF47A70FFF7EFFE641E002CF8D193
:1012F00000BFF4E7084809490860704710B50020AE
:1013000001F02EF8022001F04AF8002001F070F8F8
:10131000002001F0AEF810BD006CDC0208000020D7
:1013200009480A4908600068854609488047094815
:1013300000470000FEE7FEE7FEE7FEE7FEE7FEE708
:10134000FEE7FEE7FEE7FEE70010000108ED00E023
:10135000FD120001B5100001012A0AD14B6803609B
:101360000B6983608B6943600B6A03618B6AC3609E
:101370000BE0022A09D18B6803604B698360CB695B
:1013800043604B6A03610023C3607047014600203D
:10139000FB4A914201D101200FE0F94A58329142B3
:1013A00001D1022009E0F64AB032914201D1042075
:1013B00003E0F44A914200D10820704770B504461A
:1013C00000252046FFF7E2FF0546EF480068284069
:1013D00008B1012070BD0020FCE720B10121EA4ADC
:1013E000083A116003E00021E74A083A11607047AB
:1013F00070B504460D46164632462946204601F091
:101400007AF870BD70B506460C4600253046FFF7E9
:10141000BDFF054624B145EA0520DB49086004E02C
:10142000002040EA0520D849086070BD2DE9F04150
:101430008AB007460E460024A0460025F06820B179
:10144000012803D0022817D10BE000BF012231464A
:1014500005A8FFF781FF022231466846FFF77CFFAF
:101460000AE00222314605A8FFF776FF0122314645
:101470006846FFF771FF00BF00BF00213846FFF745
:10148000C1FF3846FFF782FF0546BF480068284085
:1014900010B10AB0BDE8F081BB4868380560BA48B1
:1014A00060380560B84858380560B748503805605E
:1014B000B54848380560B448D83800682840B24973
:1014C000C839096829400843AF49C039096829402B
:1014D0000843AD49D039096829400843AA49E03991
:1014E000096829400843A849B039096829400843D8
:1014F000A549A039096829400843A34998390968D2
:1015000029400843A049A8390968294008439E4951
:10151000B83909682940084300B1BAE7059838602E
:101520000098B860F8696FF30B00F861F869F16A28
:101530000843F86124F4E034099844EA803424F440
:101540006054049844EAC02424F4E004F06820B114
:10155000012807D0022808D101E000BF07E044F4C9
:10156000801404E044F4001401E000BF00BF00BF99
:1015700024F07004069844EA001424F00E04019844
:1015800044EA400424F4C064079844EA402424F464
:10159000C074029844EAC014BC6128F4406848F45E
:1015A0004068F06878B1F068012804D128F4006838
:1015B000089848EAC028F068022804D128F4806816
:1015C000039848EA8028C7F840806D484430006896
:1015D0006B49443108606B486C38006840F408601F
:1015E00068496C39086067481438006840F48850CE
:1015F00064491439086063484430006840F4CC50B2
:10160000604944310860F06820B13846F2683168BA
:10161000FFF7EEFE0120FFF7E0FE00BF39E770B5EF
:10162000054600242846FFF7B1FE044656482838F0
:10163000046055483838046070BD70B50546002414
:101640002846FFF7A3FE04464F48383804604E484A
:101650002838046070BD0160704781607047704732
:101660002DE9F04105460F46904600260024284605
:10167000FFF78CFE0446B8F1000F04D0A86940F0D3
:101680000100A86105E0A86920F00100A86124F02C
:101690000F04002630E00121B14001EA07000428D0
:1016A00016D004DC012807D0022823D10AE008283C
:1016B00014D010281ED117E044EA0421324A883A97
:1016C000116017E044EA04212F4A783A116011E0D2
:1016D00044EA04212C4A703A11600BE044EA0421E8
:1016E000294A803A116005E044EA0421264A903AEA
:1016F000116000BF00BF761C052ECCD3BDE8F08181
:1017000070B506460D4600243046FFF73FFE0446FE
:10171000042D12D004DC012D07D0022D19D108E0D0
:10172000082D0ED0102D14D10FE01748603804603A
:101730000FE01548503804600BE013484838046047
:1017400007E011485838046003E00F486838046027
:1017500000BF00BF70BD2DE9F04105460C464FF0BB
:101760000008002600272846FFF710FE0746042C35
:101770001AD00BDC012C0ED0022C24D10FE000007B
:101780000008004008090040A00B0040082C10D0C1
:10179000102C18D112E02F48D0F8008013E02D480B
:1017A0001030D0F800800EE02A481830D0F80080C1
:1017B00009E028480830D0F8008004E025480838BF
:1017C000D0F8008000BF00BF08EA070008B101267A
:1017D00000E000263046BDE8F0812DE9F0410546E5
:1017E0000C464FF00008002600272846FFF7CEFDE4
:1017F0000746042C14D004DC012C07D0022C1ED187
:1018000009E0082C11D0102C19D113E01148283808
:10181000D0F8008013E00F481838D0F800800EE0B0
:101820000C481038D0F8008009E00A482038D0F879
:10183000008004E007483038D0F8008000BF00BFC7
:1018400008EA070008B1012600E000263046BDE89E
:10185000F0810000F00A00407FB50446F84B0FCB42
:101860008DE80F00F74884420BD0F64810308442D0
:1018700007D0F4482030844203D0F248303084420C
:1018800000D103E03321F0A0FFF7C7FC002507E0FB
:101890005DF82500A04202D1284604B070BD6D1C41
:1018A000042DF5DB4FF0FF30F7E710B501210805F7
:1018B00000F0FCFC10BD2DE9F041074688461646B5
:1018C000E04887420BD0DF481030874207D0DD4820
:1018D0002030874203D0DB483030874200D104E01B
:1018E0004FF4C671D8A0FFF798FC4FEA18404FEAB2
:1018F000004018B9B8F1000F00D004E040F28D119B
:10190000D1A0FFF78AFC012E05D0022E03D0032EB2
:1019100001D0042E00D104E04FF4C771CAA0FFF734
:101920007CFC3846FFF798FF044600253BE0012089
:10193000A84000EA0800A8B3CC4850F824006A0088
:10194000032191408843C94941F82400012E06D063
:10195000022E05D0032E0ED0042E22D116E020E058
:10196000C24850F824006A00012191400843BF4951
:1019700041F8240015E0BD4850F824006A00022117
:1019800091400843B94941F824000AE0B74850F8AB
:1019900024006A00032191400843B44941F824001F
:1019A00000BF00BF6D1C102DC1D3BDE8F08170B524
:1019B00004460D464FF0FF36A24884420BD0A148A2
:1019C0001030844207D09F482030844203D09D4885
:1019D0003030844200D103E055219BA0FFF71DFC6D
:1019E00028686FF30F0010B9286800B103E0562192
:1019F00095A0FFF712FC287901280BD0287902283E
:101A000008D02879032805D02879052802D028791C
:101A1000042800D103E057218BA0FFF7FEFB6A7971
:101A2000288881B22046FFF746FF6879022800D057
:101A300070BD2046FFF710FF06462879062855D2CC
:101A4000DFE800F054030C152A3FA068296808431A
:101A5000A060E06829688843E06047E0A0682968E2
:101A60000843A060E06829680843E0603EE0A068A1
:101A700029688843A060E06829688843E06020689E
:101A80002968884320607A4830F81600298808437E
:101A9000774921F8160029E0A06829680843A0606A
:101AA000E06829680843E06020682968884320606E
:101AB0006F4830F81600298808436D4921F8160050
:101AC00014E0A06829688843A060E068296888431A
:101AD000E0602068296808432060654830F81600F7
:101AE00029688843624921F8160000BF00BF00BF83
:101AF0009EE74FF6FF71016001210171417170474E
:101B000070B505460C4600264E4885420BD04D4820
:101B10001030854207D04B482030854203D04948D9
:101B20003030854200D103E0A62147A0FFF775FBC6
:101B3000012C25D0022C23D0042C21D0082C1FD01E
:101B4000102C1DD0202C1BD0402C19D0802C17D04D
:101B5000B4F5807F14D0B4F5007F11D0B4F5806F58
:101B60000ED0B4F5006F0BD0B4F5805F08D0B4F59B
:101B7000005F05D0B4F5804F02D0B4F5004F00D11E
:101B800003E0A72130A0FFF748FB286804EA1040D3
:101B900008B1012600E00026304670BD0146086805
:101BA0004FF6FF7202EA1040704770B505460C46CA
:101BB0000026244885420BD022481030854207D0A9
:101BC00020482030854203D01E483030854200D165
:101BD00003E0C9211CA0FFF720FB012C25D0022C1B
:101BE00023D0042C21D0082C1FD0102C1DD0202C49
:101BF0001BD0402C19D0802C17D0B4F5807F14D086
:101C0000B4F5007F11D0B4F5806F0ED0B4F5006F3D
:101C10000BD0B4F5805F08D0B4F5005F05D0B4F503
:101C2000804F02D0B4F5004F00D103E0CA2106A0D6
:101C3000FFF7F3FA28682040E0B101261BE000001E
:101C40004C34000100D001402E2E5C4D48534350CF
:101C5000555F4472697665725C7372635C6D68731C
:101C60006370755F6770696F2E63000080D10140FB
:101C70000C0000200026304670BD0146086880B286
:101C800070472DE9F04105460C464FF0FF3600271E
:101C90004FF00008F84885420BD0F74810308542D5
:101CA00007D0F5482030854203D0F34830308542D4
:101CB00000D104E0ED21AFF27000FFF7AEFA012C85
:101CC00025D0022C23D0042C21D0082C1FD0102C7E
:101CD0001DD0202C1BD0402C19D0802C17D0B4F54F
:101CE000807F14D0B4F5007F11D0B4F5806F0ED092
:101CF000B4F5006F0BD0B4F5805F08D0B4F5005F89
:101D000005D0B4F5804F02D0B4F5004F00D104E007
:101D1000EE21AFF2CC00FFF780FA2846FFF79CFDDA
:101D20000646D64830F8160000EA0407D34830F8D3
:101D3000160024EA0008D14830F81600204018B1F7
:101D4000A8683843A86001E0C5F80480BDE8F081C8
:101D50002DE9F04105460C464FF0FF3600274FF0C5
:101D60000008C54885420BD0C3481030854207D0D3
:101D7000C1482030854203D0BF483030854200D171
:101D800005E040F20B11AFF24010FFF746FA012CCC
:101D900025D0022C23D0042C21D0082C1FD0102CAD
:101DA0001DD0202C1BD0402C19D0802C17D0B4F57E
:101DB000807F14D0B4F5007F11D0B4F5806F0ED0C1
:101DC000B4F5006F0BD0B4F5805F08D0B4F5005FB8
:101DD00005D0B4F5804F02D0B4F5004F00D105E036
:101DE0004FF48671AFF2A010FFF717FA2846FFF7FD
:101DF00033FD0646A14830F8160000EA04079F4864
:101E000030F8160024EA00089C4830F816002040FC
:101E100018B1A868B843A86002E04FEA08406860BB
:101E2000BDE8F08170B505460C46164692488542DD
:101E30000BD091481030854207D08F482030854222
:101E400003D08D483030854200D105E04FF49571C4
:101E5000AFF20C20FFF7E1F9012C25D0022C23D0A2
:101E6000042C21D0082C1FD0102C1DD0202C1BD0CE
:101E7000402C19D0802C17D0B4F5807F14D0B4F545
:101E8000007F11D0B4F5806F0ED0B4F5006F0BD089
:101E9000B4F5805F08D0B4F5005F05D0B4F5804F8D
:101EA00002D0B4F5004F00D105E040F22B11AFF2A3
:101EB0006820FFF7B2F926B921462846FFF748FF08
:101EC00005E0012E03D121462846FFF7DAFE70BD5A
:101ED0002DE9F04104460E4600256F1E66488442F7
:101EE0000BD065481030844207D0634820308442CC
:101EF00003D061483030844200D105E040F2411106
:101F0000AFF2BC20FFF789F92046FFF7A5FC074692
:101F1000002526E0594830F817000121A940084063
:101F200078B10120A840304028B1A0680121A94023
:101F30000843A06014E0A1680120A8408143A1608B
:101F40000EE00120A840304028B120680121A940BE
:101F50000843206004E020680121A94088432060F4
:101F60006D1C102DD6D3BDE8F08170B504460D462A
:101F70001646414884420BD03F481030844207D077
:101F80003D482030844203D03B483030844200D169
:101F900005E040F26B11AFF25030FFF73EF9280C2C
:101FA000000408B905B105E04FF4B671AFF268302E
:101FB000FFF733F91EB1E0682843E06002E0E06813
:101FC000A843E06070BD47F201002D4908607047EA
:101FD0002DE9F04106460D461746274886420BD0AC
:101FE00025481030864207D023482030864203D04F
:101FF00021483030864200D105E040F2C111AFF2F5
:10200000B830FFF70AF9280C000408B905B105E05B
:102010004FF4E171AFF2D030FFF7FFF80FB1012FAD
:1020200000D105E040F2C311AFF2E430FFF7F5F85C
:102030003046FFF711FC044634B1012C05D0022CC8
:1020400020D0032C40D11EE000BF57B10C48001D2A
:102050000068210105FA01F108430749C1F824028B
:1020600009E00748001D0068210105FA01F18843D5
:102070000149C1F8240227E000D001400C000020F3
:1020800020D2014000BF7FB1204604EBD07149103F
:10209000A4EB41010A0105FA02F1184A1268114342
:1020A000174AC2F828120EE0204604EBD0714910FE
:1020B000A4EB4101090105FA01F1104A12688A43B3
:1020C0000F49C1F8282200BF00BFBDE8F08110B55C
:1020D00004460CB1012C00D105E040F2EB11AFF247
:1020E0009840FFF79AF805480838006820F001008A
:1020F00020430349C1F8200210BD000028D201404E
:1021000000D00140704700BFFEE700BFFEE700BF00
:10211000FEE700BFFEE770477047704710B51AA092
:1021200001F014F810BD10B500241C48806800F0C0
:102130000F00042808D1194800F081FB044621460D
:10214000164800F079FB00E000BF00BF10BD08B5E5
:102150000021134800F0E0FE48B91148C068009023
:102160000F488368426801680EA000F0EFFF01206D
:1021700000F03FFF08BD10B50FA000F0E7FF002101
:10218000114800F08DFE10BD5379735469636B5F85
:1021900048616E646C65720D0A00000000600140C9
:1021A00018010020524E473A25782D25782D2578A4
:1021B0002D25780D0A000000B6A8CAB1C6F7D6D002
:1021C000B6CF0D0A000000000030014070B5044693
:1021D0000D46F548204008B104B103E05121F3A0B9
:1021E000FFF71BF80DB1012D00D103E05221EFA044
:1021F000FFF713F82DB1F74880682043F549886050
:1022000004E0F4488068A043F249886070BD70B56E
:1022100004460D46F048204008B104B103E078219F
:10222000E2A0FEF7FAFF0DB1012D00D103E0792104
:10223000DEA0FEF7F2FF2DB1E64840682043E549F5
:10224000486004E0E3484068A043E249486070BD4C
:1022500070B504460D46E148204008B104B103E0E2
:102260009A21D2A0FEF7D9FF0DB1012D00D103E0D4
:102270009B21CEA0FEF7D1FFD648406904F0704103
:102280008843D449486125B1084600692043086164
:1022900004E0D0480069A043CE490861CD484069B8
:1022A00004F070410843CB49486170BD70B50446E5
:1022B0000D46C948204008B104B103E0C421BBA0C9
:1022C000FEF7ABFF0DB1012D00D103E0C521B7A092
:1022D000FEF7A3FF2DB1BF48C0682043BD49C860C9
:1022E00004E0BC48C068A043BA49C86070BD70B57E
:1022F0000446022C00DA04E040F20D11ABA0FEF718
:102300008CFF6CB9B348006820F4E020B149086044
:1023100000BFB04800680028FBD0FEF7E1FE13E0E4
:10232000012C11D1AB48006820F4E02040F480304B
:10233000A8490860AA48C56845F08040A849C86017
:10234000FEF7CEFEA648C56070BDA248406AA5490A
:10235000084070479F48806A43F60F7108407047F5
:1023600010B504460CB1012C00D104E040F2391143
:102370008EA0FEF752FF14B1012C0ED106E0954855
:10238000006820F400709349086006E091480068F6
:1023900040F400708F49086000BF00BF10BD10B549
:1023A0000446022C01D0012C00D104E040F24B1174
:1023B0007EA0FEF732FF012C02D0022C16D109E0DC
:1023C0008448006820F030008249086008460068B0
:1023D00008600BE07F48006820F030007D4908600D
:1023E0000846006840F01000086000BF00BF10BD44
:1023F00010B504461CB1012C01D0022C00D104E020
:102400004FF4B07169A0FEF708FF24B3012C02D08D
:10241000022C2CD10EE06F48006840F008006D4996
:1024200008600846006820F004000860084600685C
:1024300008601CE06748006840F0080065490860D3
:102440000846006820F0040008600846006840F074
:10245000040008600BE05F48006820F008005D4958
:1024600008600846006820F00400086000BF00BF54
:1024700010BD10B504460CB1012C00D104E040F2AF
:102480007B114AA0FEF7C9FE14B1012C16D109E058
:102490005048006820F001004E4908600846006876
:1024A00008600BE04B48006820F0010049490860D3
:1024B0000846006840F00100086000BF00BF10BD82
:1024C0004449096801F03001102902D146490160F0
:1024D00006E04049096801F0300109B9434901604B
:1024E0003C49C96A4FF47A72514341603949096BDA
:1024F00051438160704730B50B460021012A26D137
:102500003B4D5C1BAB421DD009DC3A4C1C4484B1F2
:10251000B4F5A43F0FD0B4F5AC3F17D10DE0B4F53E
:10252000805F11D0B4F5005F0AD0B4F5405F0DD1E3
:1025300005E000210AE0032108E0052106E000BFD4
:102540000B2103E00D2101E00F2100BF59E0022A19
:1025500057D1274D5C1BAB4220D00CDC264C1C44D1
:1025600004B3B4F5006F10D0B4F5A83F0FD0B4F5A4
:10257000B03F45D10DE0B4F5805F11D0B4F5005FF8
:102580000AD0B4F5405F3BD105E0002138E00221DC
:1025900036E0042134E000BF0A2131E00C212FE0B5
:1025A0000E212DE02AE00000070000302E2E5C4DA9
:1025B00048534350555F4472697665725C73726329
:1025C0005C6D68736370755F7379736374726C2E7E
:1025D0006300000000F00140034730F40F0000F0FA
:1025E00000E001400FC7F50300D8B80500A24A0477
:1025F0000080014000E8FFBF00F0FFBF012100BFE5
:1026000000BF4F4CA0420AD14E4CA46B24F01F04D3
:102610004C4DAC632C46A46B0C43AC632DE0484C92
:102620005834A0420BD1474CA46B24F4F854454DC8
:10263000AC632C46A46B44EA0124AC631DE0404C1F
:10264000B034A0420BD13F4CA46B24F4F8143D4DA0
:10265000AC632C46A46B44EA0144AC630DE03A4CF5
:10266000A0420AD1374CA46B24F0F854354DAC632A
:102670002C46A46B44EA0164AC6330BD10B504463B
:102680003248204478B1B0F5805F11D0B0F5005FDA
:1026900003D0B0F5405F10D100E000BF0121080277
:1026A000FFF704FE09E001214802FFF7FFFD04E007
:1026B00001218802FFF7FAFD00BF00BF10BD2349CA
:1026C0000144B9B1B1F5805F1BD0B1F5005F03D013
:1026D000B1F5405F1CD106E01A49896921F080718B
:1026E000184A916114E01749896941F08071154ACF
:1026F00091610DE01349896921F00071114A9161DE
:1027000006E01049896921F080610E4A916100BF9D
:1027100000BF704710B504460D48204418B1B0F50D
:10272000805F0AD104E001210846FFF7BFFD04E005
:1027300001210220FFF7BAFD00BF00BF10BD00005D
:102740000008004000F00140080900400080FEBF82
:1027500000A0FEBF10B504462046FFF7DBFF10BD0A
:10276000FEB505460C46206820B1D949206888424C
:1027700000D203E01921D7A0FEF74FFD606840B1F9
:102780006068012805D06068022802D060680328CC
:1027900000D103E01A21CFA0FEF73FFDA06848B1A9
:1027A000A068042801D1606820B1A068042802D183
:1027B000606800B103E01B21C6A0FEF72EFDE068B3
:1027C00028B1E068182802D0E068082800D103E0AA
:1027D0001C21C0A0FEF721FD6846FFF771FEE868E6
:1027E00040F08000E86002980009216800EB510089
:1027F000B0FBF1F6F0B22860C6F307206860E86825
:1028000020F08000E860D4E901010843E168084352
:10281000E860FEBD4FF416510160032141600021C4
:102820008160C16070471AB143680B43436002E0A6
:1028300043688B4343607047CAB2026070470146E9
:102840000868C0B2704721B1026942F020020261FB
:1028500003E0026922F0200202617047016941F041
:10286000010101617047016921F0010101617047B7
:10287000016941F0020101617047016921F0020123
:10288000016170470A6922B1426842F080024260E9
:1028900003E0426822F080024260D0F8982042F0C3
:1028A00001022AB1D0F8982022F00102C0F8982045
:1028B0004A6832B9D0F8942022F00102C0F894207E
:1028C00008E04A68012A05D1D0F8942042F00102BC
:1028D000C0F894208A68C0F89C20CA68C0F8A0207C
:1028E0000A7832B1D0F8982042F00102C0F898205E
:1028F00005E0D0F8982022F00102C0F89820704737
:10290000002101704160022181600321C16000212A
:10291000016170470246002041F001030BB140F015
:10292000040009B140F00200C2F88800704731B1DC
:10293000D0F8982042F00102C0F8982005E0D0F8C5
:10294000982022F00102C0F898207047014648699B
:10295000704701468869704701468868704701469C
:10296000486900F0800008B1012070470020FCE7B2
:102970000146486900F0080008B1012070470020B6
:10298000FCE70146486900F0040008B101207047E7
:102990000020FCE70146486900F0020008B1012070
:1029A00070470020FCE70146486900F0010008B1CB
:1029B000012070470020FCE70146486900F0400014
:1029C00008B1012070470020FCE70146486900F08B
:1029D000200008B1012070470020FCE7014648694B
:1029E00000F0200008B1012070470020FCE70146FC
:1029F000C86F00F0100008B1012070470020FCE70C
:102A00000146C86F00F0080008B10120704700209F
:102A1000FCE70146C86F00F0040008B101207047D0
:102A20000020FCE70146C86F00F0020008B1012059
:102A300070470020FCE70146C86F00F0010008B1B4
:102A4000012070470020FCE7D0F8A81041F00101F8
:102A5000C0F8A810704731B1D0F8A42042F00102AC
:102A6000C0F8A42005E0D0F8A42022F00102C0F8AC
:102A7000A420704721B1026F42F00102026703E017
:102A8000026F22F00102026770470146486FC0B230
:102A9000704770B504460D460DB1012D00D104E01C
:102AA0004FF4A4710BA0FEF7B8FB25B1206940F0EC
:102AB0004000206103E0206900F04000206170BD0B
:102AC000D0F8901041F00101C0F89010704700005C
:102AD00021AA44002E2E5C4D48534350555F44724A
:102AE000697665725C7372635C6D68736370755F41
:102AF000756172742E6300002DE9F0470446207B57
:102B000010B1207B012800D103E011215BA0FEF76A
:102B100084FB6068102800D203E0122157A0FEF762
:102B20007CFBA068102800D203E0132153A0FEF71D
:102B300074FB207B002855D000BF57480068C0F3C5
:102B4000022005462846D4E901230146C1F10708C1
:102B5000B8F1040F02D94FF0040801E0C1F10708F1
:102B6000C44601F10408B8F1070F02D24FF0000883
:102B700001E0A1F1030847464FF0010808FA0CF8FC
:102B8000A8F1010808EA020808FA07F84FF001095D
:102B900009FA07F9A9F1010909EA030948EA09064E
:102BA00000BF227851B23046002908DA0207170E1A
:102BB000394A0C3201F00F031B1FD75403E0020700
:102BC000130E364A535400BF217848B200F01F025A
:102BD000012191404209920002F1E022C2F8001165
:102BE00000BF0BE0217848B200F01F0201219140A4
:102BF0002B4A430942F8231000BF00BFBDE8F0870D
:102C000070B504460D46B4F1005F02D0B4F1102F48
:102C100000D103E0332119A0FEF7FFFA21488542D5
:102C200000D203E0342115A0FEF7F7FA1E4905EAA9
:102C3000010020431849091F086070BD10B5044603
:102C4000042C01D0601D00B903E044210BA0FEF765
:102C5000E4FA042C08D14FF0E020006940F00400B1
:102C60004FF0E021086107E04FF0E020006920F01C
:102C700004004FF0E021086110BD00002E2E5C4DD5
:102C800048534350555F4472697665725C73726352
:102C90005C6D6973632E63000CED00E000E400E0FE
:102CA00080E100E0FFFF0F0080FFFF1F10B504462A
:102CB0008F48844203D101214805FFF7F7FA10BD80
:102CC00070B504460D4616460EB1012E00D103E044
:102CD000242188A0FEF7A1FA66B105EB850004EB7C
:102CE0008000806840F0010005EB850104EB810164
:102CF00088600BE005EB850004EB8000806820F025
:102D0000010005EB850104EB8101886070BD70B5A1
:102D100005460C46217800222846FFF7D1FF002007
:102D2000217801EB810105EB81018860207800EBBF
:102D3000800005EB8000806840F00200217801EB04
:102D4000810105EB81018860207800EB800005EBB4
:102D50008000806820F00800217801EB810105EBFC
:102D600081018860217801EB8101606845F82100CC
:102D700070BD70B505460C46217800222846FFF745
:102D80009FFF0020217801EB810105EB8101886024
:102D9000207800EB800005EB8000806840F00200A6
:102DA000217801EB810105EB81018860207800EB3F
:102DB000800005EB8000806840F00800217801EB7E
:102DC000810105EB81018860217801EB8101606858
:102DD00045F82100227805F1B000A16840F82210E2
:102DE00070BD70B504460D4616460EB1012E00D1D9
:102DF00003E032213FA0FEF710FA66B905EB85002B
:102E000004EB8000806820F0080005EB850104EBEE
:102E1000810188600DE0012E0BD105EB850004EBEC
:102E20008000806840F0080005EB850104EB81011B
:102E3000886070BD01EB810340F82320704710B516
:102E400001EB810440F8242000F1B00444F8213063
:102E500010BD70B504460D4616460EB1012E00D1C8
:102E600003E04B2123A0FEF7D8F966B105EB8500FE
:102E700004EB8000806820F0040005EB850104EB82
:102E8000810188600BE005EB850004EB8000806821
:102E900040F0040005EB850104EB8101886070BD02
:102EA00008B501EB810200EB8202D268009208BDF6
:102EB000024601EB810002EB8000006900F0010096
:102EC00008B1012070470020FCE70146D1F8A000BE
:102ED00070470246D2F8A80001238B40184008B181
:102EE000012070470020FCE70146D1F8A800704798
:102EF000003001402E2E5C4D48534350555F4472C4
:102F0000697665725C7372635C6D68736370755F1C
:102F100074696D65722E630070B505460C46012616
:102F200004B903E00E214DA0FEF777F9544800687C
:102F300000F00100A0B15248001D50F824002860A4
:102F40004F48001D50F8240068604D48001D50F89F
:102F50002400A8604A48001D50F82400E8600026BC
:102F6000304670BD46490861704770B505460C464D
:102F700005B903E02F2139A0FEF74FF90CB1012C60
:102F800000D103E0302135A0FEF747F934B13C48C9
:102F9000006840F080503A49086005E03848006811
:102FA00020F080503649086070BD30B1344909685E
:102FB00041F01001324A116005E03149096821F001
:102FC00010012F4A1160704770B504460025012C8E
:102FD00001D0042C00D103E0572120A0FEF71DF9F9
:102FE00027480068204008B1012500E00025284658
:102FF00070BD10B50446012C01D0042C00D103E0B3
:103000006D2116A0FEF709F91D480068A0431C4970
:10301000086010BD10B5044604B903E078210FA084
:10302000FEF7FBF81648C06820F080401449C860DD
:103030000846006820F00100086010BD10B5044685
:1030400004B903E0852105A0FEF7E7F80C48C06845
:1030500040F080400A49C86010BD00002E2E5C4D33
:1030600048534350555F4472697665725C7372636E
:103070005C6D68736370755F74726E672E630000B9
:1030800000E001402DE9F05F0546002092469B4696
:1030900088460646814640241BE02846414647466E
:1030A000224600F042F853465A46C01A914110D3C6
:1030B00011461846224600F029F82D1A67EB010840
:1030C0004F4622460120002100F020F817EB0009AE
:1030D0004E41201EA4F10104DFDC484631462A4659
:1030E0004346BDE8F09F0000064C074D06E0E0684F
:1030F00040F0010394E8070098471034AC42F6D33F
:10310000FDF7DCFF5C3400017C340001202A04DB85
:10311000203A00FA02F1002070479140C2F12003EA
:1031200020FA03F3194390407047202A04DB203A29
:1031300021FA02F00021704721FA02F3D040C2F1D7
:103140002002914008431946704700000FB4054B18
:1031500010B503A9044A029800F018F810BC5DF8F5
:1031600014FB0000FD1100011400002002E008C85B
:10317000121F08C1002AFAD170477047002001E0F1
:1031800001C1121F002AFBD1704700002DE9FF4F3B
:103190008DB09B460F460446002606E025280BD03E
:1031A0005A460F999047641C761C20780028F5D168
:1031B00011B03046BDE8F08F0025A846012298499D
:1031C00000E0054314F8013F203B02FA03F00842F7
:1031D000F7D120782E2817D114F8010F45F00405F7
:1031E0002A280ED06FF02F022078A0F13001092993
:1031F0000AD808EB880102EB410100EB0108641CCE
:10320000F2E757F8048B641C20786C280DD004DC9E
:103210004C2812D06A2811D104E074280DD07A28E5
:103220000CD10AE045F4001507E0617845F48015FB
:10323000814202D1641C05F58015641C2278692A3C
:1032400045D008DC002AB3D0582A69D0632A10D0B0
:10325000642A08D13BE0702A67D0732A13D0752AFC
:103260005CD0782A5CD010465A460F999047761C5D
:10327000D3E017F8040B8DF8000000208DF8010052
:10328000E946012003E057F8049B4FF0FF3069073F
:103290004FF0000501D40AE06D1C45450DDA85426A
:1032A000FADB19F805100029F6D106E06D1C8542FD
:1032B000FCDB19F805100029F8D12E4404E019F8B8
:1032C000010B5A460F9990476D1EF8D2A5E00A20CF
:1032D0000021CDE90801C5F3025002280DD001CF2D
:1032E000C117031E71F100030DDA4FF0000CD0EB93
:1032F0000C006CEB01012D2308E0FF1D27F00707F0
:10330000F7E80201EDE72B0504D52B238DF82830D3
:1033100001233BE0EB0739D02023F7E70A2000E048
:1033200010200021CDE9080107E01020002145F020
:103330000405CDE908014FF00808C5F30250022842
:103340000FD001CF00214FF0000A2B071FD5702AA4
:103350000DD0DDE908C38CF0100C5CEA030C0CD036
:1033600015E0FF1D27F00707F7E80201EBE7402211
:103370008DF828204FF0010A0BE050EA010306D037
:1033800030238DF828308DF8292002239A46582AB8
:1033900004D024A20DF120090B9209E026A2F9E73E
:1033A000DDE90823FFF76EFE0B9B9B5C09F8013DEE
:1033B00050EA0102F4D1ADEB090020300890680713
:1033C00001D44FF001080899884502DDA8EB0100FF
:1033D00000E000208046002506E00AA85A46405D2D
:1033E0000F9990476D1C761C5545F6DB04E03020A4
:1033F0005A460F999047761CB8F10001A8F10108D0
:10340000F5DC05E019F8010B5A460F999047761C38
:103410000899481E08900029F4DC641CC5E60000E9
:10342000092801003031323334353637383961629A
:10343000636465660000000030313233343536375E
:1034400038394142434445460000000000D0014065
:1034500010D0014020D0014030D001407C34000128
:1034600000000020180000006C31000194340001BD
:1034700018000020104100007C3100010000000015
:1034800000000000006CDC020000000000000000F2
:043490000000000038
:04000005010010B531
:00000001FF
